:100000000C9434060C9451060C9451060C94C23195
:100010000C9451060C9451060C9451060C94510604
:100020000C9451060C9451060C94882E0C94602F5D
:100030000C9488160C9451060C9451060C9451069D
:100040000C9451060C9451060C9451060C945106D4
:100050000C9451060C94642E0C9451060C94510689
:100060000C9451060C9451060C9451060C945106B4
:100070000C9451060C9451060C9451060C945106A4
:100080000C9451060C9451060C9451060C94510694
:100090000C9451060C9451060C9451060C94510684
:1000A0000C9451060C9451060C945106050109025A
:1000B000A10185020901A1000509190129081500FE
:1000C0002501950875018102050109300931158165
:1000D000257F95027508810609381581257F9501D0
:1000E00075088106050C0A38021581257F95017572
:1000F000088106C0C005010980A101850319012AF4
:10010000B700150126B700950175108100C0050CD8
:100110000901A101850419012AA002150126A002E6
:10012000950175108100C005010906A1018506052C
:100130000719E029E71500250195087501810205D9
:1001400007190029EF1500250195F07501810205B9
:10015000081901290595057501910295017503910D
:1001600001C00660FF0961A1010962150026FF00B8
:100170009520750881020963150026FF00952075FA
:10018000089102C005010906A101050719E029E748
:1001900015002501950875018102950175088101F9
:1001A0000507190029FF150026FF0095067508812F
:1001B000000508190129051500250195057501910E
:1001C00002950175039101C000AF00AE09025B000A
:1001D000030100A0FA090400000103010100092144
:1001E00011010001224400070581030800010904F0
:1001F0000100020300000009211101000122220078
:1002000007058203200001070503032000010904FC
:100210000200010300000009211101000122B600C3
:1002200007058403200001120100020000000853AA
:100230004601000100010200010C0343006F00723F
:10024000006E0065000000100366006F006F007311
:1002500000740061006E000000040309042B001408
:10026000001A00080015001700E10004001600073E
:100270000009000A00E0001D001B0006001900052F
:1002800000000000000000E300777C2C002A00132F
:100290000012000C0018001C00340033000F000E88
:1002A000000D000B00290038003700360010001147
:1002B00000000000000000E600787C280001001E1D
:1002C000001F0020002100220001002D002E002F21
:1002D000003000310001002900E700E2003900345D
:1002E000000000000000000100010001002A0027BA
:1002F0000026002500240023003F003E003D003C76
:10030000003B003A004500440043004200410040E9
:100310000000000000000001000100010001001EBB
:10032000021F0220022102220201002D022E022FB2
:10033000023002310201002900E300E600390034F6
:10034000020000000000000100010001002A002757
:10035000022602250224022302350235004F0052F4
:100360000051005000000046004E004B004D004A76
:10037000000000000000000100010001000000007A
:100380000000000000000000002078237829782574
:100390007827780000217824782A78267828780031
:1003A000000000000000000100010001004C0000FE
:1003B000000000AE00AB00A900000000000000A893
:1003C00000AC00AA000000000000000000000000D7
:1003D000000000000000000100010001000000001A
:1003E0000000003E5B4F5B3E003E6B4F6B3E001CCF
:1003F0003E7C3E1C00183C7E3C18001C577D571C60
:10040000001C5E7F5E1C0000183C180000FFE7C364
:10041000E7FF00001824180000FFE7DBE7FF0030CB
:10042000483A060E00262979292600407F0505074F
:1004300000407F05253F005A3CE73C5A007F3E1CA8
:100440001C0800081C1C3E7F0014227F2214005F41
:100450005F005F5F0006097F017F00006689956A83
:100460000060606060600094A2FFA2940008047EB7
:1004700004080010207E20100008082A1C0800082C
:100480001C2A0808001E10101010000C1E0C1E0C58
:100490000030383E383000060E3E0E0600000000E8
:1004A00000000000005F00000000070007000014CB
:1004B0007F147F1400242A7F2A1200231308646209
:1004C00000364956205000000807030000001C2297
:1004D0004100000041221C00002A1C7F1C2A000849
:1004E000083E08080000807030000008080808086E
:1004F000000000606000002010080402003E514926
:10050000453E0000427F40000072494949460021B3
:1005100041494D33001814127F10002745454539D5
:10052000003C4A4949310041211109070036494937
:10053000493600464949291E000000140000000009
:100540004034000000000814224100141414141454
:10055000000041221408000201590906003E415DD5
:10056000594E007C1211127C007F49494936003EE9
:1005700041414122007F4141413E007F494949417B
:10058000007F09090901003E41415173007F0808BD
:10059000087F0000417F4100002040413F01007F73
:1005A00008142241007F40404040007F021C027F2F
:1005B000007F0408107F003E4141413E007F090951
:1005C0000906003E4151215E007F09192946002697
:1005D000494949320003017F0103003F4040403F49
:1005E000001F2040201F003F4038403F0063140898
:1005F0001463000304780403006159494D4300006B
:100600007F41414100020408102000004141417F28
:100610000004020102040040404040400000030783
:100620000800002054547840007F284444380038A3
:100630004444442800384444287F00385454541813
:100640000000087E0902001824241C78007F08049A
:1006500004780000447D4000002040403D00007FC1
:10066000102844000000417F4000007C047804789A
:10067000007C08040478003844444438007C182482
:10068000241800182424187C007C0804040800485E
:10069000545454240004043F4424003C4040207C33
:1006A000001C2040201C003C4030403C00442810EE
:1006B0002844004C9090907C004464544C440000CA
:1006C00008364100000000770000000041360800B5
:1006D000000201020402003C2623263C0000000028
:1006E00000000000000000000000000000C0E0F07A
:1006F000F8F81800C0F0FCFEFFFFFFFFFFFFFF7ED1
:100700000000000000000000C0C0F0F030303030C9
:10071000C0C000000000C0C0F0F030303030C0C0B9
:1007200000000000C0C0F0F0303030303030C0C0C9
:1007300000000000C0C0F0F03030C0C0F0F0303039
:10074000C0C00000C0C0F0F0303030303030303049
:10075000C0C0000000000000000000E0F0F0F0E089
:10076000ECEEF7F37020007C7C7C7E007E7E7E7F4A
:100770007F7F000080C0E07E5B4F5BFEC00000C05A
:1007800000DCD7DEDEDED7DC00C0000000000000A9
:100790000000000000000000000000000000000059
:1007A000000000000000F8FCFEFFE000FFFFFFFF7C
:1007B000FFFF80FFFFFFFFFFFFFFFFFF1F0701009D
:1007C0000000000000003F3FFFFFC0C03F3F333349
:1007D000C0C000003F3FFFFFC0C03F3F3F3FC0C021
:1007E0003F3F0000FFFFFFFF0000F3F3C3C33C3CAB
:1007F000C3C30000FFFFFFFF0000FCFCF3F3000099
:10080000FFFF0000FFFFFFFF0000333333333F3FA4
:10081000C0C00000000000000000000F1F3F7F7FED
:100820007F7F7F3F1E0C001F1F1F3F003F3F3F7F0A
:100830007F7F00307B7F7830202030787F3B000343
:10084000000F7F0F0F0F7F0F00030000000000005C
:100850000000000000000000000000000000000098
:10086000000000000000030F1F3F3F3F3F1F1F3FDE
:100870003F7F7F7F3F3F1F3F7F7F7F7F7C78783840
:100880001C0F00000000000000000303030303032B
:100890000000000000000000030303030303000046
:1008A0000000000000000303030300000303030330
:1008B0000000000000000303030300000303030320
:1008C000000000000000030303030303030303030A
:1008D0000000000000000000000000000000000018
:1008E0000000000000000000000000000000000008
:1008F00000000000000000000000000000000000F8
:1009000000000000000000000000000000000000E7
:10091000000000000000000000000000002223256D
:100920002628292A2C2D2F3032333536383A3B3DB4
:100930003E4042434547494A4C4E50515355575902
:100940005A5C5E6062646668696B6D6F717375771F
:10095000797B7D7F81838587898A8C8E909294961E
:10096000989A9C9E9FA1A3A5A7A8AAACAEAFB1B32D
:10097000B4B6B8B9BBBCBEBFC1C2C3C5C6C7C9CA7D
:10098000CBCCCDCED0D1D2D2D3D4D5D6D7D7D8D93F
:10099000D9DADADBDBDBDCDCDCDCDCDDDDDDDDDC9D
:1009A000DCDCDCDCDBDBDBDADAD9D9D8D7D7D6D5AF
:1009B000D4D3D2D2D1D0CECDCCCBCAC9C7C6C5C371
:1009C000C2C1BFBEBCBBB9B8B6B4B3B1AFAEACAABE
:1009D000A8A7A5A3A19F9E9C9A98969492908E8C6E
:1009E0008A89878583817F7D7B79777573716F6D48
:1009F0006B6968666462605E5C5A59575553515022
:100A00004E4C4A4947454342403E3D3B3A383635D5
:100A10003332302F2D2C2A292826252322FFAA7F86
:100A20005540000101010101010101010202020220
:100A30000202020202030303030303030304040488
:100A40000404040405050505050606060606070751
:100A500007070708080808090909090A0A0A0B0B09
:100A60000B0C0C0C0D0D0D0E0E0E0F0F0F101011A8
:100A7000111112121313141415151616171718182E
:100A800019191A1A1B1B1C1D1D1E1E1F2020212296
:100A900022232424252626272829292A2B2C2D2DDC
:100AA0002E2F30313232333435363738393A3B3CF9
:100AB0003D3E3F404142434445464748494A4C4DEC
:100AC0004E4F50515354555658595A5B5D5E5F61B5
:100AD0006264656668696B6C6D6F70727375777848
:100AE0007A7B7D7E8082838587888A8C8E8F9193A6
:100AF0009596989A9C9EA0A2A3A5A7A9ABADAFB1CD
:100B0000B3B5B7BABCBEC0C2C4C6C9CBCDCFD1D4B1
:100B1000D6D8DBDDDFE2E4E7E9EBEEF0F3F5F8FA57
:100B2000FDFF00DA0281FFD9F1DB20A4A62EAF0081
:100B3000A0C0D30000A1C8D30000AED580A81F403C
:100B40008D1420007F3F1F643214643214783C1EE1
:100B50001E140A05808182838485868788898A8B12
:100B60008C8D8E8F9091929394A0A1A2A3A4A5A600
:100B7000A7A8A9AAABACADAEAFB0B1B2B3B4C0C177
:100B8000C2C3C4C5C6C7C8C9CACBCCCDCECFD0D1CD
:100B9000D2D3D4004D6F64730053796D0046756EE7
:100BA00063004D61696E004C61796572733A004370
:100BB00050534C4B000A0A000000000000000000E7
:100BC0000000000000000000000000000000000025
:100BD0000000000000000000000000007E0F00D4B4
:100BE000FFFFFFC7000000780000000000000000C9
:100BF0002A2B280000000000000000000000000078
:100C000000000029000000002C1E34202122243482
:100C10002627252E362D3738271E1F202122232454
:100C200025263333362E37381F0405060708090AF0
:100C30000B0C0D0E0F101112131415161718191A8C
:100C40001B1C1D2F3130232D350405060708090A0A
:100C50000B0C0D0E0F101112131415161718191A6C
:100C60001B1C1D2F3130354C11241FBECFEFDAE095
:100C7000DEBFCDBF11E0A0E0B1E0E8EDF9E602C0D3
:100C800005900D92AE3DB107D9F726E0AEEDB1E08B
:100C900001C01D92A830B207E1F70E9445260C94CE
:100CA00070340C940000982F82958F70882311F077
:100CB000982F84E0292F26952695222311F08E5F08
:100CC000922F969591118F5F08958093C105089595
:100CD0008093C205089521E030E001C0220F8A957B
:100CE000EAF78091C205822B0E946806089521E0F0
:100CF00030E0A90102C0440F551F8A95E2F7CA01EE
:100D000080959091C20589230E9468060895292F35
:100D1000983098F5863088F590E036E0239F800D76
:100D2000911D1124282F277041E001C0440F2A95FE
:100D3000EAF723E0969587952A95E1F7FC01EE0FF7
:100D4000FF1FE80FF91FEA56FA4F20E030E070E08D
:100D50005191DF011197CB01022E02C09695879524
:100D60000A94E2F7817081958527842385278C93E7
:100D70002F5F3F4F2330310559F70895292F9830C1
:100D800078F5863068F590E036E0239F800D911D60
:100D90001124682F677023E0969587952A95E1F7CF
:100DA000FC01EE0FFF1FE80FF91FEA56FA4F40E073
:100DB00050E080E0219130E0062E02C03695279564
:100DC0000A94E2F721703327042E01C0220F0A94FF
:100DD000EAF7822B4F5F5F4F4330510559F7089573
:100DE00080E008959091C20521E030E0F90101C052
:100DF000EE0F8A95EAF7D90102C0AA0FBB1F6A95C8
:100E0000E2F7EA2B01C0220F4A95EAF7892F8E23D9
:100E1000E81305C0892F822B0E946806089520954B
:100E2000822F8923F9CF8091C8059091C705981327
:100E300001C008958F5F8770FACF9091C3058095A8
:100E400089238093C305282F277021110DC089178E
:100E500059F09091C50592FF07C0869586958695B5
:100E60000E9477061092C30508958091BE05909167
:100E7000C605892B5091BF055523C1F090914D01B6
:100E80009923A9F09091C40597FF11C09DE12AEE26
:100E900031E040E0F90160812F5F3F4F61114F5F0A
:100EA0009150C0F741111092BF05852B089595E030
:100EB00022EE31E0EECF982F90958091BE058923E8
:100EC0008093BE050895803E9105D1F1C8F4813329
:100ED000910509F47FC048F48932910509F46FC087
:100EE0008A32910509F47DC0089589339105E1F0B6
:100EF00082389105C9F08533910509F45BC00895E6
:100F0000843E9105D1F148F4823E910531F1833E52
:100F1000910541F181EE90E00895863E9105C1F181
:100F2000873E9105E1F108952091C40523702111B8
:100F300065C02091C50523FF14C089E290E00895A3
:100F40002091C40520FD43C03091C50530FF09C084
:100F500024FF4EC080E090E008952091C40522FD5A
:100F6000F7CF08952091C40522FD45C03091C505F5
:100F700030FD44C024FFF5CFEDCF2091C50521FF02
:100F8000F0CF8091C40584FDE5CF87EE90E0089511
:100F90002091C40523FFE5CF24FDDCCFF6CF2091BF
:100FA000C40523FD2EC03091C50531FFE3CF84EE8B
:100FB00090E008952091C40525FFD3CFBECF2091A6
:100FC000C40525FD21C02091C50523FFCACF89E3B3
:100FD00090E008952091C40526FFC3CF8AE290E0F7
:100FE00008952091C40526FFBCCF81E390E00895C9
:100FF00083EE90E0089582EE90E0089580EE90E018
:10100000089586EE90E0089585E390E0AACF909150
:10101000C40592FF10C041E0282F2471243009F04C
:1010200040E031E0282F2871283009F030E04317E4
:1010300011F02CE0822793FF10C041E0282F24718B
:10104000243109F040E031E0282F2871283109F0DF
:1010500030E0431711F02CE082273091C50530FFB6
:1010600010C051E0282F2171213009F050E041E0FB
:10107000282F2871283009F040E0541711F029E09A
:10108000822731FF10C041E0282F2171213109F062
:1010900040E031E0282F2871283109F030E0431773
:1010A00011F029E0822794FD877E08951F93CF9346
:1010B000DF930E946307EC01811522E5920708F097
:1010C00053C0811540E5940708F0DDC0803E9105CE
:1010D000F8F48D3C910508F0AEC0883A910580F493
:1010E000853A910508F099C08130910521F0049767
:1010F000813A910550F4CE01DF91CF911F9108956F
:10110000885A91094B9708F48BC0C0E0D0E0F3CF28
:10111000811550E49507F8F4C11580E2D80708F06E
:10112000CBC0C83ED10538F3CE019A9581159F41B9
:1011300060F78D2F0E940708182FCE0199270E9473
:101140006307212F30E0322F2227E901CC27DF71FE
:10115000C82BD92BD0CF99270E946307CC27DF70EB
:10116000C82BD92BD06AC7CF803842E59407C8F581
:10117000803652E5950708F067C0C03482E5D8078D
:10118000B0F08C2F86958695877020E2829FC001F3
:101190001124C37021E030E0A90102C0440F551FA3
:1011A000CA95E2F7EA01C82BD92BDC68A4CFC0327C
:1011B00052E5D50708F041C08C2F8695869520E230
:1011C000829FC0011124C37021E030E0A90102C058
:1011D000440F551FCA95E2F7EA01C82BD92BDD68E9
:1011E0008ACF803C52E5950760F48F71C03AD245B2
:1011F00008F03FC090E0982F8827EC01C46FD06AB8
:101200007ACF805C9245809708F07FCFDC2FCC2787
:10121000CC27DF71C06FD06A6ECFA497D0646BCF3C
:10122000C85AD0E0CC0FDD1FC855DE4F0990D881D9
:10123000C02DD46460CFD0655ECFCF71D0E0DC2FFD
:10124000CC27C16FD06A57CF86958695877020E2EC
:10125000829FC0011124C37021E030E0A90102C0C7
:10126000440F551FCA95E2F7EA01C82BD92BDA685B
:1012700042CF0E940708C82FD0E0DC2FCC27CC2714
:10128000DF71D06238CF8F710E94070865E0D69574
:10129000C7956A95E1F7CF70D0E0DC2FCC27282FD7
:1012A00030E084FF05C054E0220F331F5A95E1F768
:1012B000C22BD32BD0691FCF8D2F8F710E940708AF
:1012C000182FCE0199270E946307212F30E0322F7B
:1012D000222722273F71282B392BE901D2CF80E02A
:1012E0000895F894E82FE295EF70F0E041A18F7037
:1012F00021E030E0B90102C0660F771F8A95E2F75E
:10130000CB01962F9095942391A392A1892B82A330
:10131000789408950895A0E0B0E0E1E9F9E00C9434
:10132000F932E901E42FF0E0EE5DF54F61110BC0F9
:10133000E4919E2F8E2F8983E8839A83CDB7DEB701
:10134000EAE00C941533282F30E0062F10E0F491DA
:10135000EF2F86E0829F6001839FD00C1124EE2442
:10136000EA94F12CC601B7010E94DD32220F331F2F
:1013700045E5469FC001479F900D1124281B390B5E
:10138000822F880F280FC701801B910BF89FA001A7
:10139000F99F500D1124952F209F5001219FB00CD3
:1013A0001124AB2CBB24D701AA19BB095D01FA9DFE
:1013B000D001FB9DB00D11248B2F5701A21AB1084B
:1013C0009501209F5001219FB00C309FB00C11243B
:1013D000AB2CBB24EA18FB08FE9D9001FF9D300D4D
:1013E000112463307105C9F01CEFC11613E0D1065A
:1013F00050F46130710509F49ECF6230710589F0B7
:101400008E2FE32F98CF6430710571F0663071052F
:10141000B9F3E52F9B2F8F2F8ECFEB2F852F9F2F8B
:101420008ACF852F932F87CF832FE52FF8CF8091F9
:10143000B605843060F4837084608093B605809133
:10144000B905893718F088E78093B90508958C3875
:10145000B0F383708868F1CF60910F018091B60579
:1014600080FF0EC070E020910E0130E0C901880FAE
:10147000991F820F931F8A5C9D4F0E94B90F089598
:101480008091100190911101282F30E0F901EE0FA9
:10149000FF1FE20FF31FEA5CFD4F891718F7118257
:1014A000108212828F5F3396F8CF9091B60590FF2D
:1014B00011C09091100150911101292F30E0F901D4
:1014C000EE0FFF1FE20FF31FEA5CFD4F951718F0B8
:1014D0000E942C0A08958183608342839F5F339624
:1014E000F5CFA3E0B0E0E7E7FAE00C940133909188
:1014F000B60590FF0DC0493708F048E79E012F5F01
:101500003F4F0E948B094B8169818A810E94550A55
:101510002396E2E00C941D33CF93DF93EC01E6EBCE
:10152000F5E0438162818C810E94710A8C818F5F1A
:101530008C83DF91CF910895E3EBF5E011828281F6
:10154000846082830895E6EBF5E080818E7F80835E
:101550000E949C0AE3EBF5E08281816082830E9415
:101560002C0A0895CF93DF93EC01EC81F0E0E35E69
:10157000F64F4491E6EBF5E0628181810E94710AA9
:101580008C818F5F8C83DF91CF910895EF92FF92D2
:101590001F93CF93DF93EC0110E0EE24EA94F12C3B
:1015A00060911201161770F00E942C0A9A818C81AA
:1015B00090FF28C08F5F8C83DF91CF911F91FF90A8
:1015C000EF90089580911001810F9927991F9C0138
:1015D000220F331F280F391F2A5C3D4F4091B90558
:1015E000493708F048E770E0C7010E944233962F60
:1015F0008C816091B805199F800D11240E948B0980
:101600001F5FCECF8150D7CFA0E0B0E0EAE0FBE093
:101610000C94F832EC01A09012018C819A8190FD1B
:101620000DC0BB24B39481110DC08FEF8A0DBB2474
:10163000B3948093350281E08C8304C0BB24BA94B8
:101640008823B9F3E12CF12CEA14B8F00E942C0A9B
:1016500090913502E1E0BE1257C080911201815095
:10166000992319F08FEF890F91E0809335029C83C5
:10167000CDB7DEB7EBE00C941433809110018E0DE2
:101680009F2D911D8C01000F111F080F191F0A5C5F
:101690001D4FF80111821082128234E0C32ED12C2A
:1016A000912C80913502890D873354F166E30E94B5
:1016B0003433892F082E000C990B8E159F05A9F441
:1016C0008091B9058C9DA0018D9D500D11245595DB
:1016D000479555954795493708F048E79801609137
:1016E000B8058091B7050E948B099B0CF1E0CF1AD9
:1016F000D108C114D104A9F68FEFE81AF80AA4CFD3
:1017000087FFD8CF8A0DD6CF892F90E001966091C0
:10171000120170E00E944233982FA7CF0F931F93BE
:10172000CF93DF93EC018C81811109C081E08C8320
:101730001092340292E09093020180930101109183
:10174000100120911101812F90E0FC01EE0FFF1F8D
:10175000E80FF91FEA5CFD4F821750F100E060913D
:101760001201061758F10E942C0A80910101209164
:101770003402280F2093340290910201980F909325
:101780000201191654F4022E000C330B4091120181
:101790004150550B2417350734F081958093010192
:1017A000813009F41C82DF91CF911F910F91089530
:1017B0001182108212828F5F3396CECF202F30E0BD
:1017C00070E0C9010E944233810F90E040913402E1
:1017D000042E000C550BFC01EE0FFF1FE80FF91F44
:1017E00024173507C4F040910201042E000C550B5C
:1017F0004217530784F09F012A5C3D4F4091B90581
:10180000493708F048E76091B8058091B7050E9414
:101810008B090F5FA4CFEA5CFD4F11821082128208
:10182000F8CFAEE0B0E0E7E1FCE00C94FD328D874C
:101830009E87AD85BE8514961C91212F30E0D9017D
:101840000E948D339B01AC010E94A33369837A838C
:101850008B839C83E0E2F0E0E11BF109A5E5B0E0B9
:101860009B01AC010E94A33369877A878B879C8791
:101870009F01DF010E9485339B01AC010E94AE33C2
:101880006D837E838F8398879B01AC0189819A81C8
:10189000AB81BC81280F391F4A1F5B1F69857A8580
:1018A0008B859C850E945633022F30E00A3248F522
:1018B000C901880F991F820F931F95958795F82E60
:1018C000F09410E085E5E82EE01A809112011817D7
:1018D00030F10E942C0AED85FE85948181E09923E8
:1018E00019F0903219F48FEF80930001809100017C
:1018F000890FAD85BE8514968C932E96E6E00C94E8
:10190000193385E590E0DC01A21BB30BCD01880FF4
:10191000991F8A0F9B1F97FFD0CF0196CECF8E2D98
:1019200011FD802F40911001410F5527551F9A013D
:10193000220F331F240F351F2A5C3D4F4F2DB8E770
:10194000BF1508F448E76091B8050E948B091F5F36
:10195000BCCFFA01882311F009950895FB01FCCF53
:10196000539A0895282F35EB2303C001112497FFC4
:1019700004C080589109892F089580589F4FFBCF4C
:101980008091AA0580FD14C081FD14C082FD16C09F
:101990008091A905882381F08E3180F420E5829F13
:1019A000C00111246EE170E00E944233862F089539
:1019B00084E1089588E2089588E0089580E5089517
:1019C0008091AA0580FD17C081FD17C082FD19C056
:1019D0008091A805882399F0883298F428E0829FA6
:1019E000C001112468E270E00E9442336115710564
:1019F00051F0862F089562E0FCCF64E0FACF61E0F9
:101A0000F8CF68E0F6CF81E00895809168058823DB
:101A100059F0E0918C05F0918D05309729F00190F7
:101A2000F081E02D0995089580E00895A3E0B0E0ED
:101A3000ECE1FDE00C9401339C0180912C0290912B
:101A40002D0282179307A1F030932D0220932C02D0
:101A5000E0918C05F0918D05309751F083E08983FA
:101A60003B832A830084F185E02DCE010196099500
:101A70002396E2E00C941D33A3E0B0E0E2E4FDE045
:101A80000C9401339C0180912A0290912B028217C1
:101A90009307A1F030932B0220932A02E0918C054A
:101AA000F0918D05309751F084E089833B832A8340
:101AB0000084F185E02DCE01019609952396E2E0A0
:101AC0000C941D3390914D019923C1F09091C40560
:101AD00097FF14C0E82FE695E695E695803FF8F469
:101AE000F0E0E851FE4F877021E030E001C0220FA6
:101AF0008A95EAF78281822B82830895A2EEB1E073
:101B0000EFEF90E02D91821751F0EF3F19F4211182
:101B100001C0E92F9F5F9630A9F7EF3F09F40895C0
:101B20000E2E000CFF0BE052FE4FE6CF90914D01C0
:101B30009923E1F09091C40597FF18C0E82FE6952E
:101B4000E695E695803FF0F4F0E0E851FE4F8770AF
:101B500021E030E0A90102C0440F551F8A95E2F749
:101B6000CA0180959281892382830895E2EEF1E093
:101B70009191891303C0DF0111971C9251E0E83E57
:101B8000F507B1F70895A4E0B0E0E9ECFDE00C94AE
:101B900001338FB7F8942091480530914905409161
:101BA0004A0550914B0529833A834B835C838FBF51
:101BB00069817A818B819C812496E2E00C941D33AB
:101BC000A4E0B0E0E6EEFDE00C94013380916805FE
:101BD000882371F00E94C30D69837A838B839C8371
:101BE00069817A818B819C812496E2E00C941D337B
:101BF0000E94C30D69837A838B839C8380916405E3
:101C000090916505A0916605B091670529813A819B
:101C10004B815C81280F391F4A1F5B1F29833A8340
:101C20004B835C83DDCF87E797E790930108809330
:101C3000000888E19AE00FB6F894A89580936000B8
:101C40000FBE90936000FFCF809129020895FC01A0
:101C50009B0180911F02909120028617970740F008
:101C6000672B29F48091E8008E778093E800C90102
:101C700040E0009741F4411106C08091E80082FFE6
:101C80002FC080E00895209133052223A9F125304B
:101C9000A9F12091E80023FD2DC02091E80022FD4C
:101CA000ECCF2091E80020FFE4CF3091F3002091A9
:101CB000F200009719F02830310558F041E0283043
:101CC000310509F040E02091E8002E772093E800EC
:101CD000D0CF41914093F10001972F5F3F4FE9CF63
:101CE00080913305882341F0853041F08091E800F0
:101CF00083FFC3CF81E0089582E0089583E00895D3
:101D00008091190287FF13C08091E80082FF06C00E
:101D10008091E8008B778093E80004C080913305C0
:101D20008111F2CF0895809133058823D9F38091F2
:101D3000E80080FFF8CF8091E8008E77ECCF20910B
:101D4000E4003091E50095E6A9018091EC008170F6
:101D5000882331F08091E80080FF06C080E008957C
:101D60002091E80022FD1BC080913305882391F06B
:101D7000853091F08091EB0085FD10C02091E4004A
:101D80003091E5004217530701F391509111DCCFD8
:101D900084E0089582E0089583E0089581E0089545
:101DA000E8EDF0E080818E7F80831092E200109257
:101DB000DA001092E100A0EEB0E08C9181608C938B
:101DC00080818F77808319BCA7EDB0E08C918E7FE6
:101DD0008C9380818F7E8083109218020895FC017D
:101DE000AC014C5F5F4F8FEF91E32191822728E098
:101DF00030E087FF0BC0880F89272150310921155A
:101E00003105B9F7E417F50781F70895880FF5CF85
:101E1000982FE42FE2709093E900891308C0762F81
:101E2000242F50E0E11111C091E0980FF4CF709190
:101E3000EC002091ED005091F00021FD06C09F5F65
:101E4000973049F78093E90008953091EB003E7F89
:101E50003093EB003091ED003D7F3093ED003091F9
:101E6000EB0031603093EB007093EC002093ED00B9
:101E70005093F0002091EE0027FDE1CF0895A0E0FF
:101E8000B0E0E5E4FFE00C94FB32C8EDD0E08881DF
:101E90008F7E8883E7EDF0E080818160808384E03D
:101EA00082BF81E08093180288818E7F888302EE52
:101EB00010E0F80110821092DA0081EEC82ED12CC9
:101EC000F601108288818F77888388818068888373
:101ED00088818F7D888319BC109233051092170278
:101EE0001092E4021092160290EEE92EF12CF70106
:101EF00080818B7F808388818160888342E060E07D
:101F000080E00E94080FF60180818E7F8083F801B7
:101F1000808181608083808188608083F7018081F7
:101F20008E7F8083888180618883CDB7DEB7E8E0CB
:101F30000C941733E091C8059091C70527E0E91389
:101F400002C080E00895AE2FB0E02E9FF001112472
:101F5000E753FA4F3181361306C03081381303C07E
:101F60003581341304C0FD013196E770E8CF81E07C
:101F700008959C01AB016BB1677F7BB17860EFB7CF
:101F8000F894CA01880F991F840F951F820F931F21
:101F90008217930741F4EFBF8FE594E00197F1F7C3
:101FA00000C000000895D9014D919D0158E07BB912
:101FB000000000C047FF6BB9440F000000C000C024
:101FC00000C06BB900C05A9591F7E2CF0F931F93F1
:101FD000CF93DF93EB018A0190913305943079F52B
:101FE0008093E9008FEF9091E80095FD07C095ED93
:101FF0009A95F1F7000081508111F5CF8091E800AA
:1020000085FF1DC00E949F0E811114C08091E800C1
:1020100085FD06C08091E8008E778093E800F2CFBE
:1020200088818093F100015011090115110511F00B
:102030002196ECCF8091E8008E778093E800DF91C5
:10204000CF911F910F910895CF93DF93D82FC92F70
:1020500048E050E0682F792F81E00E94E60F88E089
:10206000ED2FFC2FA1E2B2E001900D928A95E1F7ED
:10207000DF91CF910895BC0140E250E084E00E94DE
:10208000E60F0895BC0146E050E084E00E94E60FB0
:102090000895BC0143E050E084E00E94E60F0895FB
:1020A000A0E0B0E0E6E5F0E10C94F932F82EE92E7C
:1020B000B62EA72E8A0180911402CC24C394D12C71
:1020C0008A3018F48AE0C82ED12CC1E0D0E06B2D04
:1020D0007A2D8F2D9E2DF8010995811116C021961C
:1020E000CC16DD0694F0CC9FC001CD9F900D900DD5
:1020F000112420E030E045E34A95F1F700002F5F1E
:102100003F4F28173907B9F7E2CFCDB7DEB7EAE07E
:102110000C9415339091C50592FB222720F92817BE
:1021200079F080FB92F99093C5056091C405709198
:10213000C50584E090E00E945A3482E00E941D07A9
:1021400008951F93CF93DF93962F122F632F843020
:10215000D8F49830C8F44630B8F4C42FD0E0CC0F8F
:10216000DD1F2CE0929FC00DD11D112490E6899FA8
:10217000C00DD11D1124CE0188960E943C34612FE0
:10218000CE0189960E943C34DF91CF911F91089532
:10219000AF92BF92CF92DF92FF920F931F93CF9394
:1021A000DF93A12CB12C00E0650110E013C0FE010B
:1021B000259134914F2D612F802F0E94A1102296DE
:1021C000F39486E0F812F3CF86E0C80ED11C1F5FAF
:1021D000183039F0E601CC0FDD1FC35ADD4FF12C6A
:1021E000E6CF0F5F80E3A80EB11C0430E9F6DF9163
:1021F000CF911F910F91FF90DF90CF90BF90AF9044
:102200000895CF93DF93C8EAD1E060E0CE010E9449
:102210003C342196C11584E0D807B9F7DF91CF91FE
:102220000895882381F065E284E290E00E943C34C6
:1022300062E085E290E00E943C3461E286E290E058
:102240000E943C3408956FEF84E290E00E943C3499
:102250006FEF85E290E00E943C346FEFEFCF80E0BB
:102260000E94111160E087E290E00E943C340E94DD
:10227000C8100E94011181E00E94111108950F936E
:102280001F93CF93DF93843030F5683020F54630CC
:1022900010F5C42FD0E0CC0FDD1F2CE0629FC00DE5
:1022A000D11D112430E6839FC00DD11D1124CE0114
:1022B00088960E941834082F10E0102F0027CE01B6
:1022C00089960E9418349801282BC901DF91CF917B
:1022D0001F910F91089580E090E0F8CF462F672F6F
:1022E000783038F4463028F4843018F40E943F11D6
:1022F000089580E090E00895A0E0B0E0E2E8F1E128
:102300000C94FC327C010091C2058091C105082B20
:10231000C3E0D0E010E0C8010C2E02C0959587956F
:102320000A94E2F780FD09C02197A8F7D12C8D2DE2
:10233000CDB7DEB7E7E00C941833DC2EB7018C2F55
:102340000E946E110E945608019771F3F0CF0F930F
:102350001F93CF93FC01858100811181882391F027
:10236000662381F0C8010E947C11C82F682FC80124
:102370000E948706B8018C2F0E946E11CF911F9189
:102380000F910895C8010E94BE06C82FF3CFCF93C6
:10239000DF93D82FC92F0E947C116D2F7C2F0E94B4
:1023A0006E110E945608DF91CF910895FC0184813F
:1023B0008823A1F0808191810E94C711282F9295D6
:1023C0009F70963091F060F4925F9F70923030F47D
:1023D00081E0203F79F030F4283E30F080E004C006
:1023E0009A5FF3CF243FD1F7089581E0283E18F09B
:1023F000213FF9CF0895089584E290E00E941834B7
:10240000853289F485E290E00E941834823059F4D4
:1024100086E290E00E94183491E0813209F090E069
:10242000892F8170089580E0FCCF80914D01882331
:1024300059F18091C40587FF27C00E94350780931A
:10244000E90140E250E06CE675E088EE91E00E9420
:102450000234892BC1F080E2E8EEF1E0ACE6B5E0B1
:1024600001900D928A95E1F7E0918C05F0918D0530
:10247000309749F086E08093E8010480F581E02DF3
:1024800088EE91E0099508950E9435078093E00158
:1024900048E050E06EE875E080EE91E00E94023482
:1024A000892B89F388E0E0EEF1E0AEE8B5E0019039
:1024B0000D928A95E1F7E0918C05F0918D053097AA
:1024C00011F30280F381E02D80EE91E0DBCF8823D1
:1024D00039F09091BE05892B8093BE050E9415129C
:1024E0000895882321F00E945B070E941512089529
:1024F000A8E0B0E0EEE7F2E10C940033409138053B
:102500005091390560913A0570913B052FB7F894C9
:102510008091480590914905A0914A05B0914B05DD
:102520002FBF841B950BA60BB70B11E084369105CA
:10253000A105B10578F10E94E00DDC01CB01029606
:10254000A11DB11D89839A83AB83BC8380913E0119
:1025500090913F01845B9A4F20913D01422F50E0C2
:10256000253010F044E050E0BE016F5F7F4F0E94C5
:102570000F3483E090E00E946832182F882351F0D6
:102580000E94C30D609338057093390580933A0516
:1025900090933B05812F2896E3E00C941C33A0E038
:1025A000B0E0E5EDF2E10C94FB32E82FEB01B9016C
:1025B000D801C880D980EA80FB808FB7F894009159
:1025C00048051091490520914A0530914B058FBF70
:1025D0000C191D092E093F09043611052105310585
:1025E00010F4442309F10E2F0E2E000C110B88E07D
:1025F000E802F0011124EB5DFE4F81819281845B42
:102600009A4F408150E0A417B50708F4AD010E942D
:102610000F34C8010E946832882339F00E94C30D2C
:10262000688379838A839B8381E0CDB7DEB7E8E056
:102630000C9417330F931F93CF93DF93D82FC92F89
:1026400044E050E061E575E00E94023441E0892BEE
:1026500009F440E004E010E02D2F3C2F6CE375E01E
:1026600082E00E94CF12DF91CF911F910F910895C8
:10267000ABE0B0E0EEE3F3E10C94FF3228E0E6EBF0
:10268000F5E0CE010196DC0101900D922A95E1F76B
:102690003091B3052091B4055091B50539872A874B
:1026A0005B8741E09C01511101C040E00BE010E06C
:1026B00064E375E084E00E94CF1281111092B505A9
:1026C0002B96E4E00C941B33EF92FF921F93CF9371
:1026D000DF9300D000D00F92CDB7DEB77B0180E052
:1026E00090E00E946832182F81111AC010E080918A
:1026F000400590914105A0914205B0914305F70135
:1027000080839183A283B383812F0F900F900F90CA
:102710000F900F90DF91CF911F91FF90EF90089550
:1027200080912801482F50E0882311F041E050E0CB
:102730006091290170912A01645B7A4FCE01059660
:102740000E940F3440914405509145056091460523
:10275000709147052FB7F8948091480590914905ED
:10276000A0914A05B0914B052FBF841B950BA60B7A
:10277000B70B84369105A105B10538F48DE495E0D9
:102780000E94EF0E9D818917B9F181E090E00E94CF
:102790006832882309F4AACF80913001482F50E095
:1027A000853010F044E050E06091310170913201C9
:1027B000645B7A4FCE0101960E940F348DE495E060
:1027C0000E94EF0E9D81891391CF0E94C30D6093EB
:1027D000440570934505809346059093470589818C
:1027E0009A81AB81BC818093400590934105A09371
:1027F0004205B09343057BCF80914D0590914E05E6
:10280000A0914F05B091500589839A83AB83BC8317
:10281000E6CFA0E0B0E0EFE0F4E10C94FB328901F8
:10282000D42FC52F6B017C010E94170AA8016D2FC0
:102830007C2F88E090E00E944E3498014D2F5C2F51
:10284000B601C70100E20E94D133622F83E290E01B
:102850000E943C34CDB7DEB7E8E00C94173380918A
:10286000BA05833018F48F5F8093BA052091B605BE
:102870003091B7054091B8055091B9056091BA05FE
:102880007091BB058091BC059091BD050E94091413
:1028900008958091BA05882319F081508093BA0574
:1028A0002091B6053091B7054091B8055091B90512
:1028B0006091BA057091BB058091BC059091BD05F2
:1028C0000E9409140895A3E0B0E0E9E6F4E10C9455
:1028D000F932E82ED62EF42EB22E9091B60590FF46
:1028E00046C03091B705381308C08091B8058613EB
:1028F00004C08091B905841729F08091B5058260E4
:102900008093B505E92FE695E695AE2FB0E0AF5878
:10291000BE4F8C918093B3059C7F943061F54F2D11
:1029200088E78F1508F448E79E012F5F3F4F6D2D14
:102930008E2D0E948B094B8169818A810E94550AE4
:102940003E2D3093B705D092B805F092B905BB2063
:1029500071F02091B6056091BA057091BB054D2DBF
:102960005F2D8091BC059091BD050E9409142396AE
:10297000EAE00C941533823019F4F090B905E0CFF9
:102980008630F9F28930E9F28931D1F6E9519E2F8A
:102990009170A92EE695F0E0E35EF54FE491C12C2D
:1029A0000E2F10E060911201C61618F00E942C0A3A
:1029B000C7CF2C2D30E0C09EC001C19E900D1124C8
:1029C00070E00E94DD328E2DA11017C0860F90910D
:1029D0001001A901490F511D9A01220F331F240F25
:1029E000351F2A5C3D4F4F2D98E79F1508F448E7A7
:1029F0006D2D0E948B09C394D5CF861BE8CFE6EBE3
:102A0000F5E0818121E043816281865F0E94631449
:102A10000895E6EBF5E0818121E0438162818A50EF
:102A20000E9463140895E6EBF5E0628121E1620FF4
:102A300008F46FEF21E0438181810E9463140895BF
:102A4000E6EBF5E0628121E1621B08F460E021E041
:102A5000438181810E9463140895E6EBF5E0438190
:102A600021E1420F08F44FEF21E0628181810E9451
:102A700063140895E6EBF5E0438121E1421B08F47D
:102A800040E021E0628181810E9463140895AB01DE
:102A900024E630E0BC0188E70E947F309C0181E0A1
:102AA000232B09F080E0089580912505882369F0A3
:102AB00080912205882349F062E070E08AEC91E081
:102AC0000E9447158111109222050895A4E0B0E0FC
:102AD000ECE6F5E10C940133809125058823F9F0AB
:102AE0000E94C30DDC01CB01805A9541AF4FBF4F0F
:102AF00080931E0590931F05A0932005B093210598
:102B00008091220581110BC062E070E088EC91E0B9
:102B10000E944715882319F081E0809322052496AE
:102B2000E2E00C941D331F93CF93DF93982F162F61
:102B300081E09A3019F09D3039F480E00E9424162B
:102B4000DF91CF911F910895C091F702D091F802C3
:102B500086E0FE01AEE2B2E001900D928A95E1F7C7
:102B6000903E90F186E0FE0111928A95E9F7C091BE
:102B7000F702D091F802111133C046E050E0BE01D7
:102B80008EE292E00E9402349E012A513340892B4A
:102B900091F52A5F3F4F4091F902642F70E0C9011F
:102BA0000E94DD32481B463010F4240F311D2115E0
:102BB00072E0370710F020E030E0265E3C4F3093A3
:102BC000F8022093F702BCCFF6E09F9FB0011124DA
:102BD00063527C4F46E050E0CE010E94EC33C7CFF9
:102BE0009E012A5F3F4FFE012E173F0731F2808181
:102BF00080958193F9CFC90145E0969587954A95CF
:102C0000E1F741E050E0BA0102C0660F771F8A95F4
:102C1000E2F7CB0160911C0570911D05862B972B67
:102C2000B9016B5F7F4FE5E076956795EA95E1F72F
:102C300002C0440F551F6A95E2F7842B952B9093A1
:102C40001D0580931C05A5CFCF93382FE091F70287
:102C5000F091F802EA51F3402091F902622F70E0FE
:102C6000CF010E94DD32281B822F332369F066E0FA
:102C70000E942833C82FC15010F4CF91089560E00E
:102C800080E20E949315F7CF9F01280F311D211577
:102C9000324018F080E0E0E0F0E08E0F9F2F911DB1
:102CA000865E9C4F9093F8028093F702E6CF1F93C5
:102CB000CF93DF93EC01162FFE018491811104C0A4
:102CC000DF91CF911F910895612F0E949315219656
:102CD000F3CF0E94571681E00E94241608950F93A7
:102CE0001F93CF93DF93EC01FC0101900020E9F7E3
:102CF0008F0101501109C017D10728F0DF91CF9142
:102D00001F910F91089560E089910E949315F3CF70
:102D10001F921FB61F9211248F939F93AF93BF935F
:102D20008091E302811113C080914805909149057B
:102D3000A0914A05B0914B054196A11DB11D80930C
:102D4000480590934905A0934A05B0934B05BF9160
:102D5000AF919F918F911F901FBE1F9018952FB715
:102D6000F8948091480590914905A0914A05B09149
:102D70004B052FBF089580916805882319F00E94A4
:102D8000AF1608950E94E00DCB0108956091B6053D
:102D90006695669570E04BE050E083E091E00E941C
:102DA000F533892B19F481E08093B4050E94BB169A
:102DB0009093F2028093F1028091B5058460809334
:102DC000B50508959091B60590FF42C0882309F497
:102DD00040C0833208F03FC08F73282F220F220F8C
:102DE0008091B6058370282B2093B6058091B50598
:102DF00081608093B505662381F03091B7054091DD
:102E0000B8055091B9056091BA057091BB058091E4
:102E1000BC059091BD050E9409146091B6056695A8
:102E2000669570E04BE050E083E091E00E94F5335E
:102E3000892B99F00E949C0A81E08093F40220E0A3
:102E40004091B9056091B8058091B7050E9463145F
:102E5000089581E0C2CF82E2C0CF0E94C616ECCFB7
:102E60008091B605869586958F5F833208F081E064
:102E700061E00E94E21608959091B60596959695A8
:102E80008FEF890F913009F482E261E00E94E2162F
:102E900008959091B60590FF09C09695969598175C
:102EA00028F0961718F40E943017089561E00E94E8
:102EB000E21608950E94AF162091AD053091AE053F
:102EC000232B222321F0809328059093290520911C
:102ED000AF053091B005232B222321F080932605E6
:102EE00090932705E0918C05F0918D05309749F07E
:102EF00082E08093AB050680F781E02D8BEA95E0B8
:102F000009950895662309F44BC0E3E3E80FE33124
:102F100050F4F0E0EE58FB4C0C9478330E94C00C57
:102F200081958093AE050E945A1708950E94C00CA7
:102F3000F8CF0E94C00C81958093AD05F4CF0E941C
:102F4000C00CFACF0E94E00C8093AF05ECCF0E943A
:102F5000E00C8195F9CF0E94E00C81958093B0053B
:102F6000E2CF0E94E00CFACF815D990B21E030E0C6
:102F700001C0220F8A95EAF78091AC05822B8093DD
:102F8000AC05D1CF8091AA0581608093AA05CBCFF3
:102F90008091AA058260F9CF8091AA058460F5CF5F
:102FA0004091AD058D3C59F48091AE0587FF0DC071
:102FB0001092AE05442359F41092A90508C08E3C26
:102FC00081F48091AE0518169CF3442381F0809122
:102FD000AF059091B005892B8111A5CF1092A8055E
:102FE000A2CF8F3C41F447FFF0CF1092AD05809106
:102FF000AE058823E0CF803D19F41416B4F3E5CF75
:103000009091AF05893D29F41916FCF61092AF0591
:10301000DCCF8A3D19F497FFD8CFF8CF9091B00557
:103020008B3D29F497FFD1CF1092B005CECF8C3DC8
:1030300019F41916CCF3C9CF9FE2980F983090F489
:10304000815D990B21E030E0B90102C0660F771F66
:103050008A95E2F7CB0180959091AC058923809306
:10306000AC05B3CF8D3D31F48091AA058E7F80935E
:10307000AA05ABCF8E3D21F48091AA058D7FF7CFB5
:103080008F3D09F0A2CF8091AA058B7FF0CFCF931F
:10309000C82F8823B1F18CEF8C0F813AA0F5809175
:1030A0004D01882301F18091C40587FF1CC0EC2FDE
:1030B000E695E695E695F0E0E851FE4F828190E0D6
:1030C0004C2F477021E030E002C0220F331F4A9599
:1030D000E2F782239323892B79F08C2F0E94960D9F
:1030E0000E94151209C0E2EEF1E08191C817A9F320
:1030F00021E0E83EF207C9F78C2F0E94620D0E9482
:103100001512CF91089580E28C0F883068F4C77053
:1031100081E090E001C0880FCA95EAF7C091BE0532
:10312000C82BC093BE05EBCF8BE58C0F833038F4F2
:103130002C2F2452330BC9010E94160DE2CFE8E573
:10314000EC0FEB3150F4F0E0EE0FFF1FE855FE4FAF
:10315000808191810E943C0DD4CF83E38C0F833119
:1031600080F661E08C2F0E948217CBCF882381F1FB
:103170009CEF980F913A28F40E94960D0E94151228
:10318000089590E2980F983050F4877091E001C054
:10319000990F8A95EAF7892F0E945B07EFCF9BE58D
:1031A000980F933028F480E090E00E94160D089567
:1031B00098E5980F9B3128F480E090E00E943C0D48
:1031C000089593E3980F933118F460E00E948217FA
:1031D00008951F93CF93DF93182FEB010E94471898
:1031E000209739F4812F0E94B618DF91CF911F915B
:1031F00008958FE99FE00197F1F700C00000219743
:10320000EFCF1092BE0580914D01882339F1809156
:10321000C40587FF23C0EAEEF1E08EE1DF011D92D5
:103220008A95E9F780E090E00E94160D80E090E03A
:103230000E943C0D1092C6050E94151286E0EBEA32
:10324000F5E0DF011D928A95E9F71092A905109229
:10325000A8051092AA050E945A170895E2EEF1E01F
:1032600086E0DCCF0E9401192FEF84E39CE021501F
:1032700080409040E1F700C0000088E19AE00FB67E
:10328000F894A895809360000FBE90936000FFCFE4
:10329000AAE2B0E0EEE4F9E10C94003389E192E0B7
:1032A000FC0101962091F100208322E081329207F7
:1032B000B9F780911A02893009F456C0C8F48230F7
:1032C00009F4B3C0833009F482C0813071F1809178
:1032D000E80083FFE7C08091190290911A029A30AA
:1032E00008F0E0C0E92FF0E0EB57FB4C0C9478338A
:1032F0008A3009F489C08B3051F7809119028132EC
:1033000031F780911D0290911E02892B01F7809167
:10331000E800877F8093E8000E94800E80911B0266
:1033200080934D010E940119D2CF80911902813AF8
:1033300071F68091E800877F8093E80080911D02FC
:1033400090911E02892B61F060E080E090E070E0D7
:103350000E94270E8091E8008B778093E800B7CF1A
:1033600068E081E292E0F3CF80911902813209F0A6
:10337000AECF80911D0290911E028D7F892B09F0A6
:10338000A6CF8091E800877F8093E8008091E800D5
:1033900082FF18C09091F3008091F200029731F4FF
:1033A0008091F100813011F0863021F48091F1009C
:1033B000809329028091E8008B778093E8000E9437
:1033C000800E85CF809133058111E0CF80CF809131
:1033D0001902813A09F07BCF80911D0290911E0263
:1033E000892B09F074CF8091E800877F8093E800F3
:1033F0008091E80080FFFCCF80914D018093F10027
:103400008091E8008E77D9CF80911902813209F03E
:103410005ECF8091E800877F8093E8000E94800E55
:1034200080911C028093150252CF80911902813A3B
:1034300009F04DCF8091E800877F8093E80080916C
:10344000E80080FFFCCF80911502D8CF803889F04A
:10345000823841F580911D028F70873018F5809376
:10346000E9008091EB0085FB882780F91092E90044
:1034700006C0809116029091E402911182609091B1
:10348000E800977F9093E8008093F1001092F1009C
:103490008091E8008E7723C0811116C080911B02B5
:1034A000813011F18091E80083FF0AC08091E8002B
:1034B000877F8093E8008091EB0080628093EB002F
:1034C000AA96E3E00C941C33823061F780911B02D2
:1034D000882389F01092E9008091E800877F80932B
:1034E000E8000E94800EDECF81E0933009F080E09A
:1034F0008093E402EFCF80911D028F702FEF280F91
:10350000263080F68093E9002091EB0020FFE2CF87
:10351000933031F48091EB0080628093EB00DACF3E
:103520009091EB0090619093EB0021E030E0A901D5
:1035300002C0440F551F8A95E2F74093EA001092AB
:10354000EA008091EB008860E8CF8111ABCF109149
:103550001B021F778091E3008078812B8093E3002A
:103560008091E800877F8093E8000E94800E809120
:10357000E80080FFFCCF8091E30080688093E30047
:1035800083E0111101C082E0809333058BCF805816
:10359000823008F087CF40911B0250911C024C3DB5
:1035A00083E0580799F583E08A838AE289834FB7DD
:1035B000F894DE01139620E03EE051E2E32FF0E0C4
:1035C00050935700849120FF03C082958F703F5F16
:1035D0008F708A30C8F0895C90E08D939D932F5F47
:1035E000243161F74FBF8091E800877F8093E80026
:1035F0006AE270E0CE0101960E94270E8091E800F9
:103600008B778093E8004ECF805DE6CF80911D02DE
:1036100090911E02252F33272330310509F44AC02B
:1036200078F52130310509F479C08BE590E0ECECB8
:10363000F1E02230310509F035CF2091E800277FF5
:103640002093E80020911F023091200282179307F7
:1036500008F49C0140E02115310509F064C04111D6
:1036600062C08091E80082FDC9CF80913305882334
:1036700029F2853019F28091E80083FFF2CFBECFA6
:103680002132310509F43BC02232310509F00ACF5D
:103690008330910508F006CFFC01EE0FFF1FEB59B8
:1036A000FE4F0190F081E02D8E599E4FDC018C91F0
:1036B00090E011C0CA019927413089F0823091050C
:1036C000B1F0892B09F0EECEE9E5F2E0E4918E2F1E
:1036D00090E0E9E5F2E0009709F4E4CEAECFE7E44C
:1036E000F2E0E4918E2F90E0E7E4F2E0F4CFE9E33A
:1036F000F2E0E4918E2F90E0E9E3F2E0ECCF83304A
:10370000910508F0CFCEFC01EE0FFF1FE559FE4FEB
:103710000190F081E02D89E090E08FCF82E190E090
:10372000E7E2F2E08ACF80913305882309F466CF7F
:10373000853009F463CF8091E80083FD5FCF8091ED
:10374000E80082FD8ECF8091E80080FF84CF9091C9
:10375000F3008091F2002115310519F088309105B0
:1037600050F041E0089709F040E08091E8008E7742
:103770008093E80070CF44914093F100319621503E
:1037800031090196E8CF803809F08CCE8091E800AD
:10379000877F8093E800809117028093F10078CEB4
:1037A000811180CE10911B02123008F07BCE8091E7
:1037B000E800877F8093E800109317020E94800E34
:1037C0001123D1F084E08093330542E061EC81E085
:1037D0000E94080F42E261EC84E00E94080F42E27E
:1037E00061EC82E00E94080F42E260EC83E00E94FC
:1037F000080F8091330556CE8091E30087FDE2CF1C
:1038000081E0E1CF9C014FB7F894809148059091F9
:103810004905A0914A05B0914B054FBF821B930B00
:1038200008950F931F93CF93DF93C62FD42F122F9A
:103830008823A9F06093B1050E94AF1690931302FC
:1038400080931202C77081E001C0880FCA95EAF721
:103850000E946712DF91CF911F910F91089580917F
:10386000B105681336C080911202909113020E9434
:10387000021C883C910568F5CD130EC060E070E035
:10388000812F0E94E918D77081E001C0880FDA9576
:10389000EAF70E947112DECFC77001E0802F01C0ED
:1038A000880FCA95EAF70E94711280E28D0F883066
:1038B00050F48D2F877001C0000F8A95EAF7802F92
:1038C0000E946712DBCF60E070E0812F0E94E91850
:1038D000C1CFC77081E001C0880FCA95EAF7D9CF80
:1038E000A8E0B0E0E6E7FCE10C94F4326C01DC0106
:1038F00014968C91882309F4B4C061E0C6010E943B
:10390000A7118C01F6018581882309F495C59801DA
:1039100037572038310508F09AC5003108F090C0BB
:103920008FEF93E00E94183481118AC028EAE22EBA
:10393000FF24F394011153C01A821982FE013396B9
:1039400086E0DF011D928A95E9F75701BFEFAB1AB8
:10395000BB0AC7010E94183489831A82882309F49C
:103960006FC0813009F081C087010E5F1F4FC50114
:103970000E9418348A83882309F462C09FEF980F4D
:103980009330E0F5E3E0EE0EF11CC8010E9418341C
:103990008B83882309F454C01C828E010F5F1F4F54
:1039A000D8018C91882389F2813009F0A1C0119649
:1039B0008C911197813009F05AC05801B2E0AB0EDA
:1039C000B11CF801828160E070E0893311F460E598
:1039D00070E00E94E91885010F5F1F4FE1CFE114ED
:1039E000F4E0FF0669F1C7010E94183497012F5FC8
:1039F0003F4F79018111F3CF01509CCF8430B9F44E
:103A000092E0E92EF12CC8010F5F1F4F0E9418347D
:103A1000E1E0F0E0EC0FFD1FEE0DFF1D8083882339
:103A200079F08C3731F4FE01EE0DFF1D1282780122
:103A3000B4CFFFEFEF1AFF0A27E0E216F10419F7FF
:103A40008091C3058770882361F0D60115968C910B
:103A5000882339F08091C50582FF03C082E00E946F
:103A60001D072896EFE00C941033750196CF823035
:103A700049F45801F2E0AF0EB11C12968C910E94ED
:103A80004718A9CF833049F45801B2E0AB0EB11CFE
:103A9000F80182810E94B6189ECF843019F00F5F22
:103AA0001F4F9ACF12962C910E5F1F4F80E090E02F
:103AB0006AE0A8014F5F5F4F2053330B2A30310576
:103AC00058F0009709F488CFAFE9BFE01197F1F7FC
:103AD00000C000000197F5CF689FF001699FF00DCD
:103AE0001124C9018E0F9F1FF80121818A01E1CFA6
:103AF000E82FF0E0E851F44F6490282F26952695A2
:103B0000269530E0F901E852F44FA4908770782EA2
:103B1000B12C082E02C0B594A7940A94E2F7B1E044
:103B2000AB22BB24F901E853F44F8490912C02C0DE
:103B3000959487948A95E2F7E1E08E229924F90121
:103B4000E854F44F5490A114B104C1F481149104C9
:103B500021F560E070E0862D0E94E918E52DF0E087
:103B6000072C02C0F595E7950A94E2F7E0FF34CF01
:103B700060E070E08CE20E94E9182ECF81EE0E9496
:103B800047188114910449F460E070E0862D0E948A
:103B9000E91881EE0E94B618E1CF86EE0E94471820
:103BA00060E070E0862D0E94E91886EE0E94B6184B
:103BB000AB28A1F2EECF26E241EE61EE0E94111C8D
:103BC0003FCF27E245EE65EEF9CF26E241EE60EE0B
:103BD000F5CF27E245EE64EEF1CF26E241EE62EE4C
:103BE000EDCF27E245EE66EEE9CF28E241E0EBCFEC
:103BF0000631FCE71F0709F0DFC08091B205811193
:103C0000D9C089E20E94960DD0C08091C405816020
:103C10008093C4056091C4057091C50584E090E06F
:103C20000E945A340E9401190BCF8091C50588600B
:103C30008093C505EFCF8091C4058260E9CF809164
:103C4000C4058460E5CF8091C4058860E1CF809190
:103C5000C5058160EDCF8091C5058260E9CF809177
:103C6000C4058061D5CF8091C4058062D1CF809199
:103C7000C4058064CDCF0E9401198091C40580687D
:103C8000C7CF8091C4058C60C3CF8091C505836088
:103C9000CFCF8091C4058E7FBBCF8091C505877F34
:103CA000C7CF8091C4058D7FB3CF8091C4058B7F32
:103CB000AFCF8091C405877FABCF8091C5058E7F44
:103CC000B7CF8091C5058D7FB3CF8091C4058F7E1E
:103CD0009FCF8091C4058F7D9BCF8091C4058F7B42
:103CE00097CF0E9401198091C4058F7791CF809161
:103CF000C405837F8DCF8091C5058C7F99CF80913E
:103D0000C40582FB992790F921E0922790FB82F964
:103D100090FB83F97DCF8091C505982F9095917088
:103D20008E7F892B90FB81F983CF9091C405892FD9
:103D30008F7B96FF80646CCF0E9401199091C4051F
:103D4000892F97FB87F9805863CF61E08EE090E080
:103D50000E943C345FCF60E0F9CF9091C405892F79
:103D60008F7E94FF806154CF9091C405892F8E7F00
:103D700090FF81604DCF9091C505892F877F93FF7C
:103D8000886056CF06312CE7120709F09CC080915D
:103D9000BE058A7A91E0811101C090E09093B2054E
:103DA000882331F085E30E94620D0E94151248CEEF
:103DB00089E2F9CF85E326CF8091BE058272F801B2
:103DC000E052F847E531F10508F0A9C0E157FB4C96
:103DD0000C9478338091B60580FF1EC0282F2E7F6B
:103DE0002093B6053091B7054091B8055091B905BB
:103DF0006091BA057091BB058091BC059091BD059D
:103E00000E9409140E949C0A8091B50581608093EC
:103E1000B5050E942C0A14CE81608093B60561E03E
:103E2000869586950E94E2160BCE4CE357E160E33F
:103E300077E10E94A90C04CE40E357E16CE377E1FF
:103E4000F8CF49E055E16FEF74E1F3CF4FEF54E164
:103E500069E075E1EECF40E255E163E175E1E9CF5C
:103E600043E155E160E275E1E4CF4AE355E16DE2FB
:103E700075E1DFCF4DE255E16AE375E1DACF49E460
:103E800054E16FE274E1D5CF4FE254E169E474E1AB
:103E9000D0CF61E081E0C6CF65E082E00E944917A3
:103EA000CFCD68E086E0FACF6EE089E0F7CF64E13D
:103EB0008FE0F4CF67E185E1F1CF61E088E1B2CF37
:103EC00062E289E1EBCF07373CE7130709F484C0CE
:103ED00008378CE7180709F48CC00A35BCE71B07C4
:103EE00009F4A4C008F087C00130FCE71F0709F4FB
:103EF0009BC003302CE7120709F490C001153CE782
:103F00001307C1F40E940119AFEFB4E3ECE0A15034
:103F1000B040E040E1F700C000000E94130E0737F8
:103F20009CE7190709F461C082E00837ACE71A077B
:103F300009F45CC0F6018581E080F180882309F4F2
:103F400079C0C7010E947C11182F682FC7010E94F9
:103F50008706B701812F0E946E110E945608E82E35
:103F6000192FD6011596BC9015971696AC90A29471
:103F70008FE0A8228091C3058770882309F1FB2C6C
:103F8000BB20F9F0892F807F803469F080E28E0DAC
:103F90008830B0F0892F807E803229F4B1E0BE15E0
:103FA00078F4AA2069F08091C50582FF09C082E0FB
:103FB0000E941D078091C3058770FF24F39481112F
:103FC000F12CE12FE295EF70103C08F09AC0F0E080
:103FD000EC55FB4C0C94783381E00E946B0643E077
:103FE00062E081E00E94F2062BCD81E00E9477061C
:103FF000F6CF82E0F2CF0B358CE71807C9F00C350D
:104000009CE7190709F096CF8091C50582FB8827A8
:1040100080F991E089270E948A108CCF6FEF7FEFA3
:1040200080E090E00E945A340E94321981E0F3CF80
:1040300080E0F1CFC7010E94BE06182F8ACF012F62
:104040000F70103110F00295007FBB20B9F00023F3
:1040500069F080E28E0D883010F0E11009C0809187
:10406000BE05802B8093BE050E9415128E2D41C087
:104070008091C605802B8093C605F6CF8E2D0E94B9
:10408000B6180023F1F180E28E0D883010F0E110B7
:1040900004C0802F0E945B0706C000958091C60572
:1040A00080238093C6050E9415122BC0012F0F702C
:1040B000107F103211F00295007FEE2051F0E1E008
:1040C000EE1609F46CC0BB2009F478C0AA20D1F127
:1040D000CDCF8091C50582FD31C0BB2069F00023A2
:1040E00039F08091BE05802B8093BE050E94151289
:1040F00080E00E94471805C080E00E94B6180111B8
:10410000C8CFFF20B1F08091C30580FD12C0D60159
:1041100015961C928695869586950E946B06C6011B
:104120000E94701C8091C3058695869586950E9495
:10413000770660E0C6010E94A71193CCBB2099F0DE
:10414000A11004C0802F0E946712DBCFF1E0AF12F4
:10415000D8CF8091BF05902F9823091791F2802B1B
:104160008093BF05CECFA110CCCF802F0E947112BB
:104170009091BF05802F8923882329F0802F809577
:1041800089238093BF058091C005902F98239923A0
:1041900009F4B7CF009508230093C005B2CFBB2028
:1041A00029F025E02A1508F4ACCFCCCF34E03A153D
:1041B00008F4A7CF802F0E947112A3CFAA20D1F3B9
:1041C00089E3E81209C09FEFA7EEB3E09150A04049
:1041D000B040E1F700C000008E2D0E94B61891CFCC
:1041E000812F869586958370882369F0813009F048
:1041F00088CF8E2D912F9370B11002C080E090E097
:104200000E943C0D7ECF8E2D912F9370B11002C075
:1042100080E090E00E94160D74CF6B2D8E2D0E94D1
:1042200082176FCF812F8370811137C0B1102AC0E0
:104230004E2D429546954770440F440F2E2D2F70FA
:10424000042E01C0220F0A94EAF79E2D9071992343
:1042500041F08FE090E001C0880F4A95EAF7982F6F
:104260009095169516951370123091F0892F822B28
:10427000133031F08091C105113039F0292B8223A0
:104280000E9465060E94050D3CCF822B892BF8CF3A
:10429000292B8091C1058227F3CFBB2069F110FF44
:1042A000F1CF4E2D429546954770440F440F2E2D69
:1042B0002F70042E01C0220F0A94EAF79E2D9071F0
:1042C000992341F08FE090E001C0880F4A95EAF70A
:1042D000982F9095169516951370123099F0892F96
:1042E000822B133031F08091C205113041F0292B1F
:1042F00082230E946806C6CF823020F2D2CF822B62
:10430000892BF7CF292B8091C2058227F2CF1F700E
:10431000BB2039F0812F0E946B068E2D0E94671200
:10432000B1CF8E2D0E947112812F0E947706AACFE5
:10433000E2EFEE16A9F1EE1588F0F0EFEF16D9F0E6
:1043400021EFE21609F443C0BB2009F462C0AA20A1
:1043500009F45CC08E2D0E94471894CF33EFE3160A
:1043600031F184EFE81679F1B110F1CFA11060C0FE
:10437000812F8F71DACFBB2081F094E09A1508F479
:1043800081CF1F7181E090E0012E01C0880F0A9457
:10439000EAF79091C2058927ACCFA5E0AA16EFCF26
:1043A000812F8F71B110C1CF0E946B066BCF80E05F
:1043B000BB2009F49ECF1F7181E0012E01C0880F40
:1043C0000A94EAF796CF9091C50592FD06C0812F19
:1043D0008F71BB2009F4A9CFE7CFBB2061F0812FFB
:1043E0008F7192FFE1CFB8E08B9F90011124236081
:1043F0002093C305D9CF81E00E941D07E1E0EA15B3
:1044000008F040CF82E00E941D073CCF812F8F71C2
:10441000CBCFAA2009F4ACCFF9E3EF1209C02FEFFC
:1044200037EE83E0215030408040E1F700C00000CB
:104430008E2D0E94B61826CFF801E851FC47E730D0
:10444000F10508F0D5CBE055FB4C0C947833F8011E
:10445000E851FC47E730F105B0F31092B105C8010F
:104460009057839708F08ECC84E090E00E94263429
:104470009093C5058093C405F801E150F047E232FE
:10448000F10508F0C2CBE954FB4C0C9478338091D1
:104490000706803178F480910606882359F0E09170
:1044A000C8052091C705309102064091010657E0EA
:1044B0002E1301C008956E2F70E05E9FF00111244D
:1044C000DF01A753BA4F14968C911497882361F19A
:1044D00011968C911197831327C08C91841324C05B
:1044E00015968C91159781111FC012968D919C91F4
:1044F000A0910306B09104068A1B9B0B883C910592
:1045000098F4809107068F70806180930706E153CD
:10451000FA4F80818F708061808381E096E00E94F5
:10452000701C0E9413070895FB013196E770C0CFFD
:10453000ADE0B0E0EEE9F2E20C94F5328C0186E0F9
:10454000F801DE01189601900D928A95E1F7F801C5
:104550007080F580A280B380848191E0892E96E0FE
:10456000992E60900506611018C0882399F0FF20ED
:1045700009F413C1C8010E94D611882309F40DC1A2
:1045800087E0F801A1E0B6E001900D928A95E1F78D
:104590000E944722FF24F39453C0D0900606209136
:1045A000030630910406A501421B530BDD2009F4DC
:1045B000C4C0483C510508F07AC0882359F3809163
:1045C0000206C180E0900706FFE0FE1508F459C01E
:1045D000C81215C080910106871111C0F1104BC09F
:1045E0008E2D8F7080618093070681E096E00E9497
:1045F000701C80910706F8018683F12C21C0F11010
:104600003AC040E06C2D872D0E949A0F40E06C2D3F
:10461000872D0E949A0FF82E8111EFCF88859985FA
:104620000E94C711292F22952F70903470F49F702B
:104630002230A0F09923B1F0F8019681903190F4E6
:104640008F2D2D96EEE00C9411332A5F2F702230BF
:1046500068F0C8010E94701CFD2CF2CF992311F064
:10466000882371F3805E883058F3F3CF803F40F3A6
:10467000815F8230F9CF80910706816080930706C1
:10468000BCCFC8123CC080910106871138C0F11020
:1046900036C0F801E682C8010E94701C87E0F8016C
:1046A000A1E0B6E001900D928A95E1F773CFE0901A
:1046B0000706FFE0FE1550F081E096E00E94701CB6
:1046C00087E0F40111928A95E9F797CF882309F4DE
:1046D00061CF90910206F8018181981310C08091FA
:1046E000010687110CC0F1100AC0E682C8010E94C1
:1046F000701C87E0F40111928A95E9F74BCFC8014D
:104700000E94D611882309F448C0FF2009F445C04F
:1047100080910706803208F433CF80910106909192
:1047200002069A838983BC82AB826D821E82EF82ED
:10473000CE0101960E94701C23CF483C510508F021
:10474000BFCF882309F426CFFF2039F190910206CC
:104750008181981318C080910106871114C080913F
:10476000070680FD9BCF803108F498CF8683807F39
:10477000803F09F490CF8681982F907F905F8F7053
:10478000892B868388CFC8010E94D6118111F8CE6B
:1047900080910706816080930706C8010E94701C03
:1047A000F9CEABE1B0E0E7EDF3E20C9400334E8BD1
:1047B0005F8B688F798F8A8F9B8F91111092C605BE
:1047C0001D8A86E0FE017696DE011F9601900D920D
:1047D0008A95E1F78B89882329F061E0CE010F9655
:1047E0000E94A71187E0FE013F96DE011896019016
:1047F0000D928A95E1F7CE0108960E9498228111C8
:104800002BC087E0FE013896DE01119601900D92D3
:104810008A95E1F72091C7054091C8058C858823CA
:10482000D9F030E0C90101968770992750E08417CC
:104830009507E9F097E0929FD001939FB00D112466
:10484000A753BA4FFE01319601900D929A95E1F768
:104850008093C7050E94130717E08091C8059091C7
:10486000C705891312C06B96E3E00C941C330E94B9
:1048700001191092C7051092C80587E0E1E0F6E043
:10488000DF011D928A95E9F7E7CF189FC001112437
:1048900087539A4F0E949822882329F38091C80554
:1048A00090E00196877099278093C805D6CFA6E03F
:1048B000B0E0EDE5F4E20C94FF320E94AF168C01FB
:1048C00080916A0590916B058017910779F01982A4
:1048D0001A820E94AF16BC0149815A8180E090E0A3
:1048E0000E94D12310936B0500936A052696E4E09D
:1048F0000C941B33A7E1B0E0E0E8F4E20C94F4324E
:104900001D861C86FE013E9686E0DF011D928A957B
:10491000E9F784E9E82E81E0F82E8E01045F1F4F4D
:1049200098E9C92E91E0D92E3801AA24A394B12C7C
:104930003EE9832E31E0932EF70181917F018F3F75
:1049400009F441C0F894E82FE295EF70F0E021A15E
:104950008F70A50102C0440F551F8A95E2F7CA0166
:10496000922F982B91A392A18095892382A378946A
:1049700000C0E8E9F1E031E0512C21912F3F09F42A
:1049800094C0A22FA295AF70A05EB0E08C9190E091
:104990002F7002C0959587952A95E2F78170811155
:1049A00084C0832F582A330F8E169F0631F7F701E4
:1049B000319780818F3F11F00E94710950EA5A951A
:1049C000F1F7D8015C920F5F1F4FCE14DF0409F09E
:1049D000B3CF48E050E0B30188ED92E00E9402348A
:1049E0000091E10210E0055D1A4F892B09F45FC0C8
:1049F00088E0F301A8EDB2E001900D928A95E1F70D
:104A000081E0809311020E94AF1690931002809370
:104A10000F0280916805882309F4A2C01A821982C6
:104A20001C821B82809114028A3008F062C044E626
:104A300053E1FE0131967F01BF01C8010E94501071
:104A40006701882309F47AC04AE153E1B701C8013C
:104A50000E945010882309F471C048E752E1B70161
:104A6000C8010E945010882309F468C048E353E14C
:104A7000B701C8010E945010882309F45FC010924A
:104A800014028091E00290E044E050E0B601855DC0
:104A90009A4F0E94023421E020930E02892B09F0E4
:104AA0003FC06796EFE00C94103380E07BCF80919D
:104AB0001102882309F4ADCF80910F02909110026A
:104AC0000E94021C059708F4A4CF44E050E068ED72
:104AD00072E0C8010E940234892B41F084E0E8EDC5
:104AE000F2E0D80101900D928A95E1F7109211023F
:104AF00090CF80910C0290910D020E94021C843F85
:104B0000914008F094CF80910E02882351F284E006
:104B1000FE013196DF011D928A95E9F710920E028F
:104B2000E091E002F0E0E55DFA4F89819A81AB8186
:104B3000BC8180839183A283B383B3CF809114021D
:104B40008F3F39F40E94AF1690930D0280930C02B0
:104B5000DACF8F5F809314028A3008F492CFF2CFBD
:104B6000E090E002F12CF701E55DFA4F7F01F801DA
:104B700080819181A281B38180934D0590934E05F0
:104B8000A0934F05B09350058DE495E00E94EF0E81
:104B900080934C058091510590915205A091530549
:104BA000B0915405F70180839183A283B383C090B1
:104BB0005505D0905605E0905705F0905805809126
:104BC000080290910902A0910A02B0910B02C81646
:104BD000D906EA06FB06B1F0C0920802D09209029B
:104BE000E0920A02F0920B020E94C30DC61AD70A85
:104BF000E80AF90AC0926405D0926505E09266055C
:104C0000F09267058BE0E9E5F5E0DE011196019091
:104C10000D928A95E1F78091590586958695F090D9
:104C20005A05E0905B05D0905C05009162051091FB
:104C3000630510926305112309F433CF10FF0BC0F5
:104C4000998190FF1CC09091B60591609093B60534
:104C500060E00E94E21611FF06C020E04D2D6E2D8F
:104C60008F2D0E94631412FF04C0002359F00E948C
:104C7000C61613FF16CF81E08093F40212CF0E9474
:104C8000A30AE9CF0E949C0AF4CFCDB7DEB7A49760
:104C90000FB6F894DEBF0FBECDBF85B7806885BF65
:104CA00085B7806885BF84B7877F84BF0FB6F894C7
:104CB000A8958091600088618093600010926000E8
:104CC0000FBE80E890E00FB6F89480936100909357
:104CD00061000FBE8FE699E09093DF018093DE01C3
:104CE0000E94D00E0E943F0F8091E200846080936A
:104CF000E200789480913305882399F08091E9004F
:104D00001091EC001795112717958F70182B1092A2
:104D1000E9008091E80083FD0E9448191F701093FC
:104D2000E90082E084BD93E095BD9AEF97BD809342
:104D30006E0010926405109265051092660510923F
:104D400067050E94FC11811102C00E942F1188EC9E
:104D500090E02091E30027FDA8C7AFE3BCE91197DD
:104D6000F1F700C000000197009799F70E94D00E5C
:104D70001092330510926805109269051092130184
:104D80008BE180930E0180930F018091130180913C
:104D9000130191E08927880F880F8093E10294E046
:104DA000981B9093E00284E90E94710986E60E94B4
:104DB000710987E90E94710986EC0E94710908E96E
:104DC00011E04EE9E42E41E0F42EF80181918F01CB
:104DD0008F3F11F00E947109E016F106B1F788E0EB
:104DE000EBE2F5E0DF01682E1D926A94E9F7E8ED49
:104DF000F2E0DF011D928A95E9F780E090E00E94E1
:104E00002634853E9E4F21F40E94FC11811163C01F
:104E100065EE7EEF80E090E00E945A3460E082E030
:104E200090E00E943C3481E08093C10561E083E022
:104E300090E00E943C3460E074E184E090E00E94E5
:104E40005A3460E086E090E00E943C3460E087E005
:104E500090E00E943C3440E050E0BA0188E090E0ED
:104E60000E944E3460E083E290E00E943C3460E0B7
:104E70008CE090E00E943C3460E08DE090E00E9485
:104E80003C3419821A821B821C821D821E821F8260
:104E9000188648E050E067E170E0CE0101960E947C
:104EA0002C3440E050E0BA018FE190E00E944E3493
:104EB00080E00E9411110E942F1140E050E0BA01E1
:104EC0008FE090E00E944E3440E050E0BA0183E170
:104ED00090E00E944E3482E090E00E94183480936B
:104EE000E50284E090E00E9426349093C50580930B
:104EF000C4050E947A24EFEFF6E721E0E150F0408C
:104F00002040E1F700C000000E947A24E09169058A
:104F100011E0E127EE0FEE0FF0E0E55DFA4F808142
:104F200081FF08C06FEF7FEF80E090E00E945A346D
:104F30000E94130E83E090E00E9418340E946506E0
:104F4000809168058127880F80931A0580E88093F7
:104F5000F9020E94FE2F6BE070E089E39BE00E9463
:104F60004715882309F443C080911A0565E070E075
:104F700081FDDAC184E39BE00E9447158823B9F1E3
:104F80006DE070E082E29BE00E944715882379F192
:104F90000E94C30D69A37AA38BA39CA3DC01CB0160
:104FA000805A9541AF4FBF4F80931E0590931F05C8
:104FB000A0932005B0932105EAE1F3E080E092E0C0
:104FC000DF019C011D9221503040E1F7F093F8027F
:104FD000E093F7028FEF9FEF90931D0580931C05E0
:104FE00081E0809325058093220510921B05809116
:104FF000E20281119EC088E090E00E9420346B01A3
:105000007C0183E290E00E941834282F30E040E0D9
:1050100050E060E070E080E090E000E20E94B63393
:10502000F22FA32EB42EB52FA62FE72F97018601BE
:1050300040E050E0BA01FC29A12AB22AB32BA42BEC
:10504000E52B862B972BF093B605A092B705B0926F
:10505000B805B093B905A093BA05E093BB0580935A
:10506000BC059093BD052091B50523602093B5053F
:10507000F43008F04CC025E02093B6051092B70537
:105080002FEF2093B80528E72093B9051092BA05B1
:1050900025E030E04FEF58E760E07E2F0E940914D2
:1050A00088E090E00E9420346B017C0183E290E074
:1050B0000E941834282F30E040E050E060E070E0BB
:1050C00080E090E000E20E94B6335901B42FA52F92
:1050D000F62FE72F9701860140E050E0BA01AC2897
:1050E000B12AB22BA32BF42BE52B862B972BA09266
:1050F000B605B092B705B093B805A093B905F09383
:10510000BA05E093BB058093BC059093BD050E9452
:10511000170A0E949C0A0E94B00C8091B60580FF7D
:1051200005C060E0869586950E94E21681E0809336
:10513000E20280916805811102C00E947D3184E104
:1051400091E090938D0580938C0522242394312C3B
:1051500080913305853049F480913305853009F419
:10516000E6C00E9401190E94050D0E947A2406EEF5
:1051700012E02BE2E22E25E0F22ED701F801919108
:105180008D912EEE32E02E173F0709F407C19817D4
:10519000B1F380906805D12C77247394D701CD901A
:1051A0007D01F80191908F019C1439F19C24B12C60
:1051B000AA24A3948A2D89218823B9F08820A9F0F4
:1051C000B982DA820E94AF169C838B837D8291E044
:1051D0008A2D8C21811101C090E09E8349815A81E2
:1051E0006B817C818D810E94D123B394AA0CF6E05F
:1051F000BF12E0CFF8013197C082D39498E0692EB6
:10520000D610CCCF0E94E00DF090B405F1102EC165
:10521000F0902505F110CFC00E94661586E0EBEAFC
:10522000F5E0DE01119601900D928A95E1F7C090AC
:10523000AC050091AD051091AE05E090AF05F09082
:10524000B0051092AD051092AE051092AF05109208
:10525000B005812F802B882379F0809128059091CB
:1052600029050E94021C9C018091A9058111C1C2DF
:105270002B30310508F0C3C28F2D8E29882379F099
:1052800080912605909127050E94021C9C01809127
:10529000A8058111ECC22B30310508F0EEC28091D7
:1052A000AC058C1116C08091AD05882311F08013D8
:1052B00010C09091AE05992311F019130AC02091E6
:1052C000B005211106C02091AF05211102C0892B24
:1052D00081110E945A1786E0FE013196ABEAB5E0D3
:1052E00001900D928A95E1F70E94050D90912A0593
:1052F000891721F080932A050E94C30D8091330500
:10530000843009F025CF83E08093E9008091E800A4
:1053100082FF1ECF8091E80085FDE7C28091E80002
:105320008B778093E80014CF8FE29BE025CE8091AD
:105330003305843031F10E9454151092E30248E1A4
:1053400050E060E40FB6F894A895409360000FBE5B
:105350006093600083B7817F846083BF83B781607F
:1053600083BF7894889583B78E7F83BF0FB6F894F8
:10537000A895809160008861809360001092600021
:105380000FBE0E947A24EBE2F5E08191811170C496
:1053900083E395E08E179F07C1F7DECE9813F9CE11
:1053A0000E945724F090B405F1105FC0809125054C
:1053B000882309F433CF80912305909124050E941E
:1053C000021CC29708F409C10E94AF1690932405ED
:1053D000809323058AE193E09093F8028093F7028B
:1053E00080916805882309F442C18EE491E00E940F
:1053F0006F168091F90290E0865E9C4F9093F802C0
:105400008093F70288E591E00E946F1660E085EBDB
:105410009BE00E9457160E94050D81FB662760F9EC
:105420008FEA9BE00E9469168091F90290E0880F54
:10543000991F865E9C4F9093F8028093F70260E07C
:1054400087EA9BE00E9457168091C2050E9453068E
:10545000823009F404C108F0BDC08111FCC060E0D5
:1054600082EA9BE00E946916B8C0F12C8091B305D6
:10547000E091B605E695E695E81BE093F3028230ED
:1054800009F062C0F0E0E05BF44FE4910E2F10E011
:1054900082EBC82E8AE0D82E8091F402882361F036
:1054A0001092F4020E94BB169093F2028093F102D4
:1054B0001092F6021092F5020E94BB169C01809198
:1054C000F1029091F202A901481B590B4F3F5F472F
:1054D00098F54091F0024423B1F01092F00240910F
:1054E000EE025091EF02241B350B2F3F3F4758F43B
:1054F000405D5A485093EF024093EE022091B5056B
:1055000028602093B505A090F502B090F602800FB8
:10551000911F9093F2028093F10281EF92E0F601E5
:1055200009958091F5029091F602892B29F4AB2818
:1055300019F081E08093F0028091250581113BCF25
:10554000FF2009F46BCE68CE863059F4F0E0E35BBF
:10555000F44FE4910E2F10E0BCE8CB2EBAE0DB2E26
:105560009BCF893061F4E695F0E0E65BF44FE4917F
:105570000E2F10E0A6ECCA2EAAE0DA2E8DCF8F30C7
:1055800061F4E695F0E0E95BF44FE4910E2F10E052
:10559000F4E0CF2EFBE0DF2E7FCF853159F4F0E031
:1055A000EC5BF44FE4910E2F10E0EEE8CE2EEBE032
:1055B000DE2E72CF00ED17E07AE8C72E79E0D72E05
:1055C000883109F069CF08E210E061E1C62E6CE095
:1055D000D62E62CF833009F446C080911C0590918D
:1055E0001D05892B91F080912505882371F080910C
:1055F0001B0581110AC00E94661520911C0530917F
:105600001D0580E021153105C9F58091220588230B
:1056100009F496CF0E94C30D69A37AA38BA39CA320
:1056200080911E0590911F05A0912005B091210544
:1056300029A13AA14BA15CA1281B390B4A0B5B0B9A
:10564000DA01C9018F3F9F4FAF4FBF4708F078CFB6
:105650000E94541575CF60E08DE99BE003CF60E0B8
:1056600089E99BE0FFCE60E084E99BE0FBCE60E04F
:1056700084E59BE00E945716B0CF8F5F082F10E0A3
:105680006101082E02C0CC0CDD1C0A94E2F7A601D1
:1056900042235323452B89F390911A0590FD43C073
:1056A00098013695279536952795922F8295880FE4
:1056B00080763FE1380F80932001209323013093BF
:1056C00021019093240124E630E047E050E06EE1B0
:1056D00071E088E70E943430892B09F096CFA80149
:1056E00035E0440F551F3A95E1F780911A0580FD8A
:1056F00022C0465E5C4F04E610E020E230E060E449
:1057000088E70E94CC30892B09F07FCFC094D094D9
:1057100080911C0590911D05C822D922D0921D05AB
:10572000C0921C0572CF880F880F880F37E0380FA2
:1057300020E093E0C0CFEAEFF2E080E2DF011D92CB
:105740008A95E9F702EA11E0EEE9F1E0FAA3E9A3AC
:1057500096EA492E91E0592E27E0922ED801ED913C
:105760008D01A9A1BAA16D91BAA3A9A3640F752F48
:10577000711D665E7C4FF0E0E650FD4F20E030E0AA
:10578000792C721AE22C022E01C0EE0C0A94EAF770
:105790005B0190E0D5018D915D018E21A72DA91BA4
:1057A000A770B0E0682E0A2E01C0660C0A94EAF7D2
:1057B000B195A195B109A770BB2701C08695AA959F
:1057C000EAF78629A0818A2B80839F5F983011F7A2
:1057D0002F5F3F4F31962830310591F64016510624
:1057E00009F0BCCF04E610E020E230E04AEF52E0DE
:1057F00086CF2531310508F43FCD8F3F19F08F5FFB
:105800008093A905002359F00E94C00C9FEF101649
:105810000CF491E0899F802D11248093AD05112314
:1058200059F00E94C00C91E011160CF09FEF899F77
:10583000802D11248093AE058091AD05882309F455
:105840001BCDD090AE05DD2009F416CD0E94B20C20
:10585000811101C081E08093AD058D2D0E94B20CB5
:10586000882319F08093AE0507CD81E0FBCF213569
:10587000310508F414CD8F3F19F08F5F8093A80590
:10588000EE2059F00E94E00C9FEF1E140CF491E002
:10589000899F802D11248093AF05FF2059F00E942D
:1058A000E00C91E01F140CF09FEF899F802D1124D4
:1058B0008093B0058091AF05882309F4F0CCF09077
:1058C000B005FF2009F4EBCC0E94B20C811101C09D
:1058D00081E08093AF058F2D0E94B20C882319F0D0
:1058E0008093B005DCCC81E0FBCF0E949F0E882323
:1058F00079F08091E8008B778093E8008981EFEF61
:10590000E80FE33190F5F0E0E752FB4C0C9478336C
:1059100080E2E82EF12C8E010F5F1F4F8091E8008E
:1059200085FD0AC08091E8008B778093E8000E9493
:105930009F0E882399F3DDCF8091F100D8018C93DD
:10594000B1E0EB1AF108E114F10499F20F5F1F4F77
:10595000E5CF1A828CE08B831AC08A81833049F1AB
:1059600038F4813061F08230D9F08FEF89830FC035
:105970008430D9F71B821C821D821E8208C00E94BF
:10598000C30D0E947E336B837C838D839E8340E2B4
:1059900050E0BE016F5F7F4F82E00E94E60FD8CBE0
:1059A00087E290E00E9418341B821C821D828E8345
:1059B000EECF8B8190E0DE011496883091053CF7A4
:1059C000FC01FF27E55DFA4F20812D930196F5CF6D
:1059D0008A81823049F0853041F68091B60580FF9A
:1059E00014C00E94A30AD3CF2B813C814D815E81DC
:1059F00029A33AA34BA35CA3CA01B9010E947E3339
:105A000087E290E00E943C34C2CF81608093B6056B
:105A100060E0869586950E94E216B9CF4C816B8135
:105A20008A810E943F119827892798279E838D831A
:105A3000AECF2D813E813227232732274C816B81C7
:105A40008A810E94A110A3CF0E94C810A0CF9A8182
:105A5000923009F08ACF8830E1F1893009F465C0CD
:105A60008B81833091F1B0F48130E9F0823009F01C
:105A70008ECF8C81882309F4B4CF8091B6058160E4
:105A80008093B60560E0869586950E94E21660E0F8
:105A90008C81C1CF843009F07ACF20E04091B905E4
:105AA0006D818C810FC08C8138E7839FC0011124E8
:105AB0006FEF70E00E94DD32462F20E06091B80564
:105AC0008091B7050E94631462CF8C818093BA05E0
:105AD0005ECF8B81833031F168F48130A9F0823060
