:100000000C9438060C9455060C9455060C94CA3181
:100010000C9455060C9455060C9455060C945506F4
:100020000C9455060C9455060C94902E0C94682F45
:100030000C9486160C9455060C9455060C94550693
:100040000C9455060C9455060C9455060C945506C4
:100050000C9455060C946C2E0C9455060C94550675
:100060000C9455060C9455060C9455060C945506A4
:100070000C9455060C9455060C9455060C94550694
:100080000C9455060C9455060C9455060C94550684
:100090000C9455060C9455060C9455060C94550674
:1000A0000C9455060C9455060C945506050109024E
:1000B000A10185020901A1000509190129081500FE
:1000C0002501950875018102050109300931158165
:1000D000257F95027508810609381581257F9501D0
:1000E00075088106050C0A38021581257F95017572
:1000F000088106C0C005010980A101850319012AF4
:10010000B700150126B700950175108100C0050CD8
:100110000901A101850419012AA002150126A002E6
:10012000950175108100C005010906A1018506052C
:100130000719E029E71500250195087501810205D9
:1001400007190029EF1500250195F07501810205B9
:10015000081901290595057501910295017503910D
:1001600001C00660FF0961A1010962150026FF00B8
:100170009520750881020963150026FF00952075FA
:10018000089102C005010906A101050719E029E748
:1001900015002501950875018102950175088101F9
:1001A0000507190029FF150026FF0095067508812F
:1001B000000508190129051500250195057501910E
:1001C00002950175039101C000AF00AE09025B000A
:1001D000030100A0FA090400000103010100092144
:1001E00011010001224400070581030800010904F0
:1001F0000100020300000009211101000122220078
:1002000007058203200001070503032000010904FC
:100210000200010300000009211101000122B600C3
:1002200007058403200001120100020000000853AA
:100230004601000100010200010C0343006F00723F
:10024000006E0065000000100366006F006F007311
:1002500000740061006E000000040309042B001408
:10026000001A00080015001700E10004001600073E
:100270000009000A00E0001D001B0006001900052F
:1002800000000000000000E300777C2C002A00132F
:100290000012000C0018001C00340033000F000E88
:1002A000000D000B00290038003700360010001147
:1002B00000000000000000E600787C280001001E1D
:1002C000001F0020002100220001002D002E002F21
:1002D000003000310001002900E700E2003900345D
:1002E000000000000000000100010001002A0027BA
:1002F0000026002500240023003F003E003D003C76
:10030000003B003A004500440043004200410040E9
:100310000000000000000001000100010001001EBB
:10032000021F0220022102220201002D022E022FB2
:10033000023002310201002900E300E600390034F6
:10034000020000000000000100010001002A002757
:10035000022602250224022302350235004F0052F4
:100360000051005000000046004E004B004D004A76
:10037000000000000000000100010001000000007A
:100380000000000000000000002078237829782574
:100390007827780000217824782A78267828780031
:1003A000000000000000000100010001004C0000FE
:1003B000000000AE00AB00A900000000000000A893
:1003C00000AC00AA000000000000000000000000D7
:1003D000000000000000000100010001000000001A
:1003E0000000003E5B4F5B3E003E6B4F6B3E001CCF
:1003F0003E7C3E1C00183C7E3C18001C577D571C60
:10040000001C5E7F5E1C0000183C180000FFE7C364
:10041000E7FF00001824180000FFE7DBE7FF0030CB
:10042000483A060E00262979292600407F0505074F
:1004300000407F05253F005A3CE73C5A007F3E1CA8
:100440001C0800081C1C3E7F0014227F2214005F41
:100450005F005F5F0006097F017F00006689956A83
:100460000060606060600094A2FFA2940008047EB7
:1004700004080010207E20100008082A1C0800082C
:100480001C2A0808001E10101010000C1E0C1E0C58
:100490000030383E383000060E3E0E0600000000E8
:1004A00000000000005F00000000070007000014CB
:1004B0007F147F1400242A7F2A1200231308646209
:1004C00000364956205000000807030000001C2297
:1004D0004100000041221C00002A1C7F1C2A000849
:1004E000083E08080000807030000008080808086E
:1004F000000000606000002010080402003E514926
:10050000453E0000427F40000072494949460021B3
:1005100041494D33001814127F10002745454539D5
:10052000003C4A4949310041211109070036494937
:10053000493600464949291E000000140000000009
:100540004034000000000814224100141414141454
:10055000000041221408000201590906003E415DD5
:10056000594E007C1211127C007F49494936003EE9
:1005700041414122007F4141413E007F494949417B
:10058000007F09090901003E41415173007F0808BD
:10059000087F0000417F4100002040413F01007F73
:1005A00008142241007F40404040007F021C027F2F
:1005B000007F0408107F003E4141413E007F090951
:1005C0000906003E4151215E007F09192946002697
:1005D000494949320003017F0103003F4040403F49
:1005E000001F2040201F003F4038403F0063140898
:1005F0001463000304780403006159494D4300006B
:100600007F41414100020408102000004141417F28
:100610000004020102040040404040400000030783
:100620000800002054547840007F284444380038A3
:100630004444442800384444287F00385454541813
:100640000000087E0902001824241C78007F08049A
:1006500004780000447D4000002040403D00007FC1
:10066000102844000000417F4000007C047804789A
:10067000007C08040478003844444438007C182482
:10068000241800182424187C007C0804040800485E
:10069000545454240004043F4424003C4040207C33
:1006A000001C2040201C003C4030403C00442810EE
:1006B0002844004C9090907C004464544C440000CA
:1006C00008364100000000770000000041360800B5
:1006D000000201020402003C2623263C0000000028
:1006E00000000000000000000000000000C0E0F07A
:1006F000F8F81800C0F0FCFEFFFFFFFFFFFFFF7ED1
:10070000000000000000000000008080E0E0606069
:1007100060608080000000008080E0E060606060D9
:100720008080000000008080E0E0606060606060C9
:100730008080000000008080E0E060608080E0E079
:100740006060808000008080E0E0606060606060E9
:100750006060808000000000000000E0F0F0F0E049
:10076000ECEEF7F37020007C7C7C7E007E7E7E7F4A
:100770007F7F000080C0E07E5B4F5BFEC00000C05A
:1007800000DCD7DEDEDED7DC00C0000000000000A9
:100790000000000000000000000000000000000059
:1007A000000000000000F8FCFEFFE000FFFFFFFF7C
:1007B000FFFF80FFFFFFFFFFFFFFFFFF1F0701009D
:1007C00000000000000000007E7EFFFF81817E7E31
:1007D0006666818100007E7EFFFF81817E7E7E7E57
:1007E00081817E7E0000FFFFFFFF0000E6E6868637
:1007F000797986860000FFFFFFFF0000F9F9E7E73F
:100800000000FFFF0000FFFFFFFF00006666666656
:100810007E7E8181000000000000000F1F3F7F7F6F
:100820007F7F7F3F1E0C001F1F1F3F003F3F3F7F0A
:100830007F7F00307B7F7830202030787F3B000343
:10084000000F7F0F0F0F7F0F00030000000000005C
:100850000000000000000000000000000000000098
:10086000000000000000030F1F3F3F3F3F1F1F3FDE
:100870003F7F7F7F3F3F1F3F7F7F7F7F7C78783840
:100880001C0F000000000000000001010707060621
:100890000606010100000000010107070606060622
:1008A000010100000000010107070606010107071A
:1008B00006060101000001010707060601010707FE
:1008C00006060101000001010707060606060606E6
:1008D000060601010000000000000000000000000A
:1008E0000000000000000000000000000000000008
:1008F00000000000000000000000000000000000F8
:1009000000000000000000000000000000000000E7
:10091000000000000000000000000000002223256D
:100920002628292A2C2D2F3032333536383A3B3DB4
:100930003E4042434547494A4C4E50515355575902
:100940005A5C5E6062646668696B6D6F717375771F
:10095000797B7D7F81838587898A8C8E909294961E
:10096000989A9C9E9FA1A3A5A7A8AAACAEAFB1B32D
:10097000B4B6B8B9BBBCBEBFC1C2C3C5C6C7C9CA7D
:10098000CBCCCDCED0D1D2D2D3D4D5D6D7D7D8D93F
:10099000D9DADADBDBDBDCDCDCDCDCDDDDDDDDDC9D
:1009A000DCDCDCDCDBDBDBDADAD9D9D8D7D7D6D5AF
:1009B000D4D3D2D2D1D0CECDCCCBCAC9C7C6C5C371
:1009C000C2C1BFBEBCBBB9B8B6B4B3B1AFAEACAABE
:1009D000A8A7A5A3A19F9E9C9A98969492908E8C6E
:1009E0008A89878583817F7D7B79777573716F6D48
:1009F0006B6968666462605E5C5A59575553515022
:100A00004E4C4A4947454342403E3D3B3A383635D5
:100A10003332302F2D2C2A292826252322FFAA7F86
:100A20005540000101010101010101010202020220
:100A30000202020202030303030303030304040488
:100A40000404040405050505050606060606070751
:100A500007070708080808090909090A0A0A0B0B09
:100A60000B0C0C0C0D0D0D0E0E0E0F0F0F101011A8
:100A7000111112121313141415151616171718182E
:100A800019191A1A1B1B1C1D1D1E1E1F2020212296
:100A900022232424252626272829292A2B2C2D2DDC
:100AA0002E2F30313232333435363738393A3B3CF9
:100AB0003D3E3F404142434445464748494A4C4DEC
:100AC0004E4F50515354555658595A5B5D5E5F61B5
:100AD0006264656668696B6C6D6F70727375777848
:100AE0007A7B7D7E8082838587888A8C8E8F9193A6
:100AF0009596989A9C9EA0A2A3A5A7A9ABADAFB1CD
:100B0000B3B5B7BABCBEC0C2C4C6C9CBCDCFD1D4B1
:100B1000D6D8DBDDDFE2E4E7E9EBEEF0F3F5F8FA57
:100B2000FDFF00DA0281FFD9F1DB20A4A62EAF0081
:100B3000A0C0D30000A1C8D30000AED580A81F403C
:100B40008D1420007F3F1F643214643214783C1EE1
:100B50001E140A05808182838485868788898A8B12
:100B60008C8D8E8F9091929394A0A1A2A3A4A5A600
:100B7000A7A8A9AAABACADAEAFB0B1B2B3B4C0C177
:100B8000C2C3C4C5C6C7C8C9CACBCCCDCECFD0D1CD
:100B9000D2D3D4004D6F64730053796D0046756EE7
:100BA00063004D61696E004C61796572733A002093
:100BB0004E554D4C4B004350534C4B000A0A00001D
:100BC0000000000000000000000000000000000025
:100BD0000000000000000000000000000000000015
:100BE0000000007E0F00D4FFFFFFC7000000780068
:100BF000000000000000002A2B2800000000000078
:100C00000000000000000000000029000000002C8F
:100C10001E3420212224342627252E362D3738272E
:100C20001E1F202122232425263333362E37381F3A
:100C30000405060708090A0B0C0D0E0F10111213FC
:100C40001415161718191A1B1C1D2F3130232D359A
:100C50000405060708090A0B0C0D0E0F10111213DC
:100C60001415161718191A1B1C1D2F3130354C007E
:100C700011241FBECFEFDAE0DEBFCDBF11E0A0E050
:100C8000B1E0E8EEF9E602C005900D92A63EB1078C
:100C9000D9F726E0A6EEB1E001C01D92A031B2075F
:100CA000E1F70E9443260C9478340C940000982FAE
:100CB00082958F70882311F0982F84E0292F269534
:100CC0002695222311F08E5F922F969591118F5FBA
:100CD00008958093C90508958093CA05089521E079
:100CE00030E001C0220F8A95EAF78091CA05822B75
:100CF0000E946C06089521E030E0A90102C0440F73
:100D0000551F8A95E2F7CA0180959091CA058923FB
:100D10000E946C060895292F983098F5863088F542
:100D200090E036E0239F800D911D1124282F27701D
:100D300041E001C0440F2A95EAF723E09695879594
:100D40002A95E1F7FC01EE0FFF1FE80FF91FE256AD
:100D5000FA4F20E030E070E05191DF011197CB01B4
:100D6000022E02C0969587950A94E2F781708195CC
:100D70008527842385278C932F5F3F4F23303105B0
:100D800059F70895292F983078F5863068F590E066
:100D900036E0239F800D911D1124682F677023E09A
:100DA000969587952A95E1F7FC01EE0FFF1FE80F56
:100DB000F91FE256FA4F40E050E080E0219130E028
:100DC000062E02C0369527950A94E2F72170332744
:100DD000042E01C0220F0A94EAF7822B4F5F5F4F67
:100DE0004330510559F7089580E008959091CA0560
:100DF00021E030E0F90101C0EE0F8A95EAF7D90150
:100E000002C0AA0FBB1F6A95E2F7EA2B01C0220FAE
:100E10004A95EAF7892F8E23E81305C0892F822B84
:100E20000E946C0608952095822F8923F9CF809126
:100E3000D0059091CF05981301C008958F5F8770FA
:100E4000FACF9091CB05809589238093CB05282FED
:100E5000277021110DC0891759F09091CD0592FF8F
:100E600007C08695869586950E947B061092CB05D5
:100E700008958091C6059091CE05892B5091C705A4
:100E80005523C1F090914D019923A9F09091CC0583
:100E900097FF11C09DE122EF31E040E0F901608150
:100EA0002F5F3F4F61114F5F9150C0F7411110927A
:100EB000C705852B089595E02AEE31E0EECF982FF7
:100EC00090958091C60589238093C6050895803E3C
:100ED0009105D1F1C8F48133910509F47FC048F43C
:100EE0008932910509F46FC08A32910509F47DC0F9
:100EF000089589339105E1F082389105C9F0853371
:100F0000910509F45BC00895843E9105D1F148F440
:100F1000823E910531F1833E910541F181EE90E0F1
:100F20000895863E9105C1F1873E9105E1F108954E
:100F30002091CC052370211165C02091CD0523FFA0
:100F400014C089E290E008952091CC0520FD43C0B3
:100F50003091CD0530FF09C024FF4EC080E090E005
:100F600008952091CC0522FDF7CF08952091CC055E
:100F700022FD45C03091CD0530FD44C024FFF5CFA2
:100F8000EDCF2091CD0521FFF0CF8091CC0584FDE0
:100F9000E5CF87EE90E008952091CC0523FFE5CFC3
:100FA00024FDDCCFF6CF2091CC0523FD2EC030915F
:100FB000CD0531FFE3CF84EE90E008952091CC057C
:100FC00025FFD3CFBECF2091CC0525FD21C0209198
:100FD000CD0523FFCACF89E390E008952091CC0589
:100FE00026FFC3CF8AE290E008952091CC0526FF2A
:100FF000BCCF81E390E0089583EE90E0089582EE07
:1010000090E0089580EE90E0089586EE90E00895D7
:1010100085E390E0AACF9091CC0592FF10C041E00B
:10102000282F2471243009F040E031E0282F287166
:10103000283009F030E0431711F02CE0822793FFAD
:1010400010C041E0282F2471243109F040E031E044
:10105000282F2871283109F030E0431711F02CE0D7
:1010600082273091CD0530FF10C051E0282F21712B
:10107000213009F050E041E0282F2871283009F094
:1010800040E0541711F029E0822731FF10C041E001
:10109000282F2171213109F040E031E0282F2871FB
:1010A000283109F030E0431711F029E0822794FD40
:1010B000877E08951F93CF93DF930E946707EC010B
:1010C000811522E5920708F053C0811540E5940789
:1010D00008F0DDC0803E9105F8F48D3C910508F0E4
:1010E000AEC0883A910580F4853A910508F099C020
:1010F0008130910521F00497813A910550F4CE0199
:10110000DF91CF911F910895885A91094B9708F468
:101110008BC0C0E0D0E0F3CF811550E49507F8F420
:10112000C11580E2D80708F0CBC0C83ED10538F31E
:10113000CE019A9581159F4160F78D2F0E940B0873
:10114000182FCE0199270E946707212F30E0322FF8
:101150002227E901CC27DF71C82BD92BD0CF9927C3
:101160000E946707CC27DF70C82BD92BD06AC7CF66
:10117000803842E59407C8F5803652E5950708F0B7
:1011800067C0C03482E5D807B0F08C2F869586956D
:10119000877020E2829FC0011124C37021E030E0FB
:1011A000A90102C0440F551FCA95E2F7EA01C82BF6
:1011B000D92BDC68A4CFC03252E5D50708F041C076
:1011C0008C2F8695869520E2829FC0011124C370E2
:1011D00021E030E0A90102C0440F551FCA95E2F793
:1011E000EA01C82BD92BDD688ACF803C52E59507F0
:1011F00060F48F71C03AD24508F03FC090E0982F5C
:101200008827EC01C46FD06A7ACF805C92458097C2
:1012100008F07FCFDC2FCC27CC27DF71C06FD06ADE
:101220006ECFA497D0646BCFC85AD0E0CC0FDD1F2F
:10123000C155DE4F0990D881C02DD46460CFD065F0
:101240005ECFCF71D0E0DC2FCC27C16FD06A57CFF3
:1012500086958695877020E2829FC0011124C37015
:1012600021E030E0A90102C0440F551FCA95E2F702
:10127000EA01C82BD92BDA6842CF0E940B08C82F8D
:10128000D0E0DC2FCC27CC27DF71D06238CF8F7134
:101290000E940B0865E0D695C7956A95E1F7CF7077
:1012A000D0E0DC2FCC27282F30E084FF05C054E0AD
:1012B000220F331F5A95E1F7C22BD32BD0691FCFD2
:1012C0008D2F8F710E940B08182FCE0199270E9435
:1012D0006707212F30E0322F222722273F71282B4A
:1012E000392BE901D2CF80E00895F894E82FE295F8
:1012F000EF70F0E041A18F7021E030E0B90102C051
:10130000660F771F8A95E2F7CB01962F909594236D
:1013100091A392A1892B82A3789408950895A0E0C7
:10132000B0E0E5E9F9E00C940133E901E42FF0E0E5
:10133000EE5DF54F61110BC0E4919E2F8E2F8983D6
:10134000E8839A83CDB7DEB7EAE00C941D33282FEB
:1013500030E0062F10E0F491EF2F86E0829F6001CD
:10136000839FD00C1124EE24EA94F12CC601B7011E
:101370000E94E532220F331F45E5469FC001479F7B
:10138000900D1124281B390B822F880F280FC701BD
:10139000801B910BF89FA001F99F500D1124952FF0
:1013A000209F5001219FB00C1124AB2CBB24D701EE
:1013B000AA19BB095D01FA9DD001FB9DB00D112456
:1013C0008B2F5701A21AB1089501209F5001219F30
:1013D000B00C309FB00C1124AB2CBB24EA18FB08D6
:1013E000FE9D9001FF9D300D112463307105C9F001
:1013F0001CEFC11613E0D10650F46130710509F4F9
:101400009ECF6230710589F08E2FE32F98CF643024
:10141000710571F066307105B9F3E52F9B2F8F2FA1
:101420008ECFEB2F852F9F2F8ACF852F932F87CF9E
:10143000832FE52FF8CF8091BE05843060F4837050
:1014400084608093BE058091C105893718F088E7D4
:101450008093C10508958C38B0F383708868F1CF0C
:1014600060910F018091BE0580FF0EC070E0209159
:101470000E0130E0C901880F991F820F931F825C13
:101480009D4F0E94BD0F0895809110019091110110
:10149000282F30E0F901EE0FFF1FE20FF31FE25C8F
:1014A000FD4F891718F71182108212828F5F3396D1
:1014B000F8CF9091BE0590FF11C09091100150910E
:1014C0001101292F30E0F901EE0FFF1FE20FF31F8A
:1014D000E25CFD4F951718F00E94300A0895818351
:1014E000608342839F5F3396F5CFA3E0B0E0EBE7E4
:1014F000FAE00C9409339091BE0590FF0DC0493776
:1015000008F048E79E012F5F3F4F0E948F094B81F3
:1015100069818A810E94590A2396E2E00C9425335E
:10152000CF93DF93EC01EEEBF5E0438162818C8198
:101530000E94750A8C818F5F8C83DF91CF91089513
:10154000EBEBF5E011828281846082830895EEEBFB
:10155000F5E080818E7F80830E94A00AEBEBF5E0AE
:101560008281816082830E94300A0895CF93DF9345
:10157000EC01EC81F0E0E35EF64F4491EEEBF5E038
:10158000628181810E94750A8C818F5F8C83DF91DB
:10159000CF910895EF92FF921F93CF93DF93EC01C9
:1015A00010E0EE24EA94F12C60911201161770F00D
:1015B0000E94300A9A818C8190FF28C08F5F8C83B3
:1015C000DF91CF911F91FF90EF90089580911001CE
:1015D000810F9927991F9C01220F331F280F391F54
:1015E000225C3D4F4091C105493708F048E770E063
:1015F000C7010E944A33962F8C816091C005199FC4
:10160000800D11240E948F091F5FCECF8150D7CF4C
:10161000A0E0B0E0EEE0FBE00C940033EC01A09021
:1016200012018C819A8190FD0DC0BB24B39481116D
:101630000DC08FEF8A0DBB24B39480933D0281E0EF
:101640008C8304C0BB24BA948823B9F3E12CF12C19
:10165000EA14B8F00E94300A90913D02E1E0BE1217
:1016600057C0809112018150992319F08FEF890F93
:1016700091E080933D029C83CDB7DEB7EBE00C9404
:101680001C33809110018E0D9F2D911D8C01000F38
:10169000111F080F191F025C1D4FF80111821082E3
:1016A000128234E0C32ED12C912C80913D02890D01
:1016B000873354F166E30E943C33892F082E000CD7
:1016C000990B8E159F05A9F48091C1058C9DA001F1
:1016D0008D9D500D11245595479555954795493742
:1016E00008F048E798016091C0058091BF050E940D
:1016F0008F099B0CF1E0CF1AD108C114D104A9F6CF
:101700008FEFE81AF80AA4CF87FFD8CF8A0DD6CF7B
:10171000892F90E001966091120170E00E944A3397
:10172000982FA7CF0F931F93CF93DF93EC018C815A
:10173000811109C081E08C8310923C0292E0909369
:101740000201809301011091100120911101812F5C
:1017500090E0FC01EE0FFF1FE80FF91FE25CFD4F68
:10176000821750F100E060911201061758F10E94B3
:10177000300A8091010120913C02280F20933C0205
:1017800090910201980F90930201191654F4022EC1
:10179000000C330B409112014150550B24173507B3
:1017A00034F0819580930101813009F41C82DF912E
:1017B000CF911F910F9108951182108212828F5F35
:1017C0003396CECF202F30E070E0C9010E944A331B
:1017D000810F90E040913C02042E000C550BFC015F
:1017E000EE0FFF1FE80FF91F24173507C4F04091D3
:1017F0000201042E000C550B4217530784F09F0181
:10180000225C3D4F4091C105493708F048E760919F
:10181000C0058091BF050E948F090F5FA4CFE25CD5
:10182000FD4F118210821282F8CFAEE0B0E0EBE102
:10183000FCE00C9405338D879E87AD85BE8514969C
:101840001C91212F30E0D9010E9495339B01AC01FE
:101850000E94AB3369837A838B839C83E0E2F0E060
:10186000E11BF109A5E5B0E09B01AC010E94AB339F
:1018700069877A878B879C879F01DF010E948D3360
:101880009B01AC010E94B6336D837E838F83988762
:101890009B01AC0189819A81AB81BC81280F391FE2
:1018A0004A1F5B1F69857A858B859C850E945E3304
:1018B000022F30E00A3248F5C901880F991F820FC4
:1018C000931F95958795F82EF09410E085E5E82E06
:1018D000E01A80911201181730F10E94300AED854C
:1018E000FE85948181E0992319F0903219F48FEFED
:1018F0008093000180910001890FAD85BE8514960B
:101900008C932E96E6E00C94213385E590E0DC0183
:10191000A21BB30BCD01880F991F8A0F9B1F97FF46
:10192000D0CF0196CECF8E2D11FD802F409110018A
:10193000410F5527551F9A01220F331F240F351FC2
:10194000225C3D4F4F2DB8E7BF1508F448E7609182
:10195000C0050E948F091F5FBCCFFA01882311F0D8
:1019600009950895FB01FCCF539A0895282F35EB74
:101970002303C001112497FF04C080589109892FC7
:10198000089580589F4FFBCF8091B20580FD14C011
:1019900081FD14C082FD16C08091B105882381F0BD
:1019A0008E3180F420E5829FC00111246EE170E049
:1019B0000E944A33862F089584E1089588E20895AD
:1019C00088E0089580E508958091B20580FD17C0F4
:1019D00081FD17C082FD19C08091B005882399F060
:1019E000883298F428E0829FC001112468E270E0F8
:1019F0000E944A336115710551F0862F089562E007
:101A0000FCCF64E0FACF61E0F8CF68E0F6CF81E088
:101A1000089580917005882359F0E0919405F09124
:101A20009505309729F00190F081E02D09950895F2
:101A300080E00895A3E0B0E0E0E2FDE00C9409331B
:101A40009C01809134029091350282179307A1F096
:101A50003093350220933402E0919405F09195057E
:101A6000309751F083E089833B832A830084F1859A
:101A7000E02DCE01019609952396E2E00C942533E2
:101A8000A3E0B0E0E6E4FDE00C9409339C01809112
:101A900032029091330282179307A1F03093330200
:101AA00020933202E0919405F0919505309751F022
:101AB00084E089833B832A830084F185E02DCE0175
:101AC000019609952396E2E00C94253390914D01FF
:101AD0009923C1F09091CC0597FF14C0E82FE695AB
:101AE000E695E695803FF8F4F0E0E051FE4F877010
:101AF00021E030E001C0220F8A95EAF78281822B33
:101B000082830895AAEEB1E0EFEF90E02D91821765
:101B100051F0EF3F19F4211101C0E92F9F5F96307A
:101B2000A9F7EF3F09F408950E2E000CFF0BE851C2
:101B3000FE4FE6CF90914D019923E1F09091CC05B5
:101B400097FF18C0E82FE695E695E695803FF0F4FC
:101B5000F0E0E051FE4F877021E030E0A90102C0C3
:101B6000440F551F8A95E2F7CA0180959281892317
:101B700082830895EAEEF1E09191891303C0DF01B9
:101B800011971C9251E0E03FF507B1F70895A4E0EA
:101B9000B0E0EDECFDE00C9409338FB7F8942091A0
:101BA00050053091510540915205509153052983BC
:101BB0003A834B835C838FBF69817A818B819C815F
:101BC0002496E2E00C942533A4E0B0E0EAEEFDE0D8
:101BD0000C94093380917005882371F00E94C70D21
:101BE00069837A838B839C8369817A818B819C81D1
:101BF0002496E2E00C9425330E94C70D69837A8312
:101C00008B839C8380916C0590916D05A0916E05EE
:101C1000B0916F0529813A814B815C81280F391F72
:101C20004A1F5B1F29833A834B835C83DDCF87E7A1
:101C300097E7909301088093000888E19AE00FB637
:101C4000F894A895809360000FBE90936000FFCF3A
:101C5000809131020895FC019B01809127029091AF
:101C600028028617970740F0672B29F48091E80037
:101C70008E778093E800C90140E0009741F441115C
:101C800006C08091E80082FF2FC080E00895209177
:101C90003B052223A9F12530A9F12091E80023FD7D
:101CA0002DC02091E80022FDECCF2091E80020FF1C
:101CB000E4CF3091F3002091F200009719F0283022
:101CC000310558F041E02830310509F040E020911D
:101CD000E8002E772093E800D0CF41914093F100A7
:101CE00001972F5F3F4FE9CF80913B05882341F05B
:101CF000853041F08091E80083FFC3CF81E00895F3
:101D000082E0089583E008958091210287FF13C047
:101D10008091E80082FF06C08091E8008B77809375
:101D2000E80004C080913B058111F2CF08958091B5
:101D30003B058823D9F38091E80080FFF8CF80919C
:101D4000E8008E77ECCF2091E4003091E50095E635
:101D5000A9018091EC008170882331F08091E80026
:101D600080FF06C080E008952091E80022FD1BC09E
:101D700080913B05882391F0853091F08091EB00B4
:101D800085FD10C02091E4003091E5004217530713
:101D900001F391509111DCCF84E0089582E0089521
:101DA00083E0089581E00895E8EDF0E080818E7F82
:101DB00080831092E2001092DA001092E100A0EE0F
:101DC000B0E08C9181608C9380818F77808319BC87
:101DD000A7EDB0E08C918E7F8C9380818F7E808385
:101DE000109220020895FC01AC014C5F5F4F8FEF11
:101DF00091E32191822728E030E087FF0BC0880F14
:101E000089272150310921153105B9F7E417F50764
:101E100081F70895880FF5CF982FE42FE270909303
:101E2000E900891308C0762F242F50E0E11111C07A
:101E300091E0980FF4CF7091EC002091ED0050915B
:101E4000F00021FD06C09F5F973049F78093E900BD
:101E500008953091EB003E7F3093EB003091ED0020
:101E60003D7F3093ED003091EB0031603093EB001B
:101E70007093EC002093ED005093F0002091EE0061
:101E800027FDE1CF0895A0E0B0E0E9E4FFE00C9485
:101E90000333C8EDD0E088818F7E8883E7EDF0E0E2
:101EA00080818160808384E082BF81E08093200212
:101EB00088818E7F888302EE10E0F80110821092F4
:101EC000DA0081EEC82ED12CF601108288818F773E
:101ED000888388818068888388818F7D888319BC06
:101EE00010923B0510921F021092EC0210921E02FB
:101EF00090EEE92EF12CF70180818B7F8083888121
:101F00008160888342E060E080E00E940C0FF6016F
:101F100080818E7F8083F8018081816080838081D1
:101F200088608083F70180818E7F808388818061D3
:101F30008883CDB7DEB7E8E00C941F33E091D0057D
:101F40009091CF0527E0E91302C080E00895AE2FFD
:101F5000B0E02E9FF0011124EF52FA4F3181361379
:101F600006C03081381303C03581341304C0FD012D
:101F70003196E770E8CF81E008959C01AB016BB129
:101F8000677F7BB17860EFB7F894CA01880F991F1B
:101F9000840F951F820F931F8217930741F4EFBFA1
:101FA0008FE594E00197F1F700C000000895D90192
:101FB0004D919D0158E07BB9000000C047FF6BB90F
:101FC000440F000000C000C000C06BB900C05A95AB
:101FD00091F7E2CF0F931F93CF93DF93EB018A0129
:101FE00090913B05943079F58093E9008FEF9091C3
:101FF000E80095FD07C095ED9A95F1F70000815036
:102000008111F5CF8091E80085FF1DC00E94A30ECD
:10201000811114C08091E80085FD06C08091E80020
:102020008E778093E800F2CF88818093F100015091
:1020300011090115110511F02196ECCF8091E800EE
:102040008E778093E800DF91CF911F910F910895D3
:10205000CF93DF93D82FC92F48E050E0682F792F16
:1020600081E00E94EA0F88E0ED2FFC2FA9E2B2E0A8
:1020700001900D928A95E1F7DF91CF910895BC010F
:1020800040E250E084E00E94EA0F0895BC0146E07F
:1020900050E084E00E94EA0F0895BC0143E050E064
:1020A00084E00E94EA0F0895A0E0B0E0EAE5F0E1E4
:1020B0000C940133F82EE92EB62EA72E8A018091BA
:1020C0001C02CC24C394D12C8A3018F48AE0C82E88
:1020D000D12CC1E0D0E06B2D7A2D8F2D9E2DF801F3
:1020E0000995811116C02196CC16DD0694F0CC9F7F
:1020F000C001CD9F900D900D112420E030E045E30C
:102100004A95F1F700002F5F3F4F28173907B9F7BD
:10211000E2CFCDB7DEB7EAE00C941D339091CD0548
:1021200092FB222720F9281779F080FB92F99093EF
:10213000CD056091CC057091CD0584E090E00E94C2
:10214000623482E00E94210708951F93CF93DF93AA
:10215000962F122F632F8430D8F49830C8F446306D
:10216000B8F4C42FD0E0CC0FDD1F2CE0929FC00D3F
:10217000D11D112490E6899FC00DD11D1124CE01DF
:1021800088960E944434612FCE0189960E9444347F
:10219000DF91CF911F910895AF92BF92CF92DF92BE
:1021A000FF920F931F93CF93DF93A12CB12C00E0EC
:1021B000650110E013C0FE01259134914F2D612F70
:1021C000802F0E94A5102296F39486E0F812F3CF98
:1021D00086E0C80ED11C1F5F183039F0E601CC0F25
:1021E000DD1FC35ADD4FF12CE6CF0F5F80E3A80E51
:1021F000B11C0430E9F6DF91CF911F910F91FF9050
:10220000DF90CF90BF90AF900895CF93DF93C8EA4F
:10221000D1E060E0CE010E9444342196C11584E0F3
:10222000D807B9F7DF91CF910895882381F065E24F
:1022300084E290E00E94443463E085E290E00E94F2
:10224000443468E186E290E00E94443408956FEFE0
:1022500084E290E00E9444346FEF85E290E00E94B7
:1022600044346FEFEFCF80E00E94151160E087E209
:1022700090E00E9444340E94CC100E94051181E03D
:102280000E94151108950F931F93CF93DF9384300D
:1022900030F5683020F5463010F5C42FD0E0CC0F73
:1022A000DD1F2CE0629FC00DD11D112430E6839FFD
:1022B000C00DD11D1124CE0188960E942034082F14
:1022C00010E0102F0027CE0189960E94203498013B
:1022D000282BC901DF91CF911F910F91089580E0C4
:1022E00090E0F8CF462F672F783038F4463028F446
:1022F000843018F40E944311089580E090E008951E
:10230000A0E0B0E0E6E8F1E10C9404337C01009138
:10231000CA058091C905082BC3E0D0E010E0C801D0
:102320000C2E02C0959587950A94E2F780FD09C0AE
:102330002197A8F7D12C8D2DCDB7DEB7E7E00C940F
:102340002033DC2EB7018C2F0E9472110E945A0894
:10235000019771F3F0CF0F931F93CF93FC01858109
:1023600000811181882391F0662381F0C8010E94C9
:102370008011C82F682FC8010E948B06B8018C2FCE
:102380000E947211CF911F910F910895C8010E9470
:10239000C206C82FF3CFCF93DF93D82FC92F0E9447
:1023A00080116D2F7C2F0E9472110E945A08DF91BC
:1023B000CF910895FC0184818823A1F080819181CF
:1023C0000E94CB11282F92959F70963091F060F467
:1023D000925F9F70923030F481E0203F79F030F4CA
:1023E000283E30F080E004C09A5FF3CF243FD1F75D
:1023F000089581E0283E18F0213FF9CF089508950F
:1024000084E290E00E942034853289F485E290E0F5
:102410000E942034833059F486E290E00E942034F8
:1024200091E0883109F090E0892F8170089580E073
:10243000FCCF80914D01882359F18091CC0587FF15
:1024400027C00E9439078093F10140E250E064E721
:1024500075E080EF91E00E940A34892BC1F080E2A0
:10246000E0EFF1E0A4E7B5E001900D928A95E1F785
:10247000E0919405F0919505309749F086E08093BE
:10248000F0010480F581E02D80EF91E00995089539
:102490000E9439078093E80148E050E066E975E062
:1024A00088EE91E00E940A34892B89F388E0E8EEF7
:1024B000F1E0A6E9B5E001900D928A95E1F7E0918F
:1024C0009405F0919505309711F30280F381E02D8A
:1024D00088EE91E0DBCF882339F09091C605892BF7
:1024E0008093C6050E9419120895882321F00E9446
:1024F0005F070E9419120895A8E0B0E0E2E8F2E157
:102500000C9408334091400550914105609142057B
:10251000709143052FB7F894809150059091510523
:10252000A0915205B09153052FBF841B950BA60BAC
:10253000B70B11E084369105A105B10578F10E9431
:10254000E40DDC01CB010296A11DB11D89839A83A4
:10255000AB83BC8380913E0190913F018C5A9A4F8E
:1025600020913D01422F50E0253010F044E050E032
:10257000BE016F5F7F4F0E94173483E090E00E949E
:102580007032182F882351F00E94C70D60934005C8
:10259000709341058093420590934305812F2896BF
:1025A000E3E00C942433A0E0B0E0E9EDF2E10C9418
:1025B0000333E82FEB01B901D801C880D980EA8044
:1025C000FB808FB7F8940091500510915105209130
:1025D0005205309153058FBF0C191D092E093F0973
:1025E000043611052105310510F4442309F10E2F9D
:1025F0000E2E000C110B88E0E802F0011124EB5DB7
:10260000FE4F818192818C5A9A4F408150E0A417ED
:10261000B50708F4AD010E941734C8010E9470325A
:10262000882339F00E94C70D688379838A839B834E
:1026300081E0CDB7DEB7E8E00C941F330F931F9312
:10264000CF93DF93D82FC92F44E050E069E575E0C0
:102650000E940A3441E0892B09F440E004E010E0D4
:102660002D2F3C2F64E475E082E00E94D312DF91AD
:10267000CF911F910F910895ABE0B0E0E2E4F3E158
:102680000C94073328E0EEEBF5E0CE010196DC0177
:1026900001900D922A95E1F73091BB052091BC0580
:1026A0005091BD0539872A875B8741E09C01511114
:1026B00001C040E00BE010E06CE375E084E00E94B4
:1026C000D31281111092BD052B96E4E00C942333B4
:1026D000EF92FF921F93CF93DF9300D000D00F9221
:1026E000CDB7DEB77B0180E090E00E947032182FFA
:1026F00081111AC010E08091480590914905A09180
:102700004A05B0914B05F70180839183A283B3837F
:10271000812F0F900F900F900F900F90DF91CF911E
:102720001F91FF90EF90089580912801482F50E06D
:10273000882311F041E050E06091290170912A0155
:102740006C5A7A4FCE0105960E94173440914C0581
:1027500050914D0560914E0570914F052FB7F8943B
:102760008091500590915105A0915205B09153056B
:102770002FBF841B950BA60BB70B84369105A105C3
:10278000B10538F485E595E00E94F30E9D81891727
:10279000B9F181E090E00E947032882309F4AACF59
:1027A00080913001482F50E0853010F044E050E037
:1027B00060913101709132016C5A7A4FCE010196CD
:1027C0000E94173485E595E00E94F30E9D818913E0
:1027D00091CF0E94C70D60934C0570934D05809377
:1027E0004E0590934F0589819A81AB81BC8180937E
:1027F000480590934905A0934A05B0934B057BCFBC
:102800008091550590915605A0915705B0915805B6
:1028100089839A83AB83BC83E6CFA0E0B0E0E3E199
:10282000F4E10C9403338901D42FC52F6B017C0193
:102830000E941B0AA8016D2F7C2F88E090E00E9467
:10284000563498014D2F5C2FB601C70100E20E945B
:10285000D933622F83E290E00E944434CDB7DEB7D3
:10286000E8E00C941F338091C205833018F48F5F29
:102870008093C2052091BE053091BF054091C005EF
:102880005091C1056091C2057091C3058091C40546
:102890009091C5050E940D1408958091C20588236A
:1028A00019F081508093C2052091BE053091BF057B
:1028B0004091C0055091C1056091C2057091C3055A
:1028C0008091C4059091C5050E940D140895A3E060
:1028D000B0E0EDE6F4E10C940133E82ED62EF42EB0
:1028E000B22E9091BE0590FF46C03091BF053813BF
:1028F00008C08091C005861304C08091C10584176B
:1029000029F08091BD0582608093BD05E92FE69591
:10291000E695AE2FB0E0A858BE4F8C918093BB05D2
:102920009C7F943061F54F2D88E78F1508F448E7B8
:102930009E012F5F3F4F6D2D8E2D0E948F094B8181
:1029400069818A810E94590A3E2D3093BF05D09239
:10295000C005F092C105BB2071F02091BE056091C9
:10296000C2057091C3054D2D5F2D8091C4059091D6
:10297000C5050E940D142396EAE00C941D338230A5
:1029800019F4F090C105E0CF8630F9F28930E9F210
:102990008931D1F6E9519E2F9170A92EE695F0E08C
:1029A000E35EF54FE491C12C0E2F10E0609112010F
:1029B000C61618F00E94300AC7CF2C2D30E0C09EFA
:1029C000C001C19E900D112470E00E94E5328E2D51
:1029D000A11017C0860F90911001A901490F511D38
:1029E0009A01220F331F240F351F225C3D4F4F2DBC
:1029F00098E79F1508F448E76D2D0E948F09C3944E
:102A0000D5CF861BE8CFEEEBF5E0818121E0438155
:102A10006281865F0E9467140895EEEBF5E0818184
:102A200021E0438162818A500E9467140895EEEB91
:102A3000F5E0628121E1620F08F46FEF21E043814C
:102A400081810E9467140895EEEBF5E0628121E137
:102A5000621B08F460E021E0438181810E946714D9
:102A60000895EEEBF5E0438121E1420F08F44FEFCA
:102A700021E0628181810E9467140895EEEBF5E008
:102A8000438121E1421B08F440E021E06281818121
:102A90000E9467140895AB0124E630E0BC0188E78A
:102AA0000E9487309C0181E0232B09F080E008958B
:102AB00080912D05882369F080912A05882349F0AB
:102AC00062E070E08AEC91E00E944B158111109257
:102AD0002A050895A4E0B0E0E0E7F5E10C9409339D
:102AE00080912D058823F9F00E94C70DDC01CB01F0
:102AF000805A9541AF4FBF4F80932605909327058D
:102B0000A0932805B093290580912A0581110BC057
:102B100062E070E088EC91E00E944B15882319F088
:102B200081E080932A052496E2E00C9425331F93DC
:102B3000CF93DF93982F162F81E09A3019F09D30B4
:102B400039F480E00E942816DF91CF911F910895FB
:102B5000C091FF02D091000386E0FE01A6E3B2E03F
:102B600001900D928A95E1F7903E90F186E0FE018A
:102B700011928A95E9F7C091FF02D09100031111DB
:102B800033C046E050E0BE0186E392E00E940A3482
:102B90009E0122523340892B91F52A5F3F4F40918D
:102BA0000103642F70E0C9010E94E532481B4630E2
:102BB00010F4240F311D211572E0370710F020E0CA
:102BC00030E02E5D3C4F309300032093FF02BCCFDA
:102BD000F6E09F9FB001112463527C4F46E050E025
:102BE000CE010E94F433C7CF9E012A5F3F4FFE0102
:102BF0002E173F0731F2808180958193F9CFC9016B
:102C000045E0969587954A95E1F741E050E0BA0195
:102C100002C0660F771F8A95E2F7CB016091240509
:102C200070912505862B972BB9016B5F7F4FE5E0EF
:102C300076956795EA95E1F702C0440F551F6A95AE
:102C4000E2F7842B952B9093250580932405A5CF3F
:102C5000CF93382FE091FF02F0910003E252F3404E
:102C600020910103622F70E0CF010E94E532281B02
:102C7000822F332369F066E00E943033C82FC150A1
:102C800010F4CF91089560E080E20E949715F7CF8D
:102C90009F01280F311D2115324018F080E0E0E03F
:102CA000F0E08E0F9F2F911D8E5D9C4F909300033F
:102CB0008093FF02E6CF1F93CF93DF93EC01162F93
:102CC000FE018491811104C0DF91CF911F9108957D
:102CD000612F0E9497152196F3CF0F931F93CF93E7
:102CE000DF93EC01FC0101900020E9F78F01015016
:102CF0001109C017D10728F0DF91CF911F910F91D3
:102D0000089560E089910E949715F3CF1F921FB636
:102D10001F9211248F939F93AF93BF938091EB02E7
:102D2000811113C08091500590915105A0915205D9
:102D3000B09153054196A11DB11D8093500590930C
:102D40005105A0935205B0935305BF91AF919F9148
:102D50008F911F901FBE1F9018952FB7F8948091E8
:102D6000500590915105A0915205B09153052FBF88
:102D7000089580917005882319F00E94AD1608957A
:102D80000E94E40DCB0108956091BE05669566959D
:102D900070E04BE050E083E091E00E94FD33892B2E
:102DA00019F481E08093BC050E94B9169093FA0251
:102DB0008093F9028091BD0584608093BD050895DC
:102DC0009091BE0590FF42C0882309F440C0833231
:102DD00008F03FC08F73282F220F220F8091BE056D
:102DE0008370282B2093BE058091BD058160809360
:102DF000BD05662381F03091BF054091C00550911B
:102E0000C1056091C2057091C3058091C405909180
:102E1000C5050E940D146091BE056695669570E02B
:102E20004BE050E083E091E00E94FD33892B99F064
:102E30000E94A00A81E08093FC0220E04091C1053D
:102E40006091C0058091BF050E946714089581E0DC
:102E5000C2CF82E2C0CF0E94C416ECCF8091BE05E3
:102E6000869586958F5F833208F081E061E00E944D
:102E7000E01608959091BE05969596958FEF890F6F
:102E8000913009F482E261E00E94E0160895909189
:102E9000BE0590FF09C096959695981728F096174D
:102EA00018F40E942E17089561E00E94E01608951C
:102EB0000E94AD162091B5053091B605232B222333
:102EC00021F080933005909331052091B705309122
:102ED000B805232B222321F080932E0590932F05F4
:102EE000E0919405F0919505309749F082E0809348
:102EF000B3050680F781E02D83EB95E009950895F1
:102F0000662309F44BC0E3E3E80FE33150F4F0E04B
:102F1000E658FB4C0C9480330E94C40C819580933E
:102F2000B6050E94581708950E94C40CF8CF0E945D
:102F3000C40C81958093B505F4CF0E94C40CFACFE0
:102F40000E94E40C8093B705ECCF0E94E40C8195BD
:102F5000F9CF0E94E40C81958093B805E2CF0E94DE
:102F6000E40CFACF815D990B21E030E001C0220F23
:102F70008A95EAF78091B405822B8093B405D1CF6E
:102F80008091B20581608093B205CBCF8091B2056C
:102F90008260F9CF8091B2058460F5CF4091B5058C
:102FA0008D3C59F48091B60587FF0DC01092B6058F
:102FB000442359F41092B10508C08E3C81F48091ED
:102FC000B60518169CF3442381F08091B7059091C3
:102FD000B805892B8111A5CF1092B005A2CF8F3CE7
:102FE00041F447FFF0CF1092B5058091B6058823D4
:102FF000E0CF803D19F41416B4F3E5CF9091B705F6
:10300000893D29F41916FCF61092B705DCCF8A3DEC
:1030100019F497FFD8CFF8CF9091B8058B3D29F4DC
:1030200097FFD1CF1092B805CECF8C3D19F4191669
:10303000CCF3C9CF9FE2980F983090F4815D990B43
:1030400021E030E0B90102C0660F771F8A95E2F7F0
:10305000CB0180959091B40589238093B405B3CFBB
:103060008D3D31F48091B2058E7F8093B205ABCF58
:103070008E3D21F48091B2058D7FF7CF8F3D09F011
:10308000A2CF8091B2058B7FF0CFCF93C82F88233A
:10309000B1F18CEF8C0F813AA0F580914D0188231E
:1030A00001F18091CC0587FF1CC0EC2FE695E695D9
:1030B000E695F0E0E051FE4F828190E04C2F4770A2
:1030C00021E030E002C0220F331F4A95E2F782234D
:1030D0009323892B79F08C2F0E949A0D0E9419124C
:1030E00009C0EAEEF1E08191C817A9F321E0E03FC1
:1030F000F207C9F78C2F0E94660D0E941912CF911A
:10310000089580E28C0F883068F4C77081E090E009
:1031100001C0880FCA95EAF7C091C605C82BC093B5
:10312000C605EBCF8BE58C0F833038F42C2F24525F
:10313000330BC9010E941A0DE2CFE8E5EC0FEB3129
:1031400050F4F0E0EE0FFF1FE155FE4F80819181BA
:103150000E94400DD4CF83E38C0F833180F661E071
:103160008C2F0E948017CBCF882381F19CEF980F82
:10317000913A28F40E949A0D0E941912089590E243
:10318000980F983050F4877091E001C0990F8A959C
:10319000EAF7892F0E945F07EFCF9BE5980F9330E6
:1031A00028F480E090E00E941A0D089598E5980FA9
:1031B0009B3128F480E090E00E94400D089593E355
:1031C000980F933118F460E00E94801708951F93C0
:1031D000CF93DF93182FEB010E944518209739F405
:1031E000812F0E94B418DF91CF911F9108958FE92C
:1031F0009FE00197F1F700C000002197EFCF1092F8
:10320000C60580914D01882339F18091CC0587FF57
:1032100023C0E2EFF1E08EE1DF011D928A95E9F72C
:1032200080E090E00E941A0D80E090E00E94400D46
:103230001092CE050E94191286E0E3EBF5E0DF0163
:103240001D928A95E9F71092B1051092B00510927F
:10325000B2050E9458170895EAEEF1E086E0DCCF4F
:103260000E94FF182FEF84E39CE0215080409040A3
:10327000E1F700C0000088E19AE00FB6F894A89545
:10328000809360000FBE90936000FFCFAAE2B0E091
:10329000ECE4F9E10C94083381E292E0FC01019640
:1032A0002091F100208322E089329207B9F78091C2
:1032B0002202893009F456C0C8F4823009F4B3C040
:1032C000833009F482C0813071F18091E80083FF7E
:1032D000E7C080912102909122029A3008F0E0C06C
:1032E000E92FF0E0E357FB4C0C9480338A3009F46B
:1032F00089C08B3051F780912102813231F7809162
:10330000250290912602892B01F78091E800877FA2
:103310008093E8000E94840E8091230280934D01E7
:103320000E94FF18D2CF80912102813A71F68091DC
:10333000E800877F8093E800809125029091260223
:10334000892B61F060E080E090E070E00E942B0E3D
:103350008091E8008B778093E800B7CF68E089E23E
:1033600092E0F3CF80912102813209F0AECF8091BB
:103370002502909126028D7F892B09F0A6CF80919E
:10338000E800877F8093E8008091E80082FF18C002
:103390009091F3008091F200029731F48091F10056
:1033A000813011F0863021F48091F1008093310258
:1033B0008091E8008B778093E8000E94840E85CF8F
:1033C00080913B058111E0CF80CF80912102813A2D
:1033D00009F07BCF8091250290912602892B09F07C
:1033E00074CF8091E800877F8093E8008091E800A7
:1033F00080FFFCCF80914D018093F1008091E80027
:103400008E77D9CF80912102813209F05ECF8091F1
:10341000E800877F8093E8000E94840E8091240258
:1034200080931D0252CF80912102813A09F04DCF45
:103430008091E800877F8093E8008091E80080FF1A
:10344000FCCF80911D02D8CF803889F0823841F5B9
:10345000809125028F70873018F58093E900809164
:10346000EB0085FB882780F91092E90006C0809167
:103470001E029091EC02911182609091E800977F7A
:103480009093E8008093F1001092F1008091E800A1
:103490008E7723C0811116C080912302813011F1F3
:1034A0008091E80083FF0AC08091E800877F8093C5
:1034B000E8008091EB0080628093EB00AA96E3E045
:1034C0000C942433823061F780912302882389F0A1
:1034D0001092E9008091E800877F8093E8000E94C5
:1034E000840EDECF81E0933009F080E08093EC021F
:1034F000EFCF809125028F702FEF280F263080F6B6
:103500008093E9002091EB0020FFE2CF933031F46B
:103510008091EB0080628093EB00DACF9091EB001A
:1035200090619093EB0021E030E0A90102C0440FCC
:10353000551F8A95E2F74093EA001092EA008091C5
:10354000EB008860E8CF8111ABCF109123021F7789
:103550008091E3008078812B8093E3008091E800E4
:10356000877F8093E8000E94840E8091E80080FFAE
:10357000FCCF8091E30080688093E30083E0111129
:1035800001C082E080933B058BCF8058823008F0E9
:1035900087CF40912302509124024C3D83E058078D
:1035A00099F583E08A838AE289834FB7F894DE0134
:1035B000139620E03EE051E2E32FF0E050935700F5
:1035C000849120FF03C082958F703F5F8F708A3097
:1035D000C8F0895C90E08D939D932F5F243161F753
:1035E0004FBF8091E800877F8093E8006AE270E037
:1035F000CE0101960E942B0E8091E8008B7780937C
:10360000E8004ECF805DE6CF8091250290912602A2
:10361000252F33272330310509F44AC078F52130AE
:10362000310509F479C08BE590E0ECECF1E0223053
:10363000310509F035CF2091E800277F2093E8007D
:1036400020912702309128028217930708F49C01E9
:1036500040E02115310509F064C0411162C080913C
:10366000E80082FDC9CF80913B05882329F285308F
:1036700019F28091E80083FFF2CFBECF21323105ED
:1036800009F43BC02232310509F00ACF833091059D
:1036900008F006CFFC01EE0FFF1FE459FE4F01902A
:1036A000F081E02D87599E4FDC018C9190E011C094
:1036B000CA019927413089F082309105B1F0892BF8
:1036C00009F0EECEE9E5F2E0E4918E2F90E0E9E535
:1036D000F2E0009709F4E4CEAECFE7E4F2E0E49143
:1036E0008E2F90E0E7E4F2E0F4CFE9E3F2E0E4913A
:1036F0008E2F90E0E9E3F2E0ECCF8330910508F003
:10370000CFCEFC01EE0FFF1FEE58FE4F0190F0816F
:10371000E02D89E090E08FCF82E190E0E7E2F2E0F7
:103720008ACF80913B05882309F466CF853009F460
:1037300063CF8091E80083FD5FCF8091E80082FD38
:103740008ECF8091E80080FF84CF9091F30080912C
:10375000F2002115310519F08830910550F041E053
:10376000089709F040E08091E8008E778093E800A8
:1037700070CF44914093F100319621503109019668
:10378000E8CF803809F08CCE8091E800877F809365
:10379000E80080911F028093F10078CE811180CEE5
:1037A00010912302123008F07BCE8091E800877FD1
:1037B0008093E80010931F020E94840E1123D1F021
:1037C00084E080933B0542E061EC81E00E940C0FB5
:1037D00042E261EC84E00E940C0F42E261EC82E084
:1037E0000E940C0F42E260EC83E00E940C0F80917B
:1037F0003B0556CE8091E30087FDE2CF81E0E1CF2B
:103800009C014FB7F8948091500590915105A0917B
:103810005205B09153054FBF821B930B08950F9330
:103820001F93CF93DF93C62FD42F122F8823A9F095
:103830006093B9050E94AD1690931B0280931A0203
:10384000C77081E001C0880FCA95EAF70E946B1229
:10385000DF91CF911F910F9108958091B905681361
:1038600036C080911A0290911B020E94001C883C75
:10387000910568F5CD130EC060E070E0812F0E94C5
:10388000E718D77081E001C0880FDA95EAF70E9447
:103890007512DECFC77001E0802F01C0880FCA9576
:1038A000EAF70E94751280E28D0F883050F48D2F58
:1038B000877001C0000F8A95EAF7802F0E946B1273
:1038C000DBCF60E070E0812F0E94E718C1CFC770A6
:1038D00081E001C0880FCA95EAF7D9CFA8E0B0E02F
:1038E000E4E7FCE10C94FC326C01DC0114968C9151
:1038F000882309F4B4C061E0C6010E94AB118C01B9
:10390000F6018581882309F495C598013757203839
:10391000310508F09AC5003108F090C08FEF93E0B0
:103920000E94203481118AC028EAE22EFF24F394F9
:10393000011153C01A821982FE01339686E0DF011D
:103940001D928A95E9F75701BFEFAB1ABB0AC70171
:103950000E94203489831A82882309F46FC0813041
:1039600009F081C087010E5F1F4FC5010E942034FE
:103970008A83882309F462C09FEF980F9330E0F5A3
:10398000E3E0EE0EF11CC8010E9420348B838823F3
:1039900009F454C01C828E010F5F1F4FD8018C9117
:1039A000882389F2813009F0A1C011968C9111977A
:1039B000813009F05AC05801B2E0AB0EB11CF801D9
:1039C000828160E070E0893311F460E570E00E946C
:1039D000E71885010F5F1F4FE1CFE114F4E0FF0608
:1039E00069F1C7010E94203497012F5F3F4F790191
:1039F0008111F3CF01509CCF8430B9F492E0E92ECD
:103A0000F12CC8010F5F1F4F0E942034E1E0F0E06D
:103A1000EC0FFD1FEE0DFF1D8083882379F08C379E
:103A200031F4FE01EE0DFF1D12827801B4CFFFEFDD
:103A3000EF1AFF0A27E0E216F10419F78091CB058F
:103A40008770882361F0D60115968C91882339F010
:103A50008091CD0582FF03C082E00E942107289655
:103A6000EFE00C941833750196CF823049F4580179
:103A7000F2E0AF0EB11C12968C910E944518A9CFAE
:103A8000833049F45801B2E0AB0EB11CF8018281D9
:103A90000E94B4189ECF843019F00F5F1F4F9ACF49
:103AA00012962C910E5F1F4F80E090E06AE0A80113
:103AB0004F5F5F4F2053330B2A30310558F000978A
:103AC00009F488CFAFE9BFE01197F1F700C000001B
:103AD0000197F5CF689FF001699FF00D1124C9018E
:103AE0008E0F9F1FF80121818A01E1CFE82FF0E0BE
:103AF000E151F44F6490282F26952695269530E0C5
:103B0000F901E152F44FA4908770782EB12C082E61
:103B100002C0B594A7940A94E2F7B1E0AB22BB24AB
:103B2000F901E153F44F8490912C02C0959487944D
:103B30008A95E2F7E1E08E229924F901E154F44FED
:103B40005490A114B104C1F48114910421F560E0F2
:103B500070E0862D0E94E718E52DF0E0072C02C0EA
:103B6000F595E7950A94E2F7E0FF34CF60E070E066
:103B70008CE20E94E7182ECF81EE0E944518811436
:103B8000910449F460E070E0862D0E94E71881EE10
:103B90000E94B418E1CF86EE0E94451860E070E004
:103BA000862D0E94E71886EE0E94B418AB28A1F279
:103BB000EECF26E241EE61EE0E940F1C3FCF27E2DE
:103BC00045EE65EEF9CF26E241EE60EEF5CF27E255
:103BD00045EE64EEF1CF26E241EE62EEEDCF27E254
:103BE00045EE66EEE9CF28E241E0EBCF0631FCE797
:103BF0001F0709F0DFC08091BA058111D9C089E2A1
:103C00000E949A0DD0C08091CC0581608093CC0534
:103C10006091CC057091CD0584E090E00E94623403
:103C20000E94FF180BCF8091CD0588608093CD0551
:103C3000EFCF8091CC058260E9CF8091CC05846084
:103C4000E5CF8091CC058860E1CF8091CD05816082
:103C5000EDCF8091CD058260E9CF8091CC05806168
:103C6000D5CF8091CC058062D1CF8091CC05806486
:103C7000CDCF0E94FF188091CC058068C7CF80917E
:103C8000CC058C60C3CF8091CD058360CFCF809170
:103C9000CC058E7FBBCF8091CD05877FC7CF80912C
:103CA000CC058D7FB3CF8091CC058B7FAFCF80913A
:103CB000CC05877FABCF8091CD058E7FB7CF80912C
:103CC000CD058D7FB3CF8091CC058F7E9FCF809126
:103CD000CC058F7D9BCF8091CC058F7B97CF0E94A9
:103CE000FF188091CC058F7791CF8091CC05837F91
:103CF0008DCF8091CD058C7F99CF8091CC0582FBB3
:103D0000992790F921E0922790FB82F990FB83F9A3
:103D10007DCF8091CD05982F909591708E7F892BC6
:103D200090FB81F983CF9091CC05892F8F7B96FFF3
:103D300080646CCF0E94FF189091CC05892F97FB6F
:103D400087F9805863CF61E08EE090E00E944434B0
:103D50005FCF60E0F9CF9091CC05892F8F7E94FFE3
:103D6000806154CF9091CC05892F8E7F90FF816028
:103D70004DCF9091CD05892F877F93FF886056CFD7
:103D800006312CE7120709F09CC08091C6058A7A9B
:103D900091E0811101C090E09093BA05882331F041
:103DA00085E30E94660D0E94191248CE89E2F9CF80
:103DB00085E326CF8091C6058272F801E052F8476C
:103DC000E531F10508F0A9C0E956FB4C0C948033AD
:103DD0008091BE0580FF1EC0282F2E7F2093BE0538
:103DE0003091BF054091C0055091C1056091C20559
:103DF0007091C3058091C4059091C5050E940D1472
:103E00000E94A00A8091BD0581608093BD050E943B
:103E1000300A14CE81608093BE0561E08695869558
:103E20000E94E0160BCE4AE357E16EE277E10E9472
:103E3000AD0C04CE4EE257E16AE377E1F8CF4DE0F6
:103E400055E163E075E1F3CF43E055E16DE075E1E5
:103E5000EECF44E255E167E175E1E9CF47E155E195
:103E600064E275E1E4CF4EE355E161E375E1DFCF54
:103E700041E355E16EE375E1DACF4DE454E163E3EC
:103E800074E1D5CF43E354E16DE474E1D0CF61E058
:103E900081E0C6CF65E082E00E944717CFCD68E0A1
:103EA00086E0FACF6EE089E0F7CF64E18FE0F4CFEF
:103EB00067E185E1F1CF61E088E1B2CF62E289E1BB
:103EC000EBCF07373CE7130709F484C008378CE7CA
:103ED000180709F48CC00A35BCE71B0709F4A4C015
:103EE00008F087C00130FCE71F0709F49BC00330CE
:103EF0002CE7120709F490C001153CE71307C1F441
:103F00000E94FF18AFEFB4E3ECE0A150B040E040F6
:103F1000E1F700C000000E94170E07379CE7190761
:103F200009F461C082E00837ACE71A0709F45CC005
:103F3000F6018581E080F180882309F479C0C7010A
:103F40000E948011182F682FC7010E948B06B701AD
:103F5000812F0E9472110E945A08E82E192FD60153
:103F60001596BC9015971696AC90A2948FE0A82257
:103F70008091CB058770882309F1FB2CBB20F9F0D9
:103F8000892F807F803469F080E28E0D8830B0F018
:103F9000892F807E803229F4B1E0BE1578F4AA2002
:103FA00069F08091CD0582FF09C082E00E9421075F
:103FB0008091CB058770FF24F3948111F12CE12FC0
:103FC000E295EF70103C08F09AC0F0E0E455FB4C2D
:103FD0000C94803381E00E946F0643E062E081E050
:103FE0000E94F6062BCD81E00E947B06F6CF82E090
:103FF000F2CF0B358CE71807C9F00C359CE7190791
:1040000009F096CF8091CD0582FB882780F991E059
:1040100089270E948E108CCF6FEF7FEF80E090E0B9
:104020000E9462340E94301981E0F3CF80E0F1CF2A
:10403000C7010E94C206182F8ACF012F0F701031BE
:1040400010F00295007FBB20B9F0002369F080E2F8
:104050008E0D883010F0E11009C08091C605802BCC
:104060008093C6050E9419128E2D41C08091CE0505
:10407000802B8093CE05F6CF8E2D0E94B41800239E
:10408000F1F180E28E0D883010F0E11004C0802F35
:104090000E945F0706C000958091CE058023809323
:1040A000CE050E9419122BC0012F0F70107F103205
:1040B00011F00295007FEE2051F0E1E0EE1609F4D8
:1040C0006CC0BB2009F478C0AA20D1F1CDCF80917B
:1040D000CD0582FD31C0BB2069F0002339F080910D
:1040E000C605802B8093C6050E94191280E00E94AD
:1040F000451805C080E00E94B4180111C8CFFF2008
:10410000B1F08091CB0580FD12C0D60115961C92AE
:104110008695869586950E946F06C6010E946E1C44
:104120008091CB058695869586950E947B0660E0FA
:10413000C6010E94AB1193CCBB2099F0A11004C022
:10414000802F0E946B12DBCFF1E0AF12D8CF8091AD
:10415000C705902F9823091791F2802B8093C705EC
:10416000CECFA110CCCF802F0E9475129091C705A1
:10417000802F8923882329F0802F8095892380939D
:10418000C7058091C805902F9823992309F4B7CFCC
:10419000009508230093C805B2CFBB2029F025E085
:1041A0002A1508F4ACCFCCCF34E03A1508F4A7CFE9
:1041B000802F0E947512A3CFAA20D1F389E3E812C1
:1041C00009C09FEFA7EEB3E09150A040B040E1F7E7
:1041D00000C000008E2D0E94B41891CF812F8695CB
:1041E00086958370882369F0813009F088CF8E2D01
:1041F000912F9370B11002C080E090E00E94400DBA
:104200007ECF8E2D912F9370B11002C080E090E090
:104210000E941A0D74CF6B2D8E2D0E9480176FCFC8
:10422000812F8370811137C0B1102AC04E2D429565
:1042300046954770440F440F2E2D2F70042E01C059
:10424000220F0A94EAF79E2D9071992341F08FE096
:1042500090E001C0880F4A95EAF7982F909516953F
:1042600016951370123091F0892F822B133031F094
:104270008091C905113039F0292B82230E946906EB
:104280000E94090D3CCF822B892BF8CF292B8091DE
:10429000C9058227F3CFBB2069F110FFF1CF4E2D66
:1042A000429546954770440F440F2E2D2F70042ED3
:1042B00001C0220F0A94EAF79E2D9071992341F0D4
:1042C0008FE090E001C0880F4A95EAF7982F90950B
:1042D000169516951370123099F0892F822B133092
:1042E00031F08091CA05113041F0292B82230E94C0
:1042F0006C06C6CF823020F2D2CF822B892BF7CF2B
:10430000292B8091CA058227F2CF1F70BB2039F07C
:10431000812F0E946F068E2D0E946B12B1CF8E2DC1
:104320000E947512812F0E947B06AACFE2EFEE1643
:10433000A9F1EE1588F0F0EFEF16D9F021EFE216B3
:1043400009F443C0BB2009F462C0AA2009F45CC090
:104350008E2D0E94451894CF33EFE31631F184EF90
:10436000E81679F1B110F1CFA11060C0812F8F71E3
:10437000DACFBB2081F094E09A1508F481CF1F7149
:1043800081E090E0012E01C0880F0A94EAF7909135
:10439000CA058927ACCFA5E0AA16EFCF812F8F7170
:1043A000B110C1CF0E946F066BCF80E0BB2009F433
:1043B0009ECF1F7181E0012E01C0880F0A94EAF799
:1043C00096CF9091CD0592FD06C0812F8F71BB20B5
:1043D00009F4A9CFE7CFBB2061F0812F8F7192FF45
:1043E000E1CFB8E08B9F9001112423602093CB058F
:1043F000D9CF81E00E942107E1E0EA1508F040CF23
:1044000082E00E9421073CCF812F8F71CBCFAA2061
:1044100009F4ACCFF9E3EF1209C02FEF37EE83E0D8
:10442000215030408040E1F700C000008E2D0E94F6
:10443000B41826CFF801E851FC47E730F10508F041
:10444000D5CBE854FB4C0C948033F801E851FC4781
:10445000E730F105B0F31092B905C8019057839782
:1044600008F08ECC84E090E00E942E349093CD052D
:104470008093CC05F801E150F047E232F10508F0F5
:10448000C2CBE154FB4C0C94803380910F068031F9
:1044900078F480910E06882359F0E091D0052091A0
:1044A000CF0530910A064091090657E02E1301C04E
:1044B00008956E2F70E05E9FF0011124DF01AF526E
:1044C000BA4F14968C911497882361F111968C91B0
:1044D0001197831327C08C91841324C015968C9157
:1044E000159781111FC012968D919C91A0910B067A
:1044F000B0910C068A1B9B0B883C910598F4809127
:104500000F068F70806180930F06E952FA4F808109
:104510008F708061808389E096E00E946E1C0E940B
:1045200017070895FB013196E770C0CFADE0B0E00A
:10453000ECE9F2E20C94FD328C0186E0F801DE0138
:10454000189601900D928A95E1F7F8017080F58038
:10455000A280B380848199E0892E96E0992E6090A4
:104560000D06611018C0882399F0FF2009F413C1CB
:10457000C8010E94DA11882309F40DC187E0F8010F
:10458000A9E0B6E001900D928A95E1F70E944522DC
:10459000FF24F39453C0D0900E0620910B06309167
:1045A0000C06A501421B530BDD2009F4C4C0483C96
:1045B000510508F07AC0882359F380910A06C1801A
:1045C000E0900F06FFE0FE1508F459C0C81215C0B0
:1045D00080910906871111C0F1104BC08E2D8F708C
:1045E000806180930F0689E096E00E946E1C8091A6
:1045F0000F06F8018683F12C21C0F1103AC040E08B
:104600006C2D872D0E949E0F40E06C2D872D0E94FF
:104610009E0FF82E8111EFCF888599850E94CB11CE
:10462000292F22952F70903470F49F702230A0F0C3
:104630009923B1F0F8019681903190F48F2D2D9649
:10464000EEE00C9419332A5F2F70223068F0C80115
:104650000E946E1CFD2CF2CF992311F0882371F378
:10466000805E883058F3F3CF803F40F3815F823023
:10467000F9CF80910F06816080930F06BCCFC812DE
:104680003CC080910906871138C0F11036C0F8018E
:10469000E682C8010E946E1C87E0F801A9E0B6E03E
:1046A00001900D928A95E1F773CFE0900F06FFE03D
:1046B000FE1550F089E096E00E946E1C87E0F40140
:1046C00011928A95E9F797CF882309F461CF9091E9
:1046D0000A06F8018181981310C08091090687119C
:1046E0000CC0F1100AC0E682C8010E946E1C87E06F
:1046F000F40111928A95E9F74BCFC8010E94DA11B3
:10470000882309F448C0FF2009F445C080910F06B2
:10471000803208F433CF8091090690910A069A837B
:104720008983BC82AB826D821E82EF82CE010196AC
:104730000E946E1C23CF483C510508F0BFCF882350
:1047400009F426CFFF2039F190910A068181981350
:1047500018C080910906871114C080910F0680FD52
:104760009BCF803108F498CF8683807F803F09F407
:1047700090CF8681982F907F905F8F70892B868352
:1047800088CFC8010E94DA118111F8CE80910F06FE
:10479000816080930F06C8010E946E1CF9CEABE1C8
:1047A000B0E0E5EDF3E20C9408334E8B5F8B688F3D
:1047B000798F8A8F9B8F91111092CE051D8A86E08A
:1047C000FE017696DE011F9601900D928A95E1F723
:1047D0008B89882329F061E0CE010F960E94AB11EE
:1047E00087E0FE013F96DE01189601900D928A95B2
:1047F000E1F7CE0108960E94962281112BC087E036
:10480000FE013896DE01119601900D928A95E1F72E
:104810002091CF054091D0058C858823D9F030E0D8
:10482000C90101968770992750E084179507E9F030
:1048300097E0929FD001939FB00D1124AF52BA4FD1
:10484000FE01319601900D929A95E1F78093CF0584
:104850000E94170717E08091D0059091CF0589132A
:1048600012C06B96E3E00C9424330E94FF18109260
:10487000CF051092D00587E0E9E0F6E0DF011D9258
:104880008A95E9F7E7CF189FC00111248F529A4FFC
:104890000E949622882329F38091D00590E001960A
:1048A000877099278093D005D6CFA6E0B0E0EBE5DE
:1048B000F4E20C9407330E94AD168C0180917205CE
:1048C000909173058017910779F019821A820E94DE
:1048D000AD16BC0149815A8180E090E00E94CF234F
:1048E00010937305009372052696E4E00C9423332D
:1048F000A7E1B0E0EEE7F4E20C94FC321D861C86E2
:10490000FE013E9686E0DF011D928A95E9F78BE96C
:10491000E82E81E0F82E8E01045F1F4F9FE9C92E1B
:1049200091E0D92E3801AA24A394B12C35EA832E24
:1049300031E0932EF70181917F018F3F09F441C04F
:10494000F894E82FE295EF70F0E021A18F70A501B7
:1049500002C0440F551F8A95E2F7CA01922F982B87
:1049600091A392A18095892382A3789400C0EFE956
:10497000F1E031E0512C21912F3F09F494C0A22F96
:10498000A295AF70A05EB0E08C9190E02F7002C055
:10499000959587952A95E2F78170811184C0832FC0
:1049A000582A330F8E169F0631F7F7013197808111
:1049B0008F3F11F00E94750950EA5A95F1F7D8011E
:1049C0005C920F5F1F4FCE14DF0409F0B3CF48E0B5
:1049D00050E0B30180EE92E00E940A340091E902B7
:1049E00010E00D5C1A4F892B09F45FC088E0F301D9
:1049F000A0EEB2E001900D928A95E1F781E08093FC
:104A000019020E94AD1690931802809317028091AC
:104A10007005882309F4A2C01A8219821C821B82A5
:104A200080911C028A3008F062C048E653E1FE0122
:104A300031967F01BF01C8010E945410670188238D
:104A400009F47AC04EE153E1B701C8010E94541045
:104A5000882309F471C04CE752E1B701C8010E94F4
:104A60005410882309F468C04CE353E1B701C8012E
:104A70000E945410882309F45FC010921C02809198
:104A8000E80290E044E050E0B6018D5C9A4F0E944D
:104A90000A3421E020931602892B09F03FC0679663
:104AA000EFE00C94183380E07BCF809119028823CB
:104AB00009F4ADCF80911702909118020E94001C5A
:104AC000059708F4A4CF44E050E060EE72E0C8011E
:104AD0000E940A34892B41F084E0E0EEF2E0D80134
:104AE00001900D928A95E1F71092190290CF809172
:104AF0001402909115020E94001C843F914008F01E
:104B000094CF80911602882351F284E0FE01319601
:104B1000DF011D928A95E9F710921602E091E802F2
:104B2000F0E0ED5CFA4F89819A81AB81BC81808392
:104B30009183A283B383B3CF80911C028F3F39F45A
:104B40000E94AD169093150280931402DACF8F5F06
:104B500080931C028A3008F492CFF2CFE090E802F2
:104B6000F12CF701ED5CFA4F7F01F8018081918112
:104B7000A281B3818093550590935605A093570564
:104B8000B093580585E595E00E94F30E8093540597
:104B90008091590590915A05A0915B05B0915C05F3
:104BA000F70180839183A283B383C0905D05D09089
:104BB0005E05E0905F05F090600580911002909195
:104BC0001102A0911202B0911302C816D906EA068A
:104BD000FB06B1F0C0921002D0921102E0921202D4
:104BE000F09213020E94C70DC61AD70AE80AF90A02
:104BF000C0926C05D0926D05E0926E05F0926F0543
:104C00008BE0E1E6F5E0DE01119601900D928A95C8
:104C1000E1F78091610586958695F0906205E090B8
:104C20006305D090640500916A0510916B051092A0
:104C30006B05112309F433CF10FF0BC0998190FF4E
:104C40001CC09091BE0591609093BE0560E00E94EB
:104C5000E01611FF06C020E04D2D6E2D8F2D0E9415
:104C6000671412FF04C0002359F00E94C41613FFFA
:104C700016CF81E08093FC0212CF0E94A70AE9CFF1
:104C80000E94A00AF4CFCDB7DEB7A4970FB6F89470
:104C9000DEBF0FBECDBF85B7806885BF85B7806892
:104CA00085BF84B7877F84BF0FB6F894A89580919D
:104CB0006000886180936000109260000FBE80E801
:104CC00090E00FB6F89480936100909361000FBE5E
:104CD00083E799E09093E7018093E6010E94D40E68
:104CE0000E94430F8091E20084608093E2007894F8
:104CF00080913B05882399F08091E9001091EC00A8
:104D00001795112717958F70182B1092E900809135
:104D1000E80083FD0E9446191F701093E90082E0AD
:104D200084BD93E095BD9AEF97BD80936E0010927D
:104D30006C0510926D0510926E0510926F050E9421
:104D40000012811102C00E94331188EC90E0209182
:104D5000E30027FDB2C7AFE3BCE91197F1F700C04C
:104D600000000197009799F70E94D40E10923B051E
:104D70001092700510927105109213018BE18093CF
:104D80000E0180930F01809113018091130191E036
:104D90008927880F880F8093E90294E0981B9093ED
:104DA000E80284E90E94750986E60E94750987E990
:104DB0000E94750986EC0E9475090FE911E045EA29
:104DC000E42E41E0F42EF80181918F018F3F11F024
:104DD0000E947509E016F106B1F788E0E3E3F5E01B
:104DE000DF01682E1D926A94E9F7E0EEF2E0DF0140
:104DF0001D928A95E9F780E090E00E942E34853E6E
:104E00009E4F21F40E940012811163C065EE7EEF77
:104E100080E090E00E94623460E082E090E00E94D6
:104E2000443481E08093C90561E083E090E00E9412
:104E3000443460E074E184E090E00E94623460E019
:104E400086E090E00E94443460E087E090E00E94B9
:104E5000443440E050E0BA0188E090E00E945634CB
:104E600060E083E290E00E94443460E08CE090E0F7
:104E70000E94443460E08DE090E00E944434198246
:104E80001A821B821C821D821E821F82188648E0A5
:104E900050E067E170E0CE0101960E94343440E0BA
:104EA00050E0BA018FE190E00E94563480E00E9409
:104EB00015110E94331140E050E0BA018FE090E0FC
:104EC0000E94563440E050E0BA0183E190E00E9435
:104ED000563482E090E00E9420348093ED0284E01A
:104EE00090E00E942E349093CD058093CC050E94D3
:104EF0007824EFEFF6E721E0E150F0402040E1F7C1
:104F000000C000000E947824E091710511E0E127C3
:104F1000EE0FEE0FF0E0ED5CFA4F808181FF08C0EC
:104F20006FEF7FEF80E090E00E9462340E94170EE6
:104F300083E090E00E9420340E9469068091700511
:104F40008127880F8093220580E8809301030E94C7
:104F500006306BE070E089E39BE00E944B158823EC
:104F600009F443C08091220565E070E081FDDAC15B
:104F700084E39BE00E944B158823B9F16DE070E05B
:104F800082E29BE00E944B15882379F10E94C70DB5
:104F900069A37AA38BA39CA3DC01CB01805A954122
:104FA000AF4FBF4F8093260590932705A093280508
:104FB000B0932905E2E2F3E080E092E0DF019C019A
:104FC0001D9221503040E1F7F0930003E093FF027F
:104FD0008FEF9FEF909325058093240581E08093C8
:104FE0002D0580932A05109223058091EA028111F4
:104FF0009EC088E090E00E9428346B017C0183E22F
:1050000090E00E942034282F30E040E050E060E043
:1050100070E080E090E000E20E94BE33F22FA32E09
:10502000B42EB52FA62FE72F9701860140E050E060
:10503000BA01FC29A12AB22AB32BA42BE52B862B7B
:10504000972BF093BE05A092BF05B092C005B09318
:10505000C105A093C205E093C3058093C405909356
:10506000C5052091BD0523602093BD05F43008F0EF
:105070004CC025E02093BE051092BF052FEF209372
:10508000C00528E72093C1051092C20525E030E055
:105090004FEF58E760E07E2F0E940D1488E090E00B
:1050A0000E9428346B017C0183E290E00E9420344E
:1050B000282F30E040E050E060E070E080E090E0D9
:1050C00000E20E94BE335901B42FA52FF62FE72F1F
:1050D0009701860140E050E0BA01AC28B12AB22B1A
:1050E000A32BF42BE52B862B972BA092BE05B09219
:1050F000BF05B093C005A093C105F093C205E0932E
:10510000C3058093C4059093C5050E941B0A0E94A5
:10511000A00A0E94B40C8091BE0580FF05C060E02B
:10512000869586950E94E01681E08093EA02809140
:105130007005811102C00E94853184E191E0909355
:1051400095058093940522242394312C80913B056E
:10515000853049F480913B05853009F4E6C00E9412
:10516000FF180E94090D0E9478240EEE12E023E33E
:10517000E22E25E0F22ED701F80191918D9126EFD4
:1051800032E02E173F0709F407C19817B1F380905A
:105190007005D12C77247394D701CD907D01F8014F
:1051A00091908F019C1439F19C24B12CAA24A394D2
:1051B0008A2D89218823B9F08820A9F0B982DA8262
:1051C0000E94AD169C838B837D8291E08A2D8C2179
:1051D000811101C090E09E8349815A816B817C815D
:1051E0008D810E94CF23B394AA0CF6E0BF12E0CFCA
:1051F000F8013197C082D39498E0692ED610CCCFB5
:105200000E94E40DF090BC05F11038C1F0902D051E
:10521000F110CFC00E946A1586E0E3EBF5E0DE01F5
:10522000119601900D928A95E1F7C090B405009116
:10523000B5051091B605E090B705F090B80510924D
:10524000B5051092B6051092B7051092B805812FDA
:10525000802B882379F080913005909131050E9450
:10526000001C9C018091B1058111CBC22B3031050E
:1052700008F0CDC28E2D8F29882379F080912E05DC
:1052800090912F050E94001C9C018091B005811116
:10529000F6C22B30310508F0F8C28091B405C8126F
:1052A00016C08091B505882311F0801310C090912D
:1052B000B605992311F019130AC02091B8052111E0
:1052C00006C02091B705211102C0892B81110E94CF
:1052D000581786E0FE013196A3EBB5E001900D92E0
:1052E0008A95E1F70E94090D90913205891721F006
:1052F000809332050E94C70D80913B05843009F0F0
:1053000025CF83E08093E9008091E80082FF1ECFE3
:105310008091E80085FDF1C28091E8008B77809351
:10532000E80014CF8FE29BE025CE80913B058430CE
:1053300031F10E9458151092EB0248E150E060E410
:105340000FB6F894A895409360000FBE609360007C
:1053500083B7817F846083BF83B7816083BF789484
:10536000889583B78E7F83BF0FB6F894A8958091F8
:105370006000886180936000109260000FBE0E9400
:105380007824E3E3F5E0819181117AC48BE395E021
:105390008E179F07C1F7DECE9813F9CE0E945524D1
:1053A000F090BC05F11069C080912D05882309F4A7
:1053B00033CF80912B0590912C050E94001CC29741
:1053C00008F413C10E94AD1690932C0580932B0511
:1053D00082E293E0909300038093FF028091700536
:1053E000882309F44CC18EE491E00E946D168091EF
:1053F000010390E08E5D9C4F909300038093FF0229
:105400008DE591E00E946D1660E08CEB9BE00E94C0
:105410005B160E94090D182F117081FB662760F939
:1054200086EB9BE00E945B16612F8FEA9BE00E9457
:105430005B168091010390E0880F991F8E5D9C4F51
:10544000909300038093FF0260E087EA9BE00E9454
:105450005B168091CA050E945706823009F407C185
:1054600008F0C0C08111FFC060E082EA9BE00E94AA
:105470005B1681E00E942816B8C0F12C8091BB0514
:10548000E091BE05E695E695E81BE093FB028230CD
:1054900009F062C0F0E0E05BF44FE4910E2F10E001
:1054A00086EBC82E8AE0D82E8091FC02882361F01A
:1054B0001092FC020E94B9169093FA028093F902AE
:1054C0001092FE021092FD020E94B9169C0180917A
:1054D000F9029091FA02A901481B590B4F3F5F470F
:1054E00098F54091F8024423B1F01092F8024091EF
:1054F000F6025091F702241B350B2F3F3F4758F41B
:10550000405D5A485093F7024093F6022091BD0542
:1055100028602093BD05A090FD02B090FE02800F90
:10552000911F9093FA028093F90289EF92E0F601BD
:1055300009958091FD029091FE02892B29F4AB28F8
:1055400019F081E08093F80280912D05811131CF0F
:10555000FF2009F461CE5ECE863059F4F0E0E35BC3
:10556000F44FE4910E2F10E0B0E9CB2EBAE0DB2E21
:105570009BCF893061F4E695F0E0E65BF44FE4916F
:105580000E2F10E0AAECCA2EAAE0DA2E8DCF8F30B3
:1055900061F4E695F0E0E95BF44FE4910E2F10E042
:1055A000F8E0CF2EFBE0DF2E7FCF853159F4F0E01D
:1055B000EC5BF44FE4910E2F10E0E2E9CE2EEBE02D
:1055C000DE2E72CF00ED17E07EE8C72E79E0D72EF1
:1055D000883109F069CF08E210E065E1C62E6CE081
:1055E000D62E62CF833009F446C080912405909175
:1055F0002505892B91F080912D05882371F08091EC
:10560000230581110AC00E946A152091240530915A
:10561000250580E021153105C9F580912A058823EB
:1056200009F496CF0E94C70D69A37AA38BA39CA30C
:105630008091260590912705A0912805B091290514
:1056400029A13AA14BA15CA1281B390B4A0B5B0B8A
:10565000DA01C9018F3F9F4FAF4FBF4708F078CFA6
:105660000E94581575CF60E08DE99BE000CF60E0A7
:1056700089E99BE0FCCE60E084E99BE0F8CE60E045
:1056800084E59BE00E945B16B0CF8F5F082F10E08F
:105690006101082E02C0CC0CDD1C0A94E2F7A601C1
:1056A00042235323452B89F39091220590FD43C05B
:1056B00098013695279536952795922F8295880FD4
:1056C00080763FE1380F80932001209323013093AF
:1056D00021019093240124E630E047E050E06EE1A0
:1056E00071E088E70E943C30892B09F096CFA80131
:1056F00035E0440F551F3A95E1F78091220580FD72
:1057000022C04E5D5C4F04E610E020E230E060E431
:1057100088E70E94D430892B09F07FCFC094D094C1
:105720008091240590912505C822D922D092250583
:10573000C092240572CF880F880F880F37E0380F8A
:1057400020E093E0C0CFE2E0F3E080E2DF011D92D1
:105750008A95E9F709EA11E0E5EAF1E0FAA3E9A39D
:105760009DEA492E91E0592E27E0922ED801ED9125
:105770008D01A9A1BAA16D91BAA3A9A3640F752F38
:10578000711D6E5D7C4FF0E0EE5FFC4F20E030E07D
:10579000792C721AE22C022E01C0EE0C0A94EAF760
:1057A0005B0190E0D5018D915D018E21A72DA91B94
:1057B000A770B0E0682E0A2E01C0660C0A94EAF7C2
:1057C000B195A195B109A770BB2701C08695AA958F
:1057D000EAF78629A0818A2B80839F5F983011F792
:1057E0002F5F3F4F31962830310591F64016510614
:1057F00009F0BCCF04E610E020E230E042E053E0E4
:1058000086CF2531310508F435CD8F3F19F08F5FF4
:105810008093B105002359F00E94C40C9FEF10162D
:105820000CF491E0899F802D11248093B5051123FC
:1058300059F00E94C40C91E011160CF09FEF899F63
:10584000802D11248093B6058091B505882309F435
:1058500011CDD090B605DD2009F40CCD0E94B60C18
:10586000811101C081E08093B5058D2D0E94B60C99
:10587000882319F08093B605FDCC81E0FBCF21355C
:10588000310508F40ACD8F3F19F08F5F8093B00582
:10589000EE2059F00E94E40C9FEF1E140CF491E0EE
:1058A000899F802D11248093B705FF2059F00E9415
:1058B000E40C91E01F140CF09FEF899F802D1124C0
:1058C0008093B8058091B705882309F4E6CCF09061
:1058D000B805FF2009F4E1CC0E94B60C811101C08B
:1058E00081E08093B7058F2D0E94B60C882319F0B4
:1058F0008093B805D2CC81E0FBCF0E94A30E882311
:1059000079F08091E8008B778093E8008981EFEF50
:10591000E80FE33190F5F0E0EF51FB4C0C9480334D
:1059200080E2E82EF12C8E010F5F1F4F8091E8007E
:1059300085FD0AC08091E8008B778093E8000E9483
:10594000A30E882399F3DDCF8091F100D8018C93C9
:10595000B1E0EB1AF108E114F10499F20F5F1F4F67
:10596000E5CF1A828CE08B831AC08A81833049F19B
:1059700038F4813061F08230D9F08FEF89830FC025
:105980008430D9F71B821C821D821E8208C00E94AF
:10599000C70D0E9486336B837C838D839E8340E298
:1059A00050E0BE016F5F7F4F82E00E94EA0FCECBD6
:1059B00087E290E00E9420341B821C821D828E832D
:1059C000EECF8B8190E0DE011496883091053CF794
:1059D000FC01FF27ED5CFA4F20812D930196F5CF56
:1059E0008A81823049F0853041F68091BE0580FF82
:1059F00014C00E94A70AD3CF2B813C814D815E81C8
:105A000029A33AA34BA35CA3CA01B9010E94863320
:105A100087E290E00E944434C2CF81608093BE054B
:105A200060E0869586950E94E016B9CF4C816B8127
:105A30008A810E9443119827892798279E838D8306
:105A4000AECF2D813E813227232732274C816B81B7
:105A50008A810E94A510A3CF0E94CC10A0CF9A816A
:105A6000923009F08ACF8830E1F1893009F465C0BD
:105A70008B81833091F1B0F48130E9F0823009F00C
:105A80008ECF8C81882309F4B4CF8091BE058160CC
:105A90008093BE0560E0869586950E94E01660E0E2
:105AA0008C81C1CF843009F07ACF20E04091C105CC
:105AB0006D818C810FC08C8138E7839FC0011124D8
:105AC0006FEF70E00E94E532462F20E06091C00544
:105AD0008091BF050E94671462CF8C818093C205BC
