:100000000C9439060C9456060C9456060C94D23176
:100010000C9456060C9456060C9456060C945606F0
:100020000C9456060C9456060C94982E0C94702F33
:100030000C9499160C9456060C9456060C9456067D
:100040000C9456060C9456060C9456060C945606C0
:100050000C9456060C94742E0C9456060C9456066A
:100060000C9456060C9456060C9456060C945606A0
:100070000C9456060C9456060C9456060C94560690
:100080000C9456060C9456060C9456060C94560680
:100090000C9456060C9456060C9456060C94560670
:1000A0000C9456060C9456060C945606050109024B
:1000B000A10185020901A1000509190129081500FE
:1000C0002501950875018102050109300931158165
:1000D000257F95027508810609381581257F9501D0
:1000E00075088106050C0A38021581257F95017572
:1000F000088106C0C005010980A101850319012AF4
:10010000B700150126B700950175108100C0050CD8
:100110000901A101850419012AA002150126A002E6
:10012000950175108100C005010906A1018506052C
:100130000719E029E71500250195087501810205D9
:1001400007190029EF1500250195F07501810205B9
:10015000081901290595057501910295017503910D
:1001600001C00660FF0961A1010962150026FF00B8
:100170009520750881020963150026FF00952075FA
:10018000089102C005010906A101050719E029E748
:1001900015002501950875018102950175088101F9
:1001A0000507190029FF150026FF0095067508812F
:1001B000000508190129051500250195057501910E
:1001C00002950175039101C000AF00AE09025B000A
:1001D000030100A0FA090400000103010100092144
:1001E00011010001224400070581030800010904F0
:1001F0000100020300000009211101000122220078
:1002000007058203200001070503032000010904FC
:100210000200010300000009211101000122B600C3
:1002200007058403200001120100020000000853AA
:100230004601000100010200010C0343006F00723F
:10024000006E0065000000100366006F006F007311
:1002500000740061006E000000040309042B001408
:10026000001A00080015001700E10004001600073E
:100270000009000A00E0001D001B0006001900052F
:1002800000000000000000E300777C2C002A00132F
:100290000012000C0018001C00340033000F000E88
:1002A000000D000B00290038003700360010001147
:1002B00000000000000000E600787C280001001E1D
:1002C000001F0020002100220001002D002E002F21
:1002D000003000310001002900E700E2003900345D
:1002E000000000000000000100010001002A0027BA
:1002F0000026002500240023003F003E003D003C76
:10030000003B003A004500440043004200410040E9
:100310000000000000000001000100010001001EBB
:10032000021F0220022102220201002D022E022FB2
:10033000023002310201002900E300E600530034DC
:10034000020000000000000100010001002A002757
:10035000022602250224022302350235004F0052F4
:100360000051005000000046004E004B004D004A76
:10037000000000000000000100010001000000007A
:100380000000000000000000002078237829782574
:100390007827780000217824782A78267828780031
:1003A000000000000000000100010001004C0000FE
:1003B000000000AE00AB00A900000000000000A893
:1003C00000AC00AA000000000000000000000000D7
:1003D000000000000000000100010001000000001A
:1003E0000000003E5B4F5B3E003E6B4F6B3E001CCF
:1003F0003E7C3E1C00183C7E3C18001C577D571C60
:10040000001C5E7F5E1C0000183C180000FFE7C364
:10041000E7FF00001824180000FFE7DBE7FF0030CB
:10042000483A060E00262979292600407F0505074F
:1004300000407F05253F005A3CE73C5A007F3E1CA8
:100440001C0800081C1C3E7F0014227F2214005F41
:100450005F005F5F0006097F017F00006689956A83
:100460000060606060600094A2FFA2940008047EB7
:1004700004080010207E20100008082A1C0800082C
:100480001C2A0808001E10101010000C1E0C1E0C58
:100490000030383E383000060E3E0E0600000000E8
:1004A00000000000005F00000000070007000014CB
:1004B0007F147F1400242A7F2A1200231308646209
:1004C00000364956205000000807030000001C2297
:1004D0004100000041221C00002A1C7F1C2A000849
:1004E000083E08080000807030000008080808086E
:1004F000000000606000002010080402003E514926
:10050000453E0000427F40000072494949460021B3
:1005100041494D33001814127F10002745454539D5
:10052000003C4A4949310041211109070036494937
:10053000493600464949291E000000140000000009
:100540004034000000000814224100141414141454
:10055000000041221408000201590906003E415DD5
:10056000594E007C1211127C007F49494936003EE9
:1005700041414122007F4141413E007F494949417B
:10058000007F09090901003E41415173007F0808BD
:10059000087F0000417F4100002040413F01007F73
:1005A00008142241007F40404040007F021C027F2F
:1005B000007F0408107F003E4141413E007F090951
:1005C0000906003E4151215E007F09192946002697
:1005D000494949320003017F0103003F4040403F49
:1005E000001F2040201F003F4038403F0063140898
:1005F0001463000304780403006159494D4300006B
:100600007F41414100020408102000004141417F28
:100610000004020102040040404040400000030783
:100620000800002054547840007F284444380038A3
:100630004444442800384444287F00385454541813
:100640000000087E09020018A4A49C78007F08041A
:1006500004780000447D4000002040403D00007FC1
:10066000102844000000417F4000007C047804789A
:10067000007C0804047800384444443800FC182402
:1006800024180018242418FC007C080404080048DE
:10069000545454240004043F4424003C4040207C33
:1006A000001C2040201C003C4030403C00442810EE
:1006B0002844004C9090907C004464544C440000CA
:1006C00008364100000000770000000041360800B5
:1006D000000201020402003C2623263C0000000028
:1006E00000000000000E3FFFFFFFFFFEE080000063
:1006F0000000001EBE7FFFFFFEFEF0E0C080000E87
:10070000EFDFDEBE3C3870E0DDBB7B070E0E0C98E1
:10071000F0E0F0F0F8783C1C1E0E0E0F0F0F0F1FCC
:10072000FEFEF800000000000000000000000000D5
:1007300000000000000000000000000000000000B9
:1007400000000000000000000000000000000000A9
:100750000000000000000000000000E0F0F0F0E009
:10076000ECEEF7F37020007C7C7C7E007E7E7E7F4A
:100770007F7F000080C0E07E5B4F5BFEC00000C05A
:1007800000DCD7DEDEDED7DC00C0000000000000A9
:100790000000000000000000000000000000000059
:1007A0000000000000000001030F3FFFFFFFFEF804
:1007B000F0E0C0807FFFFEFDFB1B07070F1F1F1E21
:1007C0001D0B07010000000000000000E0F8FEFF24
:1007D000FF1F070101010306060C0C0C0C0C0E0791
:1007E00083C1E07030181C7CCC8CDCF8C0E0603039
:1007F00098D8F0600080C0E07030B8FCFC3C303825
:10080000F8F8F870008080C0E07038389CDCFC7C20
:1008100038000000000000000000000F1F3F7F7F35
:100820007F7F7F3F1E0C001F1F1F3F003F3F3F7F0A
:100830007F7F00307B7F7830202030787F3B000343
:10084000000F7F0F0F0F7F0F00030000000000005C
:100850000000000000000000000000000000000098
:100860000000000000000000000000000103071F5E
:100870003F3F7F7F7F7E7D3B170000000000000030
:10088000000000000000000000000000070F1F3FF4
:100890003F7E7C787070707070707838181C0E070E
:1008A0000F1F3F3C3838180C0603010101001E3FA2
:1008B0003331381E0F03393C0E07030100001E3F81
:1008C0003F3D1E0F0703030F1F3F39313131381CE5
:1008D0000E0000000000000000000000000000000A
:1008E0000000000000000000000000000000000008
:1008F00000000000000000000000000000000000F8
:1009000000000000000000000000000000000000E7
:10091000000000000000000000000000002223256D
:100920002628292A2C2D2F3032333536383A3B3DB4
:100930003E4042434547494A4C4E50515355575902
:100940005A5C5E6062646668696B6D6F717375771F
:10095000797B7D7F81838587898A8C8E909294961E
:10096000989A9C9E9FA1A3A5A7A8AAACAEAFB1B32D
:10097000B4B6B8B9BBBCBEBFC1C2C3C5C6C7C9CA7D
:10098000CBCCCDCED0D1D2D2D3D4D5D6D7D7D8D93F
:10099000D9DADADBDBDBDCDCDCDCDCDDDDDDDDDC9D
:1009A000DCDCDCDCDBDBDBDADAD9D9D8D7D7D6D5AF
:1009B000D4D3D2D2D1D0CECDCCCBCAC9C7C6C5C371
:1009C000C2C1BFBEBCBBB9B8B6B4B3B1AFAEACAABE
:1009D000A8A7A5A3A19F9E9C9A98969492908E8C6E
:1009E0008A89878583817F7D7B79777573716F6D48
:1009F0006B6968666462605E5C5A59575553515022
:100A00004E4C4A4947454342403E3D3B3A383635D5
:100A10003332302F2D2C2A292826252322FFAA7F86
:100A20005540000101010101010101010202020220
:100A30000202020202030303030303030304040488
:100A40000404040405050505050606060606070751
:100A500007070708080808090909090A0A0A0B0B09
:100A60000B0C0C0C0D0D0D0E0E0E0F0F0F101011A8
:100A7000111112121313141415151616171718182E
:100A800019191A1A1B1B1C1D1D1E1E1F2020212296
:100A900022232424252626272829292A2B2C2D2DDC
:100AA0002E2F30313232333435363738393A3B3CF9
:100AB0003D3E3F404142434445464748494A4C4DEC
:100AC0004E4F50515354555658595A5B5D5E5F61B5
:100AD0006264656668696B6C6D6F70727375777848
:100AE0007A7B7D7E8082838587888A8C8E8F9193A6
:100AF0009596989A9C9EA0A2A3A5A7A9ABADAFB1CD
:100B0000B3B5B7BABCBEC0C2C4C6C9CBCDCFD1D4B1
:100B1000D6D8DBDDDFE2E4E7E9EBEEF0F3F5F8FA57
:100B2000FDFF00DA0281FFD9F1DB20A4A62EAF0081
:100B3000A0C0D30000A1C8D30000AED580A81F403C
:100B40008D1420007F3F1F643214643214783C1EE1
:100B50001E140A05808182838485868788898A8B12
:100B60008C8D8E8F9091929394A0A1A2A3A4A5A600
:100B7000A7A8A9AAABACADAEAFB0B1B2B3B4C0C177
:100B8000C2C3C4C5C6C7C8C9CACBCCCDCECFD0D1CD
:100B9000D2D3D4004E554D4C4B002026200043505C
:100BA000534C4B004D6F64730053796D0046756E66
:100BB00063004D61696E004C61796572733A000A99
:100BC0000A0000000000000000000000000000001B
:100BD0000000000000000000000000000000000015
:100BE0000000000000007E0F00D4FFFFFFC70000E0
:100BF000007800000000000000002A2B2800000000
:100C000000000000000000000000000000290000BB
:100C100000002C1E3420212224342627252E362D98
:100C20003738271E1F202122232425263333362E32
:100C300037381F0405060708090A0B0C0D0E0F10A4
:100C40001112131415161718191A1B1C1D2F3130E9
:100C5000232D350405060708090A0B0C0D0E0F108D
:100C60001112131415161718191A1B1C1D2F3130C9
:100C7000354C11241FBECFEFDAE0DEBFCDBF11E04F
:100C8000A0E0B1E0E8EFF9E602C005900D92A43EC5
:100C9000B107D9F726E0A4EEB1E001C01D92AE3055
:100CA000B207E1F70E9456260C9480340C940000A1
:100CB000982F82958F70882311F0982F84E0292F28
:100CC00026952695222311F08E5F922F96959111ED
:100CD0008F5F08958093C70508958093C805089590
:100CE00021E030E001C0220F8A95EAF78091C80523
:100CF000822B0E946D06089521E030E0A90102C018
:100D0000440F551F8A95E2F7CA0180959091C80556
:100D100089230E946D060895292F983098F5863012
:100D200088F590E036E0239F800D911D1124282F37
:100D3000277041E001C0440F2A95EAF723E0969519
:100D400087952A95E1F7FC01EE0FFF1FE80FF91FC9
:100D5000E456FA4F20E030E070E05191DF01119746
:100D6000CB01022E02C0969587950A94E2F7817016
:100D700081958527842385278C932F5F3F4F2330D0
:100D8000310559F70895292F983078F5863068F5A0
:100D900090E036E0239F800D911D1124682F67702D
:100DA00023E0969587952A95E1F7FC01EE0FFF1F4A
:100DB000E80FF91FE456FA4F40E050E080E021913F
:100DC00030E0062E02C0369527950A94E2F721708E
:100DD0003327042E01C0220F0A94EAF7822B4F5FBB
:100DE0005F4F4330510559F7089580E00895909181
:100DF000C80521E030E0F90101C0EE0F8A95EAF75D
:100E0000D90102C0AA0FBB1F6A95E2F7EA2B01C005
:100E1000220F4A95EAF7892F8E23E81305C0892F00
:100E2000822B0E946D0608952095822F8923F9CF89
:100E30008091CE059091CD05981301C008958F5FE4
:100E40008770FACF9091C905809589238093C90551
:100E5000282F277021110DC0891759F09091CB05CB
:100E600092FF07C08695869586950E947C06109213
:100E7000C90508958091C4059091CC05892B5091A6
:100E8000C5055523C1F090914D019923A9F090918A
:100E9000CA0597FF11C09DE120EF31E040E0F90164
:100EA00060812F5F3F4F61114F5F9150C0F741113B
:100EB0001092C505852B089595E028EE31E0EECF20
:100EC000982F90958091C40589238093C405089537
:100ED000803E9105D1F1C8F48133910509F47FC0BA
:100EE00048F48932910509F46FC08A32910509F4FA
:100EF0007DC0089589339105E1F082389105C9F0EC
:100F00008533910509F45BC00895843E9105D1F1C4
:100F100048F4823E910531F1833E910541F181EE25
:100F200090E00895863E9105C1F1873E9105E1F17B
:100F300008952091CA052370211165C02091CB0529
:100F400023FF14C089E290E008952091CA0520FD96
:100F500043C03091CB0530FF09C024FF4EC080E074
:100F600090E008952091CA0522FDF7CF08952091C1
:100F7000CA0522FD45C03091CB0530FD44C024FF99
:100F8000F5CFEDCF2091CB0521FFF0CF8091CA05A1
:100F900084FDE5CF87EE90E008952091CA0523FFF8
:100FA000E5CF24FDDCCFF6CF2091CA0523FD2EC06E
:100FB0003091CB0531FFE3CF84EE90E0089520918E
:100FC000CA0525FFD3CFBECF2091CA0525FD21C07C
:100FD0002091CB0523FFCACF89E390E008952091AB
:100FE000CA0526FFC3CF8AE290E008952091CA0582
:100FF00026FFBCCF81E390E0089583EE90E0089552
:1010000082EE90E0089580EE90E0089586EE90E004
:10101000089585E390E0AACF9091CA0592FF10C091
:1010200041E0282F2471243009F040E031E0282FDE
:101030002871283009F030E0431711F02CE08227A6
:1010400093FF10C041E0282F2471243109F040E0C3
:1010500031E0282F2871283109F030E0431711F0D2
:101060002CE082273091CB0530FF10C051E0282FB3
:101070002171213009F050E041E0282F28712830FB
:1010800009F040E0541711F029E0822731FF10C029
:1010900041E0282F2171213109F040E031E0282F73
:1010A0002871283109F030E0431711F029E0822738
:1010B00094FD877E08951F93CF93DF930E94680766
:1010C000EC01811522E5920708F053C0811540E537
:1010D000940708F0DDC0803E9105F8F48D3C910541
:1010E00008F0AEC0883A910580F4853A910508F081
:1010F00099C08130910521F00497813A910550F40F
:10110000CE01DF91CF911F910895885A91094B9795
:1011100008F48BC0C0E0D0E0F3CF811550E4950710
:10112000F8F4C11580E2D80708F0CBC0C83ED1055D
:1011300038F3CE019A9581159F4160F78D2F0E945B
:101140000C08182FCE0199270E946807212F30E044
:10115000322F2227E901CC27DF71C82BD92BD0CF22
:1011600099270E946807CC27DF70C82BD92BD06A3B
:10117000C7CF803842E59407C8F5803652E5950719
:1011800008F067C0C03482E5D807B0F08C2F869590
:101190008695877020E2829FC0011124C37021E0F0
:1011A00030E0A90102C0440F551FCA95E2F7EA01D9
:1011B000C82BD92BDC68A4CFC03252E5D50708F084
:1011C00041C08C2F8695869520E2829FC001112414
:1011D000C37021E030E0A90102C0440F551FCA9539
:1011E000E2F7EA01C82BD92BDD688ACF803C52E5B3
:1011F000950760F48F71C03AD24508F03FC090E087
:10120000982F8827EC01C46FD06A7ACF805C924512
:10121000809708F07FCFDC2FCC27CC27DF71C06F01
:10122000D06A6ECFA497D0646BCFC85AD0E0CC0FF1
:10123000DD1FC255DE4F0990D881C02DD46460CF28
:10124000D0655ECFCF71D0E0DC2FCC27C16FD06AE4
:1012500057CF86958695877020E2829FC001112422
:10126000C37021E030E0A90102C0440F551FCA95A8
:10127000E2F7EA01C82BD92BDA6842CF0E940C08AA
:10128000C82FD0E0DC2FCC27CC27DF71D06238CF3D
:101290008F710E940C0865E0D695C7956A95E1F7B5
:1012A000CF70D0E0DC2FCC27282F30E084FF05C0A2
:1012B00054E0220F331F5A95E1F7C22BD32BD0698C
:1012C0001FCF8D2F8F710E940C08182FCE019927E8
:1012D0000E946807212F30E0322F222722273F71FA
:1012E000282B392BE901D2CF80E00895F894E82F1C
:1012F000E295EF70F0E041A18F7021E030E0B9019C
:1013000002C0660F771F8A95E2F7CB01962F909562
:10131000942391A392A1892B82A378940895089590
:10132000A0E0B0E0E6E9F9E00C940933E901E42F2C
:10133000F0E0EE5DF54F61110BC0E4919E2F8E2F12
:101340008983E8839A83CDB7DEB7EAE00C9425332E
:10135000282F30E0062F10E0F491EF2F86E0829FD7
:101360006001839FD00C1124EE24EA94F12CC60175
:10137000B7010E94ED32220F331F45E5469FC001A1
:10138000479F900D1124281B390B822F880F280F9F
:10139000C701801B910BF89FA001F99F500D1124EC
:1013A000952F209F5001219FB00C1124AB2CBB2402
:1013B000D701AA19BB095D01FA9DD001FB9DB00DB3
:1013C00011248B2F5701A21AB1089501209F5001BB
:1013D000219FB00C309FB00C1124AB2CBB24EA1819
:1013E000FB08FE9D9001FF9D300D112463307105B7
:1013F000C9F01CEFC11613E0D10650F4613071053D
:1014000009F49ECF6230710589F08E2FE32F98CFBB
:101410006430710571F066307105B9F3E52F9B2FCB
:101420008F2F8ECFEB2F852F9F2F8ACF852F932F36
:1014300087CF832FE52FF8CF8091BC05843060F4EF
:10144000837084608093BC058091BF05893718F054
:1014500088E78093BF0508958C38B0F3837088685F
:10146000F1CF60910F018091BC0580FF0EC070E04C
:1014700020910E0130E0C901880F991F820F931F40
:10148000845C9D4F0E94D00F08958091100190912F
:101490001101282F30E0F901EE0FFF1FE20FF31FBB
:1014A000E45CFD4F891718F71182108212828F5F5A
:1014B0003396F8CF9091BC0590FF11C09091100128
:1014C00050911101292F30E0F901EE0FFF1FE20FBB
:1014D000F31FE45CFD4F951718F00E94310A089540
:1014E0008183608342839F5F3396F5CFA3E0B0E0B2
:1014F000ECE7FAE00C9411339091BC0590FF0DC01D
:10150000493708F048E79E012F5F3F4F0E9490093E
:101510004B8169818A810E945A0A2396E2E00C94E9
:101520002D33CF93DF93EC01ECEBF5E04381628147
:101530008C810E94760A8C818F5F8C83DF91CF91A2
:101540000895E9EBF5E01182828184608283089539
:10155000ECEBF5E080818E7F80830E94A10AE9EBAD
:10156000F5E08281816082830E94310A0895CF93E1
:10157000DF93EC01EC81F0E0E35EF64F4491ECEB9D
:10158000F5E0628181810E94760A8C818F5F8C8375
:10159000DF91CF910895EF92FF921F93CF93DF9346
:1015A000EC0110E0EE24EA94F12C60911201161780
:1015B00070F00E94310A9A818C8190FF28C08F5F61
:1015C0008C83DF91CF911F91FF90EF9008958091D0
:1015D0001001810F9927991F9C01220F331F280F9B
:1015E000391F245C3D4F4091BF05493708F048E75B
:1015F00070E0C7010E945233962F8C816091BE0526
:10160000199F800D11240E9490091F5FCECF815039
:10161000D7CFA0E0B0E0EFE0FBE00C940833EC01A2
:10162000A09012018C819A8190FD0DC0BB24B394CF
:1016300081110DC08FEF8A0DBB24B39480933B02C0
:1016400081E08C8304C0BB24BA948823B9F3E12CD5
:10165000F12CEA14B8F00E94310A90913B02E1E0CB
:10166000BE1257C0809112018150992319F08FEF5B
:10167000890F91E080933B029C83CDB7DEB7EBE00E
:101680000C942433809110018E0D9F2D911D8C019F
:10169000000F111F080F191F045C1D4FF801118264
:1016A0001082128234E0C32ED12C912C80913B0207
:1016B000890D873354F166E30E944433892F082E45
:1016C000000C990B8E159F05A9F48091BF058C9D88
:1016D000A0018D9D500D1124559547955595479521
:1016E000493708F048E798016091BE058091BD0533
:1016F0000E9490099B0CF1E0CF1AD108C114D104CB
:10170000A9F68FEFE81AF80AA4CF87FFD8CF8A0D81
:10171000D6CF892F90E001966091120170E00E946F
:101720005233982FA7CF0F931F93CF93DF93EC01E2
:101730008C81811109C081E08C8310923A0292E081
:1017400090930201809301011091100120911101E9
:10175000812F90E0FC01EE0FFF1FE80FF91FE45C02
:10176000FD4F821750F100E060911201061758F109
:101770000E94310A8091010120913A02280F2093A2
:101780003A0290910201980F90930201191654F4B5
:10179000022E000C330B409112014150550B2417BF
:1017A000350734F0819580930101813009F41C8262
:1017B000DF91CF911F910F910895118210821282B3
:1017C0008F5F3396CECF202F30E070E0C9010E94AA
:1017D0005233810F90E040913A02042E000C550BD9
:1017E000FC01EE0FFF1FE80FF91F24173507C4F0A7
:1017F00040910201042E000C550B4217530784F050
:101800009F01245C3D4F4091BF05493708F048E7F0
:101810006091BE058091BD050E9490090F5FA4CF25
:10182000E45CFD4F118210821282F8CFAEE0B0E08E
:10183000ECE1FCE00C940D338D879E87AD85BE8571
:1018400014961C91212F30E0D9010E949D339B01F9
:10185000AC010E94B33369837A838B839C83E0E27B
:10186000F0E0E11BF109A5E5B0E09B01AC010E94AD
:10187000B33369877A878B879C879F01DF010E943A
:1018800095339B01AC010E94BE336D837E838F83B1
:1018900098879B01AC0189819A81AB81BC81280F1B
:1018A000391F4A1F5B1F69857A858B859C850E943D
:1018B0006633022F30E00A3248F5C901880F991FBC
:1018C000820F931F95958795F82EF09410E085E58B
:1018D000E82EE01A80911201181730F10E94310AA7
:1018E000ED85FE85948181E0992319F0903219F4F9
:1018F0008FEF8093000180910001890FAD85BE8537
:1019000014968C932E96E6E00C94293385E590E0AE
:10191000DC01A21BB30BCD01880F991F8A0F9B1FFF
:1019200097FFD0CF0196CECF8E2D11FD802F409105
:101930001001410F5527551F9A01220F331F240F05
:10194000351F245C3D4F4F2DB8E7BF1508F448E71D
:101950006091BE050E9490091F5FBCCFFA018823E9
:1019600011F009950895FB01FCCF539A0895282F93
:1019700035EB2303C001112497FF04C0805891095F
:10198000892F089580589F4FFBCF8091B00580FD2F
:1019900014C081FD14C082FD16C08091AF0588235C
:1019A00081F08E3180F420E5829FC00111246EE128
:1019B00070E00E945233862F089584E1089588E2F2
:1019C000089588E0089580E508958091B00580FD30
:1019D00017C081FD17C082FD19C08091AE05882314
:1019E00099F0883298F428E0829FC001112468E2BF
:1019F00070E00E9452336115710551F0862F0895F1
:101A000062E0FCCF64E0FACF61E0F8CF68E0F6CFA7
:101A100081E0089580916E05882359F0E091920548
:101A2000F0919305309729F00190F081E02D099510
:101A3000089580E00895A3E0B0E0E1E2FDE00C94B9
:101A400011339C01809132029091330282179307E7
:101A5000A1F03093330220933202E0919205F0918D
:101A60009305309751F083E089833B832A83008478
:101A7000F185E02DCE01019609952396E2E00C94C4
:101A80002D33A3E0B0E0E7E4FDE00C9411339C01BA
:101A9000809130029091310282179307A1F0309328
:101AA000310220933002E0919205F0919305309736
:101AB00051F084E089833B832A830084F185E02D03
:101AC000CE01019609952396E2E00C942D33909176
:101AD0004D019923C1F09091CA0597FF14C0E82FDA
:101AE000E695E695E695803FF8F4F0E0E251FE4F8A
:101AF000877021E030E001C0220F8A95EAF78281E9
:101B0000822B82830895A8EEB1E0EFEF90E02D9153
:101B1000821751F0EF3F19F4211101C0E92F9F5FA7
:101B20009630A9F7EF3F09F408950E2E000CFF0B35
:101B3000EA51FE4FE6CF90914D019923E1F090914B
:101B4000CA0597FF18C0E82FE695E695E695803F11
:101B5000F0F4F0E0E251FE4F877021E030E0A9019F
:101B600002C0440F551F8A95E2F7CA018095928101
:101B7000892382830895E8EEF1E09191891303C0EF
:101B8000DF0111971C9251E0EE3EF507B1F7089581
:101B9000A4E0B0E0EEECFDE00C9411338FB7F894C4
:101BA00020914E0530914F054091500550915105BF
:101BB00029833A834B835C838FBF69817A818B81D0
:101BC0009C812496E2E00C942D33A4E0B0E0EBEE8F
:101BD000FDE00C94113380916E05882371F00E9412
:101BE000C80D69837A838B839C8369817A818B8119
:101BF0009C812496E2E00C942D330E94C80D6983E9
:101C00007A838B839C8380916A0590916B05A09168
:101C10006C05B0916D0529813A814B815C81280F5B
:101C2000391F4A1F5B1F29833A834B835C83DDCFB7
:101C300087E797E7909301088093000888E19AE08E
:101C40000FB6F894A895809360000FBE9093600043
:101C5000FFCF80912F020895FC019B018091250206
:101C6000909126028617970740F0672B29F4809100
:101C7000E8008E778093E800C90140E0009741F4C6
:101C8000411106C08091E80082FF2FC080E00895D6
:101C9000209139052223A9F12530A9F12091E800EE
:101CA00023FD2DC02091E80022FDECCF2091E8001B
:101CB00020FFE4CF3091F3002091F200009719F05B
:101CC0002830310558F041E02830310509F040E076
:101CD0002091E8002E772093E800D0CF41914093E7
:101CE000F10001972F5F3F4FE9CF8091390588239D
:101CF00041F0853041F08091E80083FFC3CF81E05F
:101D0000089582E0089583E0089580911F0287FF7F
:101D100013C08091E80082FF06C08091E8008B77B5
:101D20008093E80004C0809139058111F2CF0895B5
:101D3000809139058823D9F38091E80080FFF8CF9E
:101D40008091E8008E77ECCF2091E4003091E5009F
:101D500095E6A9018091EC008170882331F0809193
:101D6000E80080FF06C080E008952091E80022FD91
:101D70001BC080913905882391F0853091F08091C6
:101D8000EB0085FD10C02091E4003091E500421782
:101D9000530701F391509111DCCF84E0089582E064
:101DA000089583E0089581E00895E8EDF0E08081F2
:101DB0008E7F80831092E2001092DA001092E10090
:101DC000A0EEB0E08C9181608C9380818F778083CE
:101DD00019BCA7EDB0E08C918E7F8C9380818F7EB3
:101DE000808310921E020895FC01AC014C5F5F4F8E
:101DF0008FEF91E32191822728E030E087FF0BC02D
:101E0000880F89272150310921153105B9F7E417C9
:101E1000F50781F70895880FF5CF9091EA02989F12
:101E2000C0011124811522E0920714F080E090E0B7
:101E3000805E9C4F9093E9028093E8020895982F6A
:101E4000E42FE2709093E900891308C0762F242FC5
:101E500050E0E11111C091E0980FF4CF7091EC00C7
:101E60002091ED005091F00021FD06C09F5F97305A
:101E700049F78093E90008953091EB003E7F30935D
:101E8000EB003091ED003D7F3093ED003091EB00A1
:101E900031603093EB007093EC002093ED00509391
:101EA000F0002091EE0027FDE1CF0895A0E0B0E022
:101EB000ECE5FFE00C940B33C8EDD0E088818F7E19
:101EC0008883E7EDF0E080818160808384E082BFD9
:101ED00081E080931E0288818E7F888302EE10E06D
:101EE000F80110821092DA0081EEC82ED12CF60192
:101EF000108288818F778883888180688883888131
:101F00008F7D888319BC1092390510921D021092A2
:101F1000ED0210921C0290EEE92EF12CF701808167
:101F20008B7F808388818160888342E060E080E0ED
:101F30000E941F0FF60180818E7F8083F8018081CF
:101F400081608083808188608083F70180818E7FBB
:101F50008083888180618883CDB7DEB7E8E00C9408
:101F60002733E091CE059091CD0527E0E91302C01B
:101F700080E00895AE2FB0E02E9FF0011124E153D0
:101F8000FA4F3181361306C03081381303C03581D2
:101F9000341304C0FD013196E770E8CF81E0089565
:101FA0009C01AB016BB1677F7BB17860EFB7F894B0
:101FB000CA01880F991F840F951F820F931F8217E4
:101FC000930741F4EFBF8FE594E00197F1F700C06C
:101FD00000000895D9014D919D0158E07BB90000A2
:101FE00000C047FF6BB9440F000000C000C000C034
:101FF0006BB900C05A9591F7E2CF0F931F93CF931F
:10200000DF93EB018A0190913905943079F5809343
:10201000E9008FEF9091E80095FD07C095ED9A9546
:10202000F1F7000081508111F5CF8091E80085FF24
:102030001DC00E94A40E811114C08091E80085FD8E
:1020400006C08091E8008E778093E800F2CF888107
:102050008093F100015011090115110511F021962D
:10206000ECCF8091E8008E778093E800DF91CF91EC
:102070001F910F910895CF93DF93D82FC92F48E078
:1020800050E0682F792F81E00E94FD0F88E0ED2F4E
:10209000FC2FA7E2B2E001900D928A95E1F7DF9163
:1020A000CF910895BC0140E250E084E00E94FD0F12
:1020B0000895BC0146E050E084E00E94FD0F0895C1
:1020C000BC0143E050E084E00E94FD0F0895A0E0D1
:1020D000B0E0EDE6F0E10C940933F82EE92EB62ECF
:1020E000A72E8A0180911A02CC24C394D12C8A3065
:1020F00018F48AE0C82ED12CC1E0D0E06B2D7A2DE7
:102100008F2D9E2DF8010995811116C02196CC16B0
:10211000DD0694F0CC9FC001CD9F900D900D112451
:1021200020E030E045E34A95F1F700002F5F3F4F94
:1021300028173907B9F7E2CFCDB7DEB7EAE00C943C
:1021400025339091CB0592FB222720F9281779F0AF
:1021500080FB92F99093CB056091CA057091CB05F5
:1021600084E090E00E946A3482E00E942207089591
:102170001F93CF93DF93962F122F632F8430D8F4C1
:102180009830C8F44630B8F4C42FD0E0CC0FDD1F2F
:102190002CE0929FC00DD11D112490E6899FC00DA7
:1021A000D11D1124CE0188960E944C34612FCE019E
:1021B00089960E944C34DF91CF911F910895AF9280
:1021C000BF92CF92DF92FF920F931F93CF93DF9333
:1021D000A12CB12C00E0650110E013C0FE01259197
:1021E00034914F2D612F802F0E94B8102296F394C6
:1021F00086E0F812F3CF86E0C80ED11C1F5F1830BE
:1022000039F0E601CC0FDD1FC35ADD4FF12CE6CFCC
:102210000F5F80E3A80EB11C0430E9F6DF91CF9187
:102220001F910F91FF90DF90CF90BF90AF900895D6
:10223000CF93DF93C8EAD1E060E0CE010E944C3436
:102240002196C11584E0D807B9F7DF91CF910895A1
:10225000882381F065E284E290E00E944C3463E0E0
:1022600085E290E00E944C3468E286E290E00E94B1
:102270004C3408956FEF84E290E00E944C346FEF8D
:1022800085E290E00E944C346FEFEFCF80E00E9437
:10229000281160E087E290E00E944C340E94DF1039
:1022A0000E94181181E00E94281108950F931F9336
:1022B000CF93DF93843030F5683020F5463010F549
:1022C000C42FD0E0CC0FDD1F2CE0629FC00DD11DCC
:1022D000112430E6839FC00DD11D1124CE018896B4
:1022E0000E942834082F10E0102F0027CE01899675
:1022F0000E9428349801282BC901DF91CF911F91AA
:102300000F91089580E090E0F8CF462F672F783046
:1023100038F4463028F4843018F40E945611089599
:1023200080E090E00895A0E0B0E0E9E9F1E10C94EC
:102330000C337C010091C8058091C705082BC3E0D0
:10234000D0E010E0C8010C2E02C0959587950A9444
:10235000E2F780FD09C02197A8F7D12C8D2DCDB7CC
:10236000DEB7E7E00C942833DC2EB7018C2F0E94F7
:1023700085110E945B08019771F3F0CF0F931F93B3
:10238000CF93FC01858100811181882391F0662320
:1023900081F0C8010E949311C82F682FC8010E94C4
:1023A0008C06B8018C2F0E948511CF911F910F913F
:1023B0000895C8010E94C306C82FF3CFCF93DF93BF
:1023C000D82FC92F0E9493116D2F7C2F0E94851149
:1023D0000E945B08DF91CF910895FC0184818823DE
:1023E000A1F0808191810E94DE11282F92959F702B
:1023F000963091F060F4925F9F70923030F481E0FB
:10240000203F79F030F4283E30F080E004C09A5F3D
:10241000F3CF243FD1F7089581E0283E18F0213F03
:10242000F9CF0895089584E290E00E94283485321F
:1024300089F485E290E00E942834833059F486E2E2
:1024400090E00E94283491E0883209F090E0892FD2
:102450008170089580E0FCCF80914D01882359F16F
:102460008091CA0587FF27C00E943A078093EF0139
:1024700040E250E062E775E08EEE91E00E94123497
:10248000892BC1F080E2EEEEF1E0A2E7B5E0019029
:102490000D928A95E1F7E0919205F09193053097BE
:1024A00049F086E08093EE010480F581E02D8EEE08
:1024B00091E0099508950E943A078093E60148E06B
:1024C00050E064E975E086EE91E00E941234892BB9
:1024D00089F388E0E6EEF1E0A4E9B5E001900D9221
:1024E0008A95E1F7E0919205F0919305309711F309
:1024F0000280F381E02D86EE91E0DBCF882339F076
:102500009091C405892B8093C4050E942C120895D4
:10251000882321F00E9460070E942C120895A8E0F1
:10252000B0E0E5E9F2E10C94103340913E055091A2
:102530003F0560914005709141052FB7F894809157
:102540004E0590914F05A0915005B09151052FBFB8
:10255000841B950BA60BB70B11E084369105A105E2
:10256000B10578F10E94E50DDC01CB010296A11DB9
:10257000B11D89839A83AB83BC8380913E01909186
:102580003F018E5A9A4F20913D01422F50E0253055
:1025900010F044E050E0BE016F5F7F4F0E941F3497
:1025A00083E090E00E947832182F882351F00E9437
:1025B000C80D60933E0570933F058093400590934E
:1025C0004105812F2896E3E00C942C33A0E0B0E085
:1025D000ECEEF2E10C940B33E82FEB01B901D801DA
:1025E000C880D980EA80FB808FB7F89400914E05AF
:1025F00010914F0520915005309151058FBF0C1956
:102600001D092E093F09043611052105310510F475
:10261000442309F10E2F0E2E000C110B88E0E80266
:10262000F0011124EB5DFE4F818192818E5A9A4F09
:10263000408150E0A417B50708F4AD010E941F3493
:10264000C8010E947832882339F00E94C80D68833F
:1026500079838A839B8381E0CDB7DEB7E8E00C9471
:1026600027330F931F93CF93DF93D82FC92F44E0C5
:1026700050E067E575E00E94123441E0892B09F4CF
:1026800040E004E010E02D2F3C2F62E475E082E092
:102690000E94E612DF91CF911F910F910895ABE058
:1026A000B0E0E5E5F3E10C940F3328E0ECEBF5E066
:1026B000CE010196DC0101900D922A95E1F730914F
:1026C000B9052091BA055091BB0539872A875B87E8
:1026D00041E09C01511101C040E00BE010E06AE3D1
:1026E00075E084E00E94E61281111092BB052B96E2
:1026F000E4E00C942B33EF92FF921F93CF93DF9380
:1027000000D000D00F92CDB7DEB77B0180E090E023
:102710000E947832182F81111AC010E0809146056E
:1027200090914705A0914805B0914905F701808334
:102730009183A283B383812F0F900F900F900F90FE
:102740000F90DF91CF911F91FF90EF9008958091AE
:102750002801482F50E0882311F041E050E06091BB
:10276000290170912A016E5A7A4FCE0105960E9476
:102770001F3440914A0550914B0560914C05709172
:102780004D052FB7F89480914E0590914F05A0917B
:102790005005B09151052FBF841B950BA60BB70BAD
:1027A00084369105A105B10538F483E595E00E94D2
:1027B000F40E9D818917B9F181E090E00E94783292
:1027C000882309F4AACF80913001482F50E085304A
:1027D00010F044E050E060913101709132016E5A86
:1027E0007A4FCE0101960E941F3483E595E00E9446
:1027F000F40E9D81891391CF0E94C80D60934A0504
:1028000070934B0580934C0590934D0589819A8177
:10281000AB81BC818093460590934705A093480502
:10282000B09349057BCF8091530590915405A091B9
:102830005505B091560589839A83AB83BC83E6CF57
:10284000A0E0B0E0E6E2F4E10C940B338901D42F70
:10285000C52F6B017C010E941C0AA8016D2F7C2FE3
:1028600088E090E00E945E3498014D2F5C2FB60105
:10287000C70100E20E94E133622F83E290E00E94F0
:102880004C34CDB7DEB7E8E00C9427338091C00517
:10289000833018F48F5F8093C0052091BC05309180
:1028A000BD054091BE055091BF056091C005709176
:1028B000C1058091C2059091C3050E94201408951E
:1028C0008091C005882319F081508093C005209124
:1028D000BC053091BD054091BE055091BF0560918A
:1028E000C0057091C1058091C2059091C3050E94F9
:1028F00020140895A3E0B0E0E0E8F4E10C9409337B
:10290000E82ED62EF42EB22E9091BC0590FF46C034
:102910003091BD05381308C08091BE05861304C0F0
:102920008091BF05841729F08091BB058260809358
:10293000BB05E92FE695E695AE2FB0E0A958BE4F4E
:102940008C918093B9059C7F943061F54F2D88E779
:102950008F1508F448E79E012F5F3F4F6D2D8E2D98
:102960000E9490094B8169818A810E945A0A3E2DFA
:102970003093BD05D092BE05F092BF05BB2071F02B
:102980002091BC056091C0057091C1054D2D5F2D52
:102990008091C2059091C3050E9420142396EAE01D
:1029A0000C942533823019F4F090BF05E0CF8630C7
:1029B000F9F28930E9F28931D1F6E9519E2F91700F
:1029C000A92EE695F0E0E35EF54FE491C12C0E2FC1
:1029D00010E060911201C61618F00E94310AC7CFAC
:1029E0002C2D30E0C09EC001C19E900D112470E0DE
:1029F0000E94ED328E2DA11017C0860F909110010C
:102A0000A901490F511D9A01220F331F240F351FB1
:102A1000245C3D4F4F2D98E79F1508F448E76D2D36
:102A20000E949009C394D5CF861BE8CFECEBF5E06C
:102A3000818121E043816281865F0E947A1408953A
:102A4000ECEBF5E0818121E0438162818A500E94B4
:102A50007A140895ECEBF5E0628121E1620F08F44D
:102A60006FEF21E0438181810E947A140895ECEB9D
:102A7000F5E0628121E1621B08F460E021E043811E
:102A800081810E947A140895ECEBF5E0438121E105
:102A9000420F08F44FEF21E0628181810E947A1495
:102AA0000895ECEBF5E0438121E1421B08F440E09E
:102AB00021E0628181810E947A140895AB0124E6AD
:102AC00030E0BC0188E70E948F309C0181E0232B1D
:102AD00009F080E0089580912B05882369F08091AA
:102AE0002805882349F062E070E08AEC91E00E94BA
:102AF0005E158111109228050895A4E0B0E0E3E886
:102B0000F5E10C94113380912B058823F9F00E9494
:102B1000C80DDC01CB01805A9541AF4FBF4F809368
:102B2000240590932505A0932605B0932705809151
:102B3000280581110BC062E070E088EC91E00E94F2
:102B40005E15882319F081E0809328052496E2E041
:102B50000C942D331F93CF93DF93982F162F81E082
:102B60009A3019F09D3039F480E00E943B16DF91D5
:102B7000CF911F910895C091E802D091E90286E0BB
:102B8000FE01A4E3B2E001900D928A95E1F7903E38
:102B900090F186E0FE0111928A95E9F7C091E80272
:102BA000D091E902111133C046E050E0BE0184E348
:102BB00092E00E9412349E0120523340892B91F5FD
:102BC0002A5F3F4F4091EA02642F70E0C9010E94E2
:102BD000ED32481B463010F4240F311D211572E0F0
:102BE000370710F020E030E0205E3C4F3093E902E0
:102BF0002093E802BCCFF6E09F9FB00111246352FE
:102C00007C4F46E050E0CE010E94FC33C7CF9E01CE
:102C10002A5F3F4FFE012E173F0731F280818095DA
:102C20008193F9CFC90145E0969587954A95E1F7DB
:102C300041E050E0BA0102C0660F771F8A95E2F7C3
:102C4000CB016091220570912305862B972BB9014A
:102C50006B5F7F4FE5E076956795EA95E1F702C0F7
:102C6000440F551F6A95E2F7842B952B909323050B
:102C700080932205A5CFCF93382FE091E802F09101
:102C8000E902E052F3402091EA02622F70E0CF01A6
:102C90000E94ED32281B822F332369F066E00E94E8
:102CA0003833C82FC15010F4CF91089560E080E20E
:102CB0000E94AA15F7CF9F01280F311D2115324020
:102CC00018F080E0E0E0F0E08E0F9F2F911D805E15
:102CD0009C4F9093E9028093E802E6CF1F93CF9335
:102CE000DF93EC01162FFE018491811104C0DF9166
:102CF000CF911F910895612F0E94AA152196F3CFBD
:102D00000F931F93CF93DF93EC01FC010190002000
:102D1000E9F78F0101501109C017D10728F0DF91A1
:102D2000CF911F910F91089560E089910E94AA159B
:102D3000F3CF1F921FB61F9211248F939F93AF93CF
:102D4000BF938091EC02811113C080914E05909148
:102D50004F05A0915005B09151054196A11DB11D9F
:102D600080934E0590934F05A0935005B093510565
:102D7000BF91AF919F918F911F901FBE1F9018958B
:102D80002FB7F89480914E0590914F05A091500572
:102D9000B09151052FBF089580916E05882319F0D9
:102DA0000E94C01608950E94E50DCB010895609120
:102DB000BC056695669570E04BE050E083E091E0DD
:102DC0000E940534892B19F481E08093BA050E9492
:102DD000CC169093FB028093FA028091BB0584602D
:102DE0008093BB0508959091BC0590FF42C0882355
:102DF00009F440C0833208F03FC08F73282F220FA0
:102E0000220F8091BC058370282B2093BC058091F4
:102E1000BB0581608093BB05662381F03091BD05C1
:102E20004091BE055091BF056091C0057091C105EC
:102E30008091C2059091C3050E9420146091BC0549
:102E40006695669570E04BE050E083E091E00E946B
:102E50000534892B99F00E94A10A81E08093FD023C
:102E600020E04091BF056091BE058091BD050E94A4
:102E70007A14089581E0C2CF82E2C0CF0E94D716B3
:102E8000ECCF8091BC05869586958F5F833208F0E4
:102E900081E061E00E94F31608959091BC0596953B
:102EA00096958FEF890F913009F482E261E00E94DC
:102EB000F31608959091BC0590FF09C096959695DC
:102EC000981728F0961718F40E944117089561E0AA
:102ED0000E94F31608950E94C0162091B305309108
:102EE000B405232B222321F080932E0590932F05E8
:102EF0002091B5053091B605232B222321F0809334
:102F00002C0590932D05E0919205F0919305309753
:102F100049F082E08093B1050680F781E02D81EBD6
:102F200095E009950895662309F44BC0E3E3E80FA3
:102F3000E33150F4F0E0EE57FB4C0C9488330E94E0
:102F4000C50C81958093B4050E946B1708950E946B
:102F5000C50CF8CF0E94C50C81958093B305F4CFC2
:102F60000E94C50CFACF0E94E50C8093B505ECCF0A
:102F70000E94E50C8195F9CF0E94E50C8195809324
:102F8000B605E2CF0E94E50CFACF815D990B21E0F6
:102F900030E001C0220F8A95EAF78091B205822BBA
:102FA0008093B205D1CF8091B00581608093B00548
:102FB000CBCF8091B0058260F9CF8091B00584605D
:102FC000F5CF4091B3058D3C59F48091B40587FF4E
:102FD0000DC01092B405442359F41092AF0508C0F7
:102FE0008E3C81F48091B40518169CF3442381F043
:102FF0008091B5059091B605892B8111A5CF1092CE
:10300000AE05A2CF8F3C41F447FFF0CF1092B3053D
:103010008091B4058823E0CF803D19F41416B4F3F1
:10302000E5CF9091B505893D29F41916FCF610926B
:10303000B505DCCF8A3D19F497FFD8CFF8CF909132
:10304000B6058B3D29F497FFD1CF1092B605CECFB0
:103050008C3D19F41916CCF3C9CF9FE2980F983024
:1030600090F4815D990B21E030E0B90102C0660F58
:10307000771F8A95E2F7CB0180959091B20589235D
:103080008093B205B3CF8D3D31F48091B0058E7F32
:103090008093B005ABCF8E3D21F48091B0058D7F3C
:1030A000F7CF8F3D09F0A2CF8091B0058B7FF0CF95
:1030B000CF93C82F8823B1F18CEF8C0F813AA0F504
:1030C00080914D01882301F18091CA0587FF1CC0C2
:1030D000EC2FE695E695E695F0E0E251FE4F828111
:1030E00090E04C2F477021E030E002C0220F331FE8
:1030F0004A95E2F782239323892B79F08C2F0E9443
:103100009B0D0E942C1209C0E8EEF1E08191C817D6
:10311000A9F321E0EE3EF207C9F78C2F0E94670D5C
:103120000E942C12CF91089580E28C0F883068F4B1
:10313000C77081E090E001C0880FCA95EAF7C0919E
:10314000C405C82BC093C405EBCF8BE58C0F83302F
:1031500038F42C2F2452330BC9010E941B0DE2CFEF
:10316000E8E5EC0FEB3150F4F0E0EE0FFF1FE25515
:10317000FE4F808191810E94410DD4CF83E38C0F5B
:10318000833180F661E08C2F0E949317CBCF882388
:1031900081F19CEF980F913A28F40E949B0D0E94B8
:1031A0002C12089590E2980F983050F4877091E0B7
:1031B00001C0990F8A95EAF7892F0E946007EFCF27
:1031C0009BE5980F933028F480E090E00E941B0D5F
:1031D000089598E5980F9B3128F480E090E00E94D4
:1031E000410D089593E3980F933118F460E00E9425
:1031F000931708951F93CF93DF93182FEB010E942D
:103200005818209739F4812F0E94C718DF91CF9169
:103210001F9108958FE99FE00197F1F700C000002A
:103220002197EFCF1092C40580914D01882339F189
:103230008091CA0587FF23C0E0EFF1E08EE1DF0156
:103240001D928A95E9F780E090E00E941B0D80E0D6
:1032500090E00E94410D1092CC050E942C1286E055
:10326000E1EBF5E0DF011D928A95E9F71092AF05D9
:103270001092AE051092B0050E946B170895E8EE0B
:10328000F1E086E0DCCF0E9412192FEF84E39CE08E
:10329000215080409040E1F700C0000088E19AE0B2
:1032A0000FB6F894A895809360000FBE90936000CD
:1032B000FFCFAAE2B0E0EFE5F9E10C9410338FE123
:1032C00092E0FC0101962091F100208322E08732F8
:1032D0009207B9F780912002893009F456C0C8F4EA
:1032E000823009F4B3C0833009F482C0813071F1B7
:1032F0008091E80083FFE7C080911F029091200237
:103300009A3008F0E0C0E92FF0E0EB56FB4C0C944B
:1033100088338A3009F489C08B3051F780911F02BD
:10332000813231F78091230290912402892B01F799
:103330008091E800877F8093E8000E94850E80914D
:10334000210280934D010E941219D2CF80911F0259
:10335000813A71F68091E800877F8093E800809140
:10336000230290912402892B61F060E080E090E0DC
:1033700070E00E942C0E8091E8008B778093E8002B
:10338000B7CF68E087E292E0F3CF80911F028132ED
:1033900009F0AECF80912302909124028D7F892B7A
:1033A00009F0A6CF8091E800877F8093E8008091A4
:1033B000E80082FF18C09091F3008091F20002971C
:1033C00031F48091F100813011F0863021F4809148
:1033D000F10080932F028091E8008B778093E800C2
:1033E0000E94850E85CF809139058111E0CF80CF75
:1033F00080911F02813A09F07BCF80912302909146
:103400002402892B09F074CF8091E800877F809394
:10341000E8008091E80080FFFCCF80914D0180930F
:10342000F1008091E8008E77D9CF80911F02813220
:1034300009F05ECF8091E800877F8093E8000E94CA
:10344000850E8091220280931B0252CF80911F0231
:10345000813A09F04DCF8091E800877F8093E800A2
:103460008091E80080FFFCCF80911B02D8CF80388C
:1034700089F0823841F5809123028F70873018F5EA
:103480008093E9008091EB0085FB882780F91092FA
:10349000E90006C080911C029091ED0291118260BA
:1034A0009091E800977F9093E8008093F10010924C
:1034B000F1008091E8008E7723C0811116C08091C1
:1034C0002102813011F18091E80083FF0AC08091D0
:1034D000E800877F8093E8008091EB008062809312
:1034E000EB00AA96E3E00C942C33823061F78091D4
:1034F0002102882389F01092E9008091E800877FFB
:103500008093E8000E94850EDECF81E0933009F0C1
:1035100080E08093ED02EFCF809123028F702FEF38
:10352000280F263080F68093E9002091EB0020FFE1
:10353000E2CF933031F48091EB0080628093EB0016
:10354000DACF9091EB0090619093EB0021E030E0B6
:10355000A90102C0440F551F8A95E2F74093EA0083
:103560001092EA008091EB008860E8CF8111ABCF28
:10357000109121021F778091E3008078812B809346
:10358000E3008091E800877F8093E8000E94850E29
:103590008091E80080FFFCCF8091E30080688093F9
:1035A000E30083E0111101C082E0809339058BCFE5
:1035B0008058823008F087CF40912102509122023A
:1035C0004C3D83E0580799F583E08A838AE289833A
:1035D0004FB7F894DE01139620E03EE051E2E32F6E
:1035E000F0E050935700849120FF03C082958F70C4
:1035F0003F5F8F708A30C8F0895C90E08D939D9317
:103600002F5F243161F74FBF8091E800877F80935F
:10361000E8006AE270E0CE0101960E942C0E8091D3
:10362000E8008B778093E8004ECF805DE6CF8091F5
:10363000230290912402252F33272330310509F4EA
:103640004AC078F52130310509F479C08BE590E066
:10365000ECECF1E02230310509F035CF2091E800A3
:10366000277F2093E80020912502309126028217BF
:10367000930708F49C0140E02115310509F064C06E
:10368000411162C08091E80082FDC9CF8091390567
:10369000882329F2853019F28091E80083FFF2CF68
:1036A000BECF2132310509F43BC02232310509F089
:1036B0000ACF8330910508F006CFFC01EE0FFF1F03
:1036C000E559FE4F0190F081E02D88599E4FDC01B5
:1036D0008C9190E011C0CA019927413089F0823065
:1036E0009105B1F0892B09F0EECEE9E5F2E0E49125
:1036F0008E2F90E0E9E5F2E0009709F4E4CEAECF3A
:10370000E7E4F2E0E4918E2F90E0E7E4F2E0F4CF1A
:10371000E9E3F2E0E4918E2F90E0E9E3F2E0ECCF10
:103720008330910508F0CFCEFC01EE0FFF1FEF585C
:10373000FE4F0190F081E02D89E090E08FCF82E193
:1037400090E0E7E2F2E08ACF80913905882309F41E
:1037500066CF853009F463CF8091E80083FD5FCFA9
:103760008091E80082FD8ECF8091E80080FF84CFB9
:103770009091F3008091F2002115310519F0883005
:10378000910550F041E0089709F040E08091E80091
:103790008E778093E80070CF44914093F10031968A
:1037A000215031090196E8CF803809F08CCE809104
:1037B000E800877F8093E80080911D028093F100EC
:1037C00078CE811180CE10912102123008F07BCE8C
:1037D0008091E800877F8093E80010931D020E948B
:1037E000850E1123D1F084E08093390542E061EC2D
:1037F00081E00E941F0F42E261EC84E00E941F0FF3
:1038000042E261EC82E00E941F0F42E260EC83E042
:103810000E941F0F8091390556CE8091E30087FDED
:10382000E2CF81E0E1CF9C014FB7F89480914E0543
:1038300090914F05A0915005B09151054FBF821B4B
:10384000930B08950F931F93CF93DF93C62FD42F1D
:10385000122F8823A9F06093B7050E94C016909399
:10386000190280931802C77081E001C0880FCA95C1
:10387000EAF70E947E12DF91CF911F910F91089578
:103880008091B705681336C0809118029091190293
:103890000E94131C883C910568F5CD130EC060E0B2
:1038A00070E0812F0E94FA18D77081E001C0880F64
:1038B000DA95EAF70E948812DECFC77001E0802F08
:1038C00001C0880FCA95EAF70E94881280E28D0F26
:1038D000883050F48D2F877001C0000F8A95EAF769
:1038E000802F0E947E12DBCF60E070E0812F0E946B
:1038F000FA18C1CFC77081E001C0880FCA95EAF7F6
:10390000D9CFA8E0B0E0E7E8FCE10C9404336C0107
:10391000DC0114968C91882309F4B4C061E0C601DF
:103920000E94BE118C01F6018581882309F495C59A
:10393000980137572038310508F09AC5003108F052
:1039400090C08FEF93E00E94283481118AC028EA4A
:10395000E22EFF24F394011153C01A821982FE0152
:10396000339686E0DF011D928A95E9F75701BFEF94
:10397000AB1ABB0AC7010E94283489831A828823A4
:1039800009F46FC0813009F081C087010E5F1F4FBD
:10399000C5010E9428348A83882309F462C09FEFFE
:1039A000980F9330E0F5E3E0EE0EF11CC8010E94A1
:1039B00028348B83882309F454C01C828E010F5F46
:1039C0001F4FD8018C91882389F2813009F0A1C062
:1039D00011968C911197813009F05AC05801B2E0CC
:1039E000AB0EB11CF801828160E070E0893311F404
:1039F00060E570E00E94FA1885010F5F1F4FE1CF6C
:103A0000E114F4E0FF0669F1C7010E942834970130
:103A10002F5F3F4F79018111F3CF01509CCF84304C
:103A2000B9F492E0E92EF12CC8010F5F1F4F0E94FC
:103A30002834E1E0F0E0EC0FFD1FEE0DFF1D808368
:103A4000882379F08C3731F4FE01EE0DFF1D1282D0
:103A50007801B4CFFFEFEF1AFF0A27E0E216F10476
:103A600019F78091C9058770882361F0D6011596F2
:103A70008C91882339F08091CB0582FF03C082E0CE
:103A80000E9422072896EFE00C942033750196CF10
:103A9000823049F45801F2E0AF0EB11C12968C91BD
:103AA0000E945818A9CF833049F45801B2E0AB0EF8
:103AB000B11CF80182810E94C7189ECF843019F092
:103AC0000F5F1F4F9ACF12962C910E5F1F4F80E011
:103AD00090E06AE0A8014F5F5F4F2053330B2A301C
:103AE000310558F0009709F488CFAFE9BFE011978E
:103AF000F1F700C000000197F5CF689FF001699FC2
:103B0000F00D1124C9018E0F9F1FF80121818A0138
:103B1000E1CFE82FF0E0EE50F44F6490282F269587
:103B20002695269530E0F901EE51F44FA490877068
:103B3000782EB12C082E02C0B594A7940A94E2F70F
:103B4000B1E0AB22BB24F901EE52F44F8490912CEA
:103B500002C0959487948A95E2F7E1E08E22992439
:103B6000F901EE53F44F5490A114B104C1F481143F
:103B7000910421F560E070E0862D0E94FA18E52D91
:103B8000F0E0072C02C0F595E7950A94E2F7E0FF14
:103B900034CF60E070E08CE20E94FA182ECF81EE04
:103BA0000E9458188114910449F460E070E0862D59
:103BB0000E94FA1881EE0E94C718E1CF86EE0E949B
:103BC000581860E070E0862D0E94FA1886EE0E9478
:103BD000C718AB28A1F2EECF26E241EE61EE0E94BB
:103BE000221C3FCF27E245EE65EEF9CF26E241EEFB
:103BF00060EEF5CF27E245EE64EEF1CF26E241EE2E
:103C000062EEEDCF27E245EE66EEE9CF28E241E035
:103C1000EBCF0631FCE71F0709F0DFC08091B80544
:103C20008111D9C089E20E949B0DD0C08091CA0544
:103C300081608093CA056091CA057091CB0584E0CC
:103C400090E00E946A340E9412190BCF8091CB053C
:103C500088608093CB05EFCF8091CA058260E9CF61
:103C60008091CA058460E5CF8091CA058860E1CF64
:103C70008091CB058160EDCF8091CB058260E9CF4B
:103C80008091CA058061D5CF8091CA058062D1CF6D
:103C90008091CA058064CDCF0E9412198091CA0517
:103CA0008068C7CF8091CA058C60C3CF8091CB0557
:103CB0008360CFCF8091CA058E7FBBCF8091CB052B
:103CC000877FC7CF8091CA058D7FB3CF8091CA050A
:103CD0008B7FAFCF8091CA05877FABCF8091CB051B
:103CE0008E7FB7CF8091CB058D7FB3CF8091CA05F2
:103CF0008F7E9FCF8091CA058F7D9BCF8091CA0513
:103D00008F7B97CF0E9412198091CA058F7791CF30
:103D10008091CA05837F8DCF8091CB058C7F99CF11
:103D20008091CA0582FB992790F921E0922790FBA8
:103D300082F990FB83F97DCF8091CB05982F9095E8
:103D400091708E7F892B90FB81F983CF9091CA056A
:103D5000892F8F7B96FF80646CCF0E9412199091FF
:103D6000CA05892F97FB87F9805863CF61E08EE001
:103D700090E00E944C345FCF60E0F9CF9091CA058B
:103D8000892F8F7E94FF806154CF9091CA05892F2F
:103D90008E7F90FF81604DCF9091CB05892F877FDB
:103DA00093FF886056CF06312CE7120709F09CC0BC
:103DB0008091C4058A7A91E0811101C090E09093CE
:103DC000B805882331F085E30E94670D0E942C120C
:103DD00048CE89E2F9CF85E326CF8091C40582726F
:103DE000F801E052F847E531F10508F0A9C0E156C5
:103DF000FB4C0C9488338091BC0580FF1EC0282F9B
:103E00002E7F2093BC053091BD054091BE05509199
:103E1000BF056091C0057091C1058091C205909168
:103E2000C3050E9420140E94A10A8091BB058160F5
:103E30008093BB050E94310A14CE81608093BC053B
:103E400061E0869586950E94F3160BCE4DE457E10E
:103E500061E477E10E94AE0C04CE41E457E16DE4E9
:103E600077E1F8CF40E255E166E175E1F3CF46E155
:103E700055E160E275E1EECF47E355E16AE275E1B5
:103E8000E9CF4AE255E167E375E1E4CF41E555E169
:103E900064E475E1DFCF44E455E161E575E1DACF33
:103EA00040E654E166E474E1D5CF46E454E160E6CF
:103EB00074E1D0CF61E081E0C6CF65E082E00E948E
:103EC0005A17CFCD68E086E0FACF6EE089E0F7CFF1
:103ED00064E18FE0F4CF67E185E1F1CF61E088E153
:103EE000B2CF62E289E1EBCF07373CE7130709F471
:103EF00084C008378CE7180709F48CC00A35BCE782
:103F00001B0709F4A4C008F087C00130FCE71F07B5
:103F100009F49BC003302CE7120709F490C0011587
:103F20003CE71307C1F40E941219AFEFB4E3ECE0D1
:103F3000A150B040E040E1F700C000000E94180E20
:103F400007379CE7190709F461C082E00837ACE73E
:103F50001A0709F45CC0F6018581E080F1808823AE
:103F600009F479C0C7010E949311182F682FC70167
:103F70000E948C06B701812F0E9485110E945B0868
:103F8000E82E192FD6011596BC9015971696AC9071
:103F9000A2948FE0A8228091C9058770882309F137
:103FA000FB2CBB20F9F0892F807F803469F080E200
:103FB0008E0D8830B0F0892F807E803229F4B1E0F8
:103FC000BE1578F4AA2069F08091CB0582FF09C064
:103FD00082E00E9422078091C9058770FF24F39434
:103FE0008111F12CE12FE295EF70103C08F09AC09E
:103FF000F0E0EC54FB4C0C94883381E00E94700696
:1040000043E062E081E00E94F7062BCD81E00E9450
:104010007C06F6CF82E0F2CF0B358CE71807C9F0AB
:104020000C359CE7190709F096CF8091CB0582FBF0
:10403000882780F991E089270E94A1108CCF6FEF2B
:104040007FEF80E090E00E946A340E94431981E093
:10405000F3CF80E0F1CFC7010E94C306182F8ACFAB
:10406000012F0F70103110F00295007FBB20B9F0C6
:10407000002369F080E28E0D883010F0E11009C055
:104080008091C405802B8093C4050E942C128E2D34
:1040900041C08091CC05802B8093CC05F6CF8E2D2E
:1040A0000E94C7180023F1F180E28E0D883010F0D5
:1040B000E11004C0802F0E94600706C00095809127
:1040C000CC0580238093CC050E942C122BC0012F9D
:1040D0000F70107F103211F00295007FEE2051F02A
:1040E000E1E0EE1609F46CC0BB2009F478C0AA2008
:1040F000D1F1CDCF8091CB0582FD31C0BB2069F0DD
:10410000002339F08091C405802B8093C4050E9460
:104110002C1280E00E94581805C080E00E94C71849
:104120000111C8CFFF20B1F08091C90580FD12C0F8
:10413000D60115961C928695869586950E947006E6
:10414000C6010E94811C8091C90586958695869539
:104150000E947C0660E0C6010E94BE1193CCBB2089
:1041600099F0A11004C0802F0E947E12DBCFF1E0F5
:10417000AF12D8CF8091C505902F9823091791F2DF
:10418000802B8093C505CECFA110CCCF802F0E946D
:1041900088129091C505802F8923882329F0802FCC
:1041A000809589238093C5058091C605902F98231B
:1041B000992309F4B7CF009508230093C605B2CF21
:1041C000BB2029F025E02A1508F4ACCFCCCF34E091
:1041D0003A1508F4A7CF802F0E948812A3CFAA20F7
:1041E000D1F389E3E81209C09FEFA7EEB3E0915045
:1041F000A040B040E1F700C000008E2D0E94C7181B
:1042000091CF812F869586958370882369F08130C0
:1042100009F088CF8E2D912F9370B11002C080E0ED
:1042200090E00E94410D7ECF8E2D912F9370B110A2
:1042300002C080E090E00E941B0D74CF6B2D8E2D8C
:104240000E9493176FCF812F8370811137C0B110F7
:104250002AC04E2D429546954770440F440F2E2D8F
:104260002F70042E01C0220F0A94EAF79E2D907140
:10427000992341F08FE090E001C0880F4A95EAF75A
:10428000982F9095169516951370123091F0892FEE
:10429000822B133031F08091C705113039F0292B72
:1042A00082230E946A060E940A0D3CCF822B892B32
:1042B000F8CF292B8091C7058227F3CFBB2069F166
:1042C00010FFF1CF4E2D429546954770440F440F95
:1042D0002E2D2F70042E01C0220F0A94EAF79E2D76
:1042E0009071992341F08FE090E001C0880F4A95CA
:1042F000EAF7982F9095169516951370123099F04D
:10430000892F822B133031F08091C805113041F094
:10431000292B82230E946D06C6CF823020F2D2CF95
:10432000822B892BF7CF292B8091C8058227F2CFCA
:104330001F70BB2039F0812F0E9470068E2D0E94C5
:104340007E12B1CF8E2D0E948812812F0E947C0692
:10435000AACFE2EFEE16A9F1EE1588F0F0EFEF1616
:10436000D9F021EFE21609F443C0BB2009F462C082
:10437000AA2009F45CC08E2D0E94581894CF33EF08
:10438000E31631F184EFE81679F1B110F1CFA11005
:1043900060C0812F8F71DACFBB2081F094E09A1535
:1043A00008F481CF1F7181E090E0012E01C0880FD9
:1043B0000A94EAF79091C8058927ACCFA5E0AA1620
:1043C000EFCF812F8F71B110C1CF0E9470066BCFDC
:1043D00080E0BB2009F49ECF1F7181E0012E01C057
:1043E000880F0A94EAF796CF9091CB0592FD06C00C
:1043F000812F8F71BB2009F4A9CFE7CFBB2061F0DB
:10440000812F8F7192FFE1CFB8E08B9F9001112433
:1044100023602093C905D9CF81E00E942207E1E003
:10442000EA1508F040CF82E00E9422073CCF812F9E
:104430008F71CBCFAA2009F4ACCFF9E3EF1209C0FA
:104440002FEF37EE83E0215030408040E1F700C08D
:1044500000008E2D0E94C71826CFF801E851FC47B6
:10446000E730F10508F0D5CBE054FB4C0C948833D1
:10447000F801E851FC47E730F105B0F31092B705B9
:10448000C8019057839708F08ECC84E090E00E949A
:1044900036349093CB058093CA05F801E150F0477C
:1044A000E232F10508F0C2CBE953FB4C0C9488339F
:1044B00080910D06803178F480910C06882359F0A4
:1044C000E091CE052091CD05309108064091070678
:1044D00057E02E1301C008956E2F70E05E9FF0012B
:1044E0001124DF01A153BA4F14968C91149788239D
:1044F00061F111968C911197831327C08C918413CD
:1045000024C015968C91159781111FC012968D911C
:104510009C91A0910906B0910A068A1B9B0B883CCE
:10452000910598F480910D068F70806180930D063F
:10453000EB52FA4F80818F708061808387E096E034
:104540000E94811C0E9418070895FB013196E770B4
:10455000C0CFADE0B0E0EFEAF2E20C9405338C019D
:1045600086E0F801DE01189601900D928A95E1F738
:10457000F8017080F580A280B380848197E0892E55
:1045800096E0992E60900B06611018C0882399F070
:10459000FF2009F413C1C8010E94ED11882309F41A
:1045A0000DC187E0F801A7E0B6E001900D928A9571
:1045B000E1F70E945822FF24F39453C0D0900C06D8
:1045C0002091090630910A06A501421B530BDD20FC
:1045D00009F4C4C0483C510508F07AC0882359F357
:1045E00080910806C180E0900D06FFE0FE1508F4FA
:1045F00059C0C81215C080910706871111C0F1106B
:104600004BC08E2D8F70806180930D0687E096E001
:104610000E94811C80910D06F8018683F12C21C037
:10462000F1103AC040E06C2D872D0E94B10F40E0A0
:104630006C2D872D0E94B10FF82E8111EFCF888548
:1046400099850E94DE11292F22952F70903470F4E5
:104650009F702230A0F09923B1F0F801968190313B
:1046600090F48F2D2D96EEE00C9421332A5F2F705D
:10467000223068F0C8010E94811CFD2CF2CF9923E2
:1046800011F0882371F3805E883058F3F3CF803FB8
:1046900040F3815F8230F9CF80910D068160809375
:1046A0000D06BCCFC8123CC080910706871138C0E8
:1046B000F11036C0F801E682C8010E94811C87E033
:1046C000F801A7E0B6E001900D928A95E1F773CF6B
:1046D000E0900D06FFE0FE1550F087E096E00E94A6
:1046E000811C87E0F40111928A95E9F797CF88231E
:1046F00009F461CF90910806F8018181981310C0E8
:104700008091070687110CC0F1100AC0E682C8012B
:104710000E94811C87E0F40111928A95E9F74BCF42
:10472000C8010E94ED11882309F448C0FF2009F454
:1047300045C080910D06803208F433CF8091070682
:10474000909108069A838983BC82AB826D821E8217
:10475000EF82CE0101960E94811C23CF483C510577
:1047600008F0BFCF882309F426CFFF2039F19091BC
:1047700008068181981318C080910706871114C01C
:1047800080910D0680FD9BCF803108F498CF868301
:10479000807F803F09F490CF8681982F907F905F33
:1047A0008F70892B868388CFC8010E94ED118111FB
:1047B000F8CE80910D06816080930D06C8010E949D
:1047C000811CF9CEABE1B0E0E8EEF3E20C941033DB
:1047D0004E8B5F8B688F798F8A8F9B8F9111109290
:1047E000CC051D8A86E0FE017696DE011F960190BB
:1047F0000D928A95E1F78B89882329F061E0CE013B
:104800000F960E94BE1187E0FE013F96DE011896CA
:1048100001900D928A95E1F7CE0108960E94A92297
:1048200081112BC087E0FE013896DE0111960190C0
:104830000D928A95E1F72091CD054091CE058C85AA
:104840008823D9F030E0C90101968770992750E09C
:1048500084179507E9F097E0929FD001939FB00DE0
:104860001124A153BA4FFE01319601900D929A95F1
:10487000E1F78093CD050E94180717E08091CE05DF
:104880009091CD05891312C06B96E3E00C942C3304
:104890000E9412191092CD051092CE0587E0E7E034
:1048A000F6E0DF011D928A95E9F7E7CF189FC00176
:1048B000112481539A4F0E94A922882329F38091C1
:1048C000CE0590E00196877099278093CE05D6CFCC
:1048D000A6E0B0E0EEE6F4E20C940F330E94C016BE
:1048E0008C0180917005909171058017910779F086
:1048F00019821A820E94C016BC0149815A8180E047
:1049000090E00E94E22310937105009370052696B3
:10491000E4E00C942B33A7E1B0E0E1E9F4E20C947D
:1049200004331D861C86FE013E9686E0DF011D9243
:104930008A95E9F78AE9E82E81E0F82E8E01045F76
:104940001F4F9EE9C92E91E0D92E3801AA24A394C5
:10495000B12C34EA832E31E0932EF70181917F014F
:104960008F3F09F441C0F894E82FE295EF70F0E032
:1049700021A18F70A50102C0440F551F8A95E2F74F
:10498000CA01922F982B91A392A18095892382A38B
:10499000789400C0EEE9F1E031E0512C21912F3FF5
:1049A00009F494C0A22FA295AF70A05EB0E08C91E4
:1049B00090E02F7002C0959587952A95E2F7817057
:1049C000811184C0832F582A330F8E169F0631F72A
:1049D000F701319780818F3F11F00E94760950EAEC
:1049E0005A95F1F7D8015C920F5F1F4FCE14DF0488
:1049F00009F0B3CF48E050E0B3018EED92E00E94A1
:104A000012340091E70210E00F5C1A4F892B09F471
:104A10005FC088E0F301AEEDB2E001900D928A959F
:104A2000E1F781E0809317020E94C016909316026E
:104A30008093150280916E05882309F4A2C01A8222
:104A400019821C821B8280911A028A3008F062C08F
:104A50004BE753E1FE0131967F01BF01C8010E947F
:104A600067106701882309F47AC041E353E1B70175
:104A7000C8010E946710882309F471C04FE852E111
:104A8000B701C8010E946710882309F468C04FE489
:104A900053E1B701C8010E946710882309F45FC081
:104AA00010921A028091E60290E044E050E0B601D4
:104AB0008F5C9A4F0E94123421E020931402892BBC
:104AC00009F03FC06796EFE00C94203380E07BCF85
:104AD00080911702882309F4ADCF8091150290913F
:104AE00016020E94131C059708F4A4CF44E050E07E
:104AF0006EED72E0C8010E941234892B41F084E00F
:104B0000EEEDF2E0D80101900D928A95E1F7109256
:104B1000170290CF80911202909113020E94131CF1
:104B2000843F914008F094CF80911402882351F281
:104B300084E0FE013196DF011D928A95E9F710921B
:104B40001402E091E602F0E0EF5CFA4F89819A816D
:104B5000AB81BC8180839183A283B383B3CF8091E7
:104B60001A028F3F39F40E94C0169093130280936B
:104B70001202DACF8F5F80931A028A3008F492CF44
:104B8000F2CFE090E602F12CF701EF5CFA4F7F01E3
:104B9000F80180819181A281B38180935305909324
:104BA0005405A0935505B093560583E595E00E9402
:104BB000F40E809352058091570590915805A0916D
:104BC0005905B0915A05F70180839183A283B3837D
:104BD000C0905B05D0905C05E0905D05F0905E05AF
:104BE00080910E0290910F02A0911002B0911102DB
:104BF000C816D906EA06FB06B1F0C0920E02D092A2
:104C00000F02E0921002F09211020E94C80DC61A23
:104C1000D70AE80AF90AC0926A05D0926B05E092B9
:104C20006C05F0926D058BE0EFE5F5E0DE01119685
:104C300001900D928A95E1F780915F0586958695A2
:104C4000F0906005E0906105D090620500916805E4
:104C50001091690510926905112309F433CF10FFF3
:104C60000BC0998190FF1CC09091BC0591609093FE
:104C7000BC0560E00E94F31611FF06C020E04D2D38
:104C80006E2D8F2D0E947A1412FF04C0002359F05C
:104C90000E94D71613FF16CF81E08093FD0212CF3A
:104CA0000E94A80AE9CF0E94A10AF4CFCDB7DEB7CF
:104CB000A4970FB6F894DEBF0FBECDBF85B780684E
:104CC00085BF85B7806885BF84B7877F84BF0FB6EF
:104CD000F894A8958091600088618093600010929C
:104CE00060000FBE80E890E00FB6F89480936100FA
:104CF000909361000FBE84E799E09093E501809363
:104D0000E4010E94D50E0E94560F8091E20084605B
:104D10008093E200789480913905882399F08091FE
:104D2000E9001091EC001795112717958F70182B3B
:104D30001092E9008091E80083FD0E9459191F70CC
:104D40001093E90082E084BD93E095BD9AEF97BD92
:104D500080936E0010926A0510926B0510926C059C
:104D600010926D050E941312811102C00E9446111B
:104D700088EC90E02091E30027FDA7C7AFE3BCE9F2
:104D80001197F1F700C000000197009799F70E9472
:104D9000D50E1092390510926E0510926F05109283
:104DA00013018BE180930E0180930F018091130119
:104DB0008091130191E08927880F880F8093E70283
:104DC00094E0981B9093E60284E90E94760986E6B7
:104DD0000E94760987E90E94760986EC0E9476098E
:104DE0000EE911E034EAE32E31E0F32EF80181916F
:104DF0008F018F3F11F00E947609E016F106B1F79E
:104E000088E0E1E3F5E0DF01682E1D926A94E9F79E
:104E1000EEEDF2E0DF011D928A95E9F780E090E087
:104E20000E943634853E9E4F21F40E941312811158
:104E300063C065EE7EEF80E090E00E946A3460E03F
:104E400082E090E00E944C3481E08093C70561E0ED
:104E500083E090E00E944C3460E074E184E090E0F4
:104E60000E946A3460E086E090E00E944C3460E08A
:104E700087E090E00E944C3440E050E0BA0188E0C6
:104E800090E00E945E3460E083E290E00E944C3447
:104E900060E08CE090E00E944C3460E08DE090E0B7
:104EA0000E944C3419821A821B821C821D821E822F
:104EB0001F82188648E050E067E170E0CE0101965D
:104EC0000E943C3440E050E0BA018FE190E00E9443
:104ED0005E3480E00E9428110E94461140E050E0BC
:104EE000BA018FE090E00E945E3440E050E0BA01E9
:104EF00083E190E00E945E3482E090E00E942834DA
:104F00008093EE0284E090E00E9436349093CB05CB
:104F10008093CA050E948B24EFEFF6E721E0E15071
:104F2000F0402040E1F700C000000E948B24E09197
:104F30006F0511E0E127EE0FEE0FF0E0EF5CFA4FA6
:104F4000808181FF08C06FEF7FEF80E090E00E94DA
:104F50006A340E94180E83E090E00E9428340E9478
:104F60006A0680916E058127880F8093200580E86E
:104F70008093EA020E940E306BE070E089E39BE0D0
:104F80000E945E15882309F443C08091200565E0E6
:104F900070E081FDDAC184E39BE00E945E15882306
:104FA000B9F16DE070E082E29BE00E945E1588231B
:104FB00079F10E94C80D69A37AA38BA39CA3DC019D
:104FC000CB01805A9541AF4FBF4F809324059093FA
:104FD0002505A0932605B0932705E0E2F3E080E0E5
:104FE00092E0DF019C011D9221503040E1F7F093E7
:104FF000E902E093E8028FEF9FEF909323058093FF
:10500000220581E080932B058093280510922105CD
:105010008091EB0281119EC088E090E00E943034C4
:105020006B017C0183E290E00E942834282F30E05D
:1050300040E050E060E070E080E090E000E20E943C
:10504000C633F22FA32EB42EB52FA62FE72F97012C
:10505000860140E050E0BA01FC29A12AB22AB32B14
:10506000A42BE52B862B972BF093BC05A092BD05B6
:10507000B092BE05B093BF05A093C005E093C105F3
:105080008093C2059093C3052091BB0523602093B4
:10509000BB05F43008F04CC025E02093BC0510920D
:1050A000BD052FEF2093BE0528E72093BF05109282
:1050B000C00525E030E04FEF58E760E07E2F0E940A
:1050C000201488E090E00E9430346B017C0183E280
:1050D00090E00E942834282F30E040E050E060E06B
:1050E00070E080E090E000E20E94C6335901B42FE6
:1050F000A52FF62FE72F9701860140E050E0BA0177
:10510000AC28B12AB22BA32BF42BE52B862B972BA3
:10511000A092BC05B092BD05B093BE05A093BF059B
:10512000F093C005E093C1058093C2059093C30539
:105130000E941C0A0E94A10A0E94B50C8091BC0525
:1051400080FF05C060E0869586950E94F31681E099
:105150008093EB0280916E05811102C00E948D3117
:1051600084E191E090939305809392052224239407
:10517000312C80913905853049F48091390585308D
:1051800009F4E6C00E9412190E940A0D0E948B24A5
:105190000FEE12E091E3E92E95E0F92ED701F80128
:1051A00091918D9127EF32E02E173F0709F407C147
:1051B0009817B1F380906E05D12C77247394D701A2
:1051C000CD907D01F80191908F019C1439F19C24C0
:1051D000B12CAA24A394892D8A218823B9F0882090
:1051E000A9F0B982DA820E94C0169C838B837D82EB
:1051F00091E08C2D8A21811101C090E09E8349812C
:105200005A816B817C818D810E94E223B394AA0C28
:10521000F6E0BF12E0CFF8013197C082D39488E066
:10522000682ED610CCCF0E94E50DF090BA05F11093
:1052300017C1F0902B05F110CFC00E947D1586E0BC
:10524000E1EBF5E0DE01119601900D928A95E1F710
:10525000C090B2050091B3051091B405E090B5057A
:10526000F090B6051092B3051092B4051092B505F2
:105270001092B605812F802B882379F080912E051E
:1052800090912F050E94131C9C018091AF05811104
:10529000C0C22B30310508F0C2C28E2D8F29882361
:1052A00079F080912C0590912D050E94131C9C0192
:1052B0008091AE058111EBC22B30310508F0EDC2B3
:1052C0008091B205C81216C08091B305882311F0F1
:1052D000801310C09091B405992311F019130AC0DE
:1052E0002091B605211106C02091B505211102C0FB
:1052F000892B81110E946B1786E0FE013196A1EB8C
:10530000B5E001900D928A95E1F70E940A0D909107
:105310003005891721F0809330050E94C80D8091D7
:105320003905843009F025CF83E08093E90080912E
:10533000E80082FF1ECF8091E80085FDE6C28091E3
:10534000E8008B778093E80014CF8FE29BE025CEB6
:1053500080913905843031F10E946B151092EC0276
:1053600048E150E060E40FB6F894A89540936000DF
:105370000FBE6093600083B7817F846083BF83B773
:10538000816083BF7894889583B78E7F83BF0FB683
:10539000F894A895809160008861809360001092D5
:1053A00060000FBE0E948B24E1E3F5E08191811142
:1053B0006FC489E395E08E179F07C1F7DECE98137F
:1053C000F9CE0E946824F090BA05F11048C080918F
:1053D0002B05882309F433CF8091290590912A0564
:1053E0000E94131CC29708F40AC10E94C016909331
:1053F0002A058093290580E00E940D0F80916E059B
:10540000882309F446C18EE491E00E94801681E071
:105410000E940D0F89E591E00E94801660E08FEBFD
:105420009BE00E946E1682E00E940D0F60E087EB09
:105430009BE00E946E168091C8050E94580682303B
:1054400009F41FC108F0C0C0811117C160E082EBF0
:105450009BE00E946E1681E00E943B16B8C0F12CC2
:105460008091B905E091BC05E695E695E81BE093CF
:10547000FC02823009F062C0F0E0E05BF44FE4919E
:105480000E2F10E0B7EBCB2EBAE0DB2E8091FD02A1
:10549000882361F01092FD020E94CC169093FB02CB
:1054A0008093FA021092FF021092FE020E94CC1624
:1054B0009C018091FA029091FB02A901481B590BB3
:1054C0004F3F5F4798F54091F9024423B1F01092A5
:1054D000F9024091F7025091F802241B350B2F3F3F
:1054E0003F4758F4405D5A485093F8024093F70202
:1054F0002091BB0528602093BB05A090FE02B090D0
:10550000FF02800F911F9093FB028093FA028AEFB3
:1055100092E0F60109958091FE029091FF02892B9D
:1055200029F4AB2819F081E08093F90280912B05D2
:10553000811152CFFF2009F482CE7FCE863059F4FC
:10554000F0E0E35BF44FE4910E2F10E0A1E9CA2EE6
:10555000AAE0DA2E9BCF893061F4E695F0E0E65BB5
:10556000F44FE4910E2F10E0FBECCF2EFAE0DF2E8B
:105570008DCF8F3061F4E695F0E0E95BF44FE49174
:105580000E2F10E0E9E0CE2EEBE0DE2E7FCF85314E
:1055900059F4F0E0EC5BF44FE4910E2F10E073E966
:1055A000C72E7BE0D72E72CF00ED17E06FE8C62E36
:1055B00069E0D62E883109F069CF08E210E056E1A3
:1055C000C52E5CE0D52E62CF833009F45EC083E047
:1055D0000E940D0F0E940A0D182F117081FB662783
:1055E00060F98EE99BE00E946E1660E08AE99BE01C
:1055F0000E946E16612F84E99BE00E946E168091D6
:10560000220590912305892B91F080912B05882309
:1056100071F08091210581110AC00E947D152091B1
:1056200022053091230580E021153105B9F58091DF
:105630002805882309F47ECF0E94C80D69A37AA3A8
:105640008BA39CA38091240590912505A09126050C
:10565000B091270529A13AA14BA15CA1281B390BC8
:105660004A0B5B0BDA01C9018F3F9F4FAF4FBF471A
:1056700008F060CF0E946B155DCF60E08DEA9BE083
:10568000E8CE60E089EA9BE0E4CE60E084EA9BE05B
:10569000E0CE60E084E59BE0B0CF8F5F082F10E0A4
:1056A0006101082E02C0CC0CDD1C0A94E2F7A601B1
:1056B00042235323452B89F39091200590FD43C04D
:1056C00098013695279536952795922F8295880FC4
:1056D00080763FE1380F809320012093230130939F
:1056E00021019093240124E630E047E050E06EE190
:1056F00071E088E70E944430892B09F098CFA80117
:1057000035E0440F551F3A95E1F78091200580FD63
:1057100022C0405E5C4F04E610E020E230E060E42E
:1057200088E70E94DC30892B09F081CFC094D094A7
:105730008091220590912305C822D922D092230579
:10574000C092220574CF880F880F880F37E0380F7A
:1057500020E093E0C0CFE0E0F3E080E2DF011D92C3
:105760008A95E9F708EA11E0E4EAF1E0FAA3E9A38F
:105770009CEA492E91E0592E27E0922ED801ED9116
:105780008D01A9A1BAA16D91BAA3A9A3640F752F28
:10579000711D605E7C4FF0E0E050FD4F20E030E096
:1057A000792C721AE22C022E01C0EE0C0A94EAF750
:1057B0005B0190E0D5018D915D018E21A72DA91B84
:1057C000A770B0E0682E0A2E01C0660C0A94EAF7B2
:1057D000B195A195B109A770BB2701C08695AA957F
:1057E000EAF78629A0818A2B80839F5F983011F782
:1057F0002F5F3F4F31962830310591F64016510604
:1058000009F0BCCF04E610E020E230E040E053E0D5
:1058100086CF2531310508F440CD8F3F19F08F5FD9
:105820008093AF05002359F00E94C50C9FEF10161E
:105830000CF491E0899F802D11248093B3051123EE
:1058400059F00E94C50C91E011160CF09FEF899F52
:10585000802D11248093B4058091B305882309F429
:105860001CCDD090B405DD2009F417CD0E94B70CF3
:10587000811101C081E08093B3058D2D0E94B70C8A
:10588000882319F08093B40508CD81E0FBCF213542
:10589000310508F415CD8F3F19F08F5F8093AE0569
:1058A000EE2059F00E94E50C9FEF1E140CF491E0DD
:1058B000899F802D11248093B505FF2059F00E9407
:1058C000E50C91E01F140CF09FEF899F802D1124AF
:1058D0008093B6058091B505882309F4F1CCF0904A
:1058E000B605FF2009F4ECCC0E94B70C811101C071
:1058F00081E08093B5058F2D0E94B70C882319F0A5
:105900008093B605DDCC81E0FBCF0E94A40E8823F6
:1059100079F08091E8008B778093E8008981EFEF40
:10592000E80FE33190F5F0E0E751FB4C0C9488333D
:1059300080E2E82EF12C8E010F5F1F4F8091E8006E
:1059400085FD0AC08091E8008B778093E8000E9473
:10595000A40E882399F3DDCF8091F100D8018C93B8
:10596000B1E0EB1AF108E114F10499F20F5F1F4F57
:10597000E5CF1A828CE08B831AC08A81833049F18B
:1059800038F4813061F08230D9F08FEF89830FC015
:105990008430D9F71B821C821D821E8208C00E949F
:1059A000C80D0E948E336B837C838D839E8340E27F
:1059B00050E0BE016F5F7F4F82E00E94FD0FD9CBA8
:1059C00087E290E00E9428341B821C821D828E8315
:1059D000EECF8B8190E0DE011496883091053CF784
:1059E000FC01FF27EF5CFA4F20812D930196F5CF44
:1059F0008A81823049F0853041F68091BC0580FF74
:105A000014C00E94A80AD3CF2B813C814D815E81B6
:105A100029A33AA34BA35CA3CA01B9010E948E3308
:105A200087E290E00E944C34C2CF81608093BC0535
:105A300060E0869586950E94F316B9CF4C816B8104
:105A40008A810E9456119827892798279E838D83E3
:105A5000AECF2D813E813227232732274C816B81A7
:105A60008A810E94B810A3CF0E94DF10A0CF9A8134
:105A7000923009F08ACF8830E1F1893009F465C0AD
:105A80008B81833091F1B0F48130E9F0823009F0FC
:105A90008ECF8C81882309F4B4CF8091BC058160BE
:105AA0008093BC0560E0869586950E94F31660E0C1
:105AB0008C81C1CF843009F07ACF20E04091BF05BE
:105AC0006D818C810FC08C8138E7839FC0011124C8
:105AD0006FEF70E00E94ED32462F20E06091BE052E
