:100000000C9438060C9455060C9455060C94CC317F
:100010000C9455060C9455060C9455060C945506F4
:100020000C9455060C9455060C94922E0C946A2F41
:100030000C9498160C9455060C9455060C94550681
:100040000C9455060C9455060C9455060C945506C4
:100050000C9455060C946E2E0C9455060C94550673
:100060000C9455060C9455060C9455060C945506A4
:100070000C9455060C9455060C9455060C94550694
:100080000C9455060C9455060C9455060C94550684
:100090000C9455060C9455060C9455060C94550674
:1000A0000C9455060C9455060C945506050109024E
:1000B000A10185020901A1000509190129081500FE
:1000C0002501950875018102050109300931158165
:1000D000257F95027508810609381581257F9501D0
:1000E00075088106050C0A38021581257F95017572
:1000F000088106C0C005010980A101850319012AF4
:10010000B700150126B700950175108100C0050CD8
:100110000901A101850419012AA002150126A002E6
:10012000950175108100C005010906A1018506052C
:100130000719E029E71500250195087501810205D9
:1001400007190029EF1500250195F07501810205B9
:10015000081901290595057501910295017503910D
:1001600001C00660FF0961A1010962150026FF00B8
:100170009520750881020963150026FF00952075FA
:10018000089102C005010906A101050719E029E748
:1001900015002501950875018102950175088101F9
:1001A0000507190029FF150026FF0095067508812F
:1001B000000508190129051500250195057501910E
:1001C00002950175039101C000AF00AE09025B000A
:1001D000030100A0FA090400000103010100092144
:1001E00011010001224400070581030800010904F0
:1001F0000100020300000009211101000122220078
:1002000007058203200001070503032000010904FC
:100210000200010300000009211101000122B600C3
:1002200007058403200001120100020000000853AA
:100230004601000100010200010C0343006F00723F
:10024000006E0065000000100366006F006F007311
:1002500000740061006E000000040309042B001408
:10026000001A00080015001700E10004001600073E
:100270000009000A00E0001D001B0006001900052F
:1002800000000000000000E300777C2C002A00132F
:100290000012000C0018001C00340033000F000E88
:1002A000000D000B00290038003700360010001147
:1002B00000000000000000E600787C280001001E1D
:1002C000001F0020002100220001002D002E002F21
:1002D000003000310001002900E700E2003900345D
:1002E000000000000000000100010001002A0027BA
:1002F0000026002500240023003F003E003D003C76
:10030000003B003A004500440043004200410040E9
:100310000000000000000001000100010001001EBB
:10032000021F0220022102220201002D022E022FB2
:10033000023002310201002900E300E600390034F6
:10034000020000000000000100010001002A002757
:10035000022602250224022302350235004F0052F4
:100360000051005000000046004E004B004D004A76
:10037000000000000000000100010001000000007A
:100380000000000000000000002078237829782574
:100390007827780000217824782A78267828780031
:1003A000000000000000000100010001004C0000FE
:1003B000000000AE00AB00A900000000000000A893
:1003C00000AC00AA000000000000000000000000D7
:1003D000000000000000000100010001000000001A
:1003E0000000003E5B4F5B3E003E6B4F6B3E001CCF
:1003F0003E7C3E1C00183C7E3C18001C577D571C60
:10040000001C5E7F5E1C0000183C180000FFE7C364
:10041000E7FF00001824180000FFE7DBE7FF0030CB
:10042000483A060E00262979292600407F0505074F
:1004300000407F05253F005A3CE73C5A007F3E1CA8
:100440001C0800081C1C3E7F0014227F2214005F41
:100450005F005F5F0006097F017F00006689956A83
:100460000060606060600094A2FFA2940008047EB7
:1004700004080010207E20100008082A1C0800082C
:100480001C2A0808001E10101010000C1E0C1E0C58
:100490000030383E383000060E3E0E0600000000E8
:1004A00000000000005F00000000070007000014CB
:1004B0007F147F1400242A7F2A1200231308646209
:1004C00000364956205000000807030000001C2297
:1004D0004100000041221C00002A1C7F1C2A000849
:1004E000083E08080000807030000008080808086E
:1004F000000000606000002010080402003E514926
:10050000453E0000427F40000072494949460021B3
:1005100041494D33001814127F10002745454539D5
:10052000003C4A4949310041211109070036494937
:10053000493600464949291E000000140000000009
:100540004034000000000814224100141414141454
:10055000000041221408000201590906003E415DD5
:10056000594E007C1211127C007F49494936003EE9
:1005700041414122007F4141413E007F494949417B
:10058000007F09090901003E41415173007F0808BD
:10059000087F0000417F4100002040413F01007F73
:1005A00008142241007F40404040007F021C027F2F
:1005B000007F0408107F003E4141413E007F090951
:1005C0000906003E4151215E007F09192946002697
:1005D000494949320003017F0103003F4040403F49
:1005E000001F2040201F003F4038403F0063140898
:1005F0001463000304780403006159494D4300006B
:100600007F41414100020408102000004141417F28
:100610000004020102040040404040400000030783
:100620000800002054547840007F284444380038A3
:100630004444442800384444287F00385454541813
:100640000000087E0902001824241C78007F08049A
:1006500004780000447D4000002040403D00007FC1
:10066000102844000000417F4000007C047804789A
:10067000007C08040478003844444438007C182482
:10068000241800182424187C007C0804040800485E
:10069000545454240004043F4424003C4040207C33
:1006A000001C2040201C003C4030403C00442810EE
:1006B0002844004C9090907C004464544C440000CA
:1006C00008364100000000770000000041360800B5
:1006D000000201020402003C2623263C0000000028
:1006E00000000000000000000000000000C0E0F07A
:1006F000F8F81800C0F0FCFEFFFFFFFFFFFFFF7ED1
:10070000000000000000000000008080E0E0606069
:1007100060608080000000008080E0E060606060D9
:100720008080000000008080E0E0606060606060C9
:100730008080000000008080E0E060608080E0E079
:100740006060808000008080E0E0606060606060E9
:100750006060808000000000000000E0F0F0F0E049
:10076000ECEEF7F37020007C7C7C7E007E7E7E7F4A
:100770007F7F000080C0E07E5B4F5BFEC00000C05A
:1007800000DCD7DEDEDED7DC00C0000000000000A9
:100790000000000000000000000000000000000059
:1007A000000000000000F8FCFEFFE000FFFFFFFF7C
:1007B000FFFF80FFFFFFFFFFFFFFFFFF1F0701009D
:1007C00000000000000000007E7EFFFF81817E7E31
:1007D0006666818100007E7EFFFF81817E7E7E7E57
:1007E00081817E7E0000FFFFFFFF0000E6E6868637
:1007F000797986860000FFFFFFFF0000F9F9E7E73F
:100800000000FFFF0000FFFFFFFF00006666666656
:100810007E7E8181000000000000000F1F3F7F7F6F
:100820007F7F7F3F1E0C001F1F1F3F003F3F3F7F0A
:100830007F7F00307B7F7830202030787F3B000343
:10084000000F7F0F0F0F7F0F00030000000000005C
:100850000000000000000000000000000000000098
:10086000000000000000030F1F3F3F3F3F1F1F3FDE
:100870003F7F7F7F3F3F1F3F7F7F7F7F7C78783840
:100880001C0F000000000000000001010707060621
:100890000606010100000000010107070606060622
:1008A000010100000000010107070606010107071A
:1008B00006060101000001010707060601010707FE
:1008C00006060101000001010707060606060606E6
:1008D000060601010000000000000000000000000A
:1008E0000000000000000000000000000000000008
:1008F00000000000000000000000000000000000F8
:1009000000000000000000000000000000000000E7
:10091000000000000000000000000000002223256D
:100920002628292A2C2D2F3032333536383A3B3DB4
:100930003E4042434547494A4C4E50515355575902
:100940005A5C5E6062646668696B6D6F717375771F
:10095000797B7D7F81838587898A8C8E909294961E
:10096000989A9C9E9FA1A3A5A7A8AAACAEAFB1B32D
:10097000B4B6B8B9BBBCBEBFC1C2C3C5C6C7C9CA7D
:10098000CBCCCDCED0D1D2D2D3D4D5D6D7D7D8D93F
:10099000D9DADADBDBDBDCDCDCDCDCDDDDDDDDDC9D
:1009A000DCDCDCDCDBDBDBDADAD9D9D8D7D7D6D5AF
:1009B000D4D3D2D2D1D0CECDCCCBCAC9C7C6C5C371
:1009C000C2C1BFBEBCBBB9B8B6B4B3B1AFAEACAABE
:1009D000A8A7A5A3A19F9E9C9A98969492908E8C6E
:1009E0008A89878583817F7D7B79777573716F6D48
:1009F0006B6968666462605E5C5A59575553515022
:100A00004E4C4A4947454342403E3D3B3A383635D5
:100A10003332302F2D2C2A292826252322FFAA7F86
:100A20005540000101010101010101010202020220
:100A30000202020202030303030303030304040488
:100A40000404040405050505050606060606070751
:100A500007070708080808090909090A0A0A0B0B09
:100A60000B0C0C0C0D0D0D0E0E0E0F0F0F101011A8
:100A7000111112121313141415151616171718182E
:100A800019191A1A1B1B1C1D1D1E1E1F2020212296
:100A900022232424252626272829292A2B2C2D2DDC
:100AA0002E2F30313232333435363738393A3B3CF9
:100AB0003D3E3F404142434445464748494A4C4DEC
:100AC0004E4F50515354555658595A5B5D5E5F61B5
:100AD0006264656668696B6C6D6F70727375777848
:100AE0007A7B7D7E8082838587888A8C8E8F9193A6
:100AF0009596989A9C9EA0A2A3A5A7A9ABADAFB1CD
:100B0000B3B5B7BABCBEC0C2C4C6C9CBCDCFD1D4B1
:100B1000D6D8DBDDDFE2E4E7E9EBEEF0F3F5F8FA57
:100B2000FDFF00DA0281FFD9F1DB20A4A62EAF0081
:100B3000A0C0D30000A1C8D30000AED580A81F403C
:100B40008D1420007F3F1F643214643214783C1EE1
:100B50001E140A05808182838485868788898A8B12
:100B60008C8D8E8F9091929394A0A1A2A3A4A5A600
:100B7000A7A8A9AAABACADAEAFB0B1B2B3B4C0C177
:100B8000C2C3C4C5C6C7C8C9CACBCCCDCECFD0D1CD
:100B9000D2D3D400204E554D4C4B004350534C4BB8
:100BA000004D6F64730053796D0046756E63004DA0
:100BB00061696E004C61796572733A000A0A00003F
:100BC0000000000000000000000000000000000025
:100BD0000000000000000000000000000000000015
:100BE0000000007E0F00D4FFFFFFC7000000780068
:100BF000000000000000002A2B2800000000000078
:100C00000000000000000000000029000000002C8F
:100C10001E3420212224342627252E362D3738272E
:100C20001E1F202122232425263333362E37381F3A
:100C30000405060708090A0B0C0D0E0F10111213FC
:100C40001415161718191A1B1C1D2F3130232D359A
:100C50000405060708090A0B0C0D0E0F10111213DC
:100C60001415161718191A1B1C1D2F3130354C007E
:100C700011241FBECFEFDAE0DEBFCDBF11E0A0E050
:100C8000B1E0ECEEF9E602C005900D92A23EB1078C
:100C9000D9F726E0A2EEB1E001C01D92AC30B20758
:100CA000E1F70E9455260C947A340C940000982F9A
:100CB00082958F70882311F0982F84E0292F269534
:100CC0002695222311F08E5F922F969591118F5FBA
:100CD00008958093C50508958093C605089521E081
:100CE00030E001C0220F8A95EAF78091C605822B79
:100CF0000E946C06089521E030E0A90102C0440F73
:100D0000551F8A95E2F7CA0180959091C6058923FF
:100D10000E946C060895292F983098F5863088F542
:100D200090E036E0239F800D911D1124282F27701D
:100D300041E001C0440F2A95EAF723E09695879594
:100D40002A95E1F7FC01EE0FFF1FE80FF91FE656A9
:100D5000FA4F20E030E070E05191DF011197CB01B4
:100D6000022E02C0969587950A94E2F781708195CC
:100D70008527842385278C932F5F3F4F23303105B0
:100D800059F70895292F983078F5863068F590E066
:100D900036E0239F800D911D1124682F677023E09A
:100DA000969587952A95E1F7FC01EE0FFF1FE80F56
:100DB000F91FE656FA4F40E050E080E0219130E024
:100DC000062E02C0369527950A94E2F72170332744
:100DD000042E01C0220F0A94EAF7822B4F5F5F4F67
:100DE0004330510559F7089580E008959091C60564
:100DF00021E030E0F90101C0EE0F8A95EAF7D90150
:100E000002C0AA0FBB1F6A95E2F7EA2B01C0220FAE
:100E10004A95EAF7892F8E23E81305C0892F822B84
:100E20000E946C0608952095822F8923F9CF809126
:100E3000CC059091CB05981301C008958F5F877002
:100E4000FACF9091C705809589238093C705282FF5
:100E5000277021110DC0891759F09091C90592FF93
:100E600007C08695869586950E947B061092C705D9
:100E700008958091C2059091CA05892B5091C305B0
:100E80005523C1F090914D019923A9F09091C80587
:100E900097FF11C09DE12EEE31E040E0F901608145
:100EA0002F5F3F4F61114F5F9150C0F7411110927A
:100EB000C305852B089595E026EE31E0EECF982FFF
:100EC00090958091C20589238093C2050895803E44
:100ED0009105D1F1C8F48133910509F47FC048F43C
:100EE0008932910509F46FC08A32910509F47DC0F9
:100EF000089589339105E1F082389105C9F0853371
:100F0000910509F45BC00895843E9105D1F148F440
:100F1000823E910531F1833E910541F181EE90E0F1
:100F20000895863E9105C1F1873E9105E1F108954E
:100F30002091C8052370211165C02091C90523FFA8
:100F400014C089E290E008952091C80520FD43C0B7
:100F50003091C90530FF09C024FF4EC080E090E009
:100F600008952091C80522FDF7CF08952091C80566
:100F700022FD45C03091C90530FD44C024FFF5CFA6
:100F8000EDCF2091C90521FFF0CF8091C80584FDE8
:100F9000E5CF87EE90E008952091C80523FFE5CFC7
:100FA00024FDDCCFF6CF2091C80523FD2EC0309163
:100FB000C90531FFE3CF84EE90E008952091C80584
:100FC00025FFD3CFBECF2091C80525FD21C020919C
:100FD000C90523FFCACF89E390E008952091C80591
:100FE00026FFC3CF8AE290E008952091C80526FF2E
:100FF000BCCF81E390E0089583EE90E0089582EE07
:1010000090E0089580EE90E0089586EE90E00895D7
:1010100085E390E0AACF9091C80592FF10C041E00F
:10102000282F2471243009F040E031E0282F287166
:10103000283009F030E0431711F02CE0822793FFAD
:1010400010C041E0282F2471243109F040E031E044
:10105000282F2871283109F030E0431711F02CE0D7
:1010600082273091C90530FF10C051E0282F21712F
:10107000213009F050E041E0282F2871283009F094
:1010800040E0541711F029E0822731FF10C041E001
:10109000282F2171213109F040E031E0282F2871FB
:1010A000283109F030E0431711F029E0822794FD40
:1010B000877E08951F93CF93DF930E946707EC010B
:1010C000811522E5920708F053C0811540E5940789
:1010D00008F0DDC0803E9105F8F48D3C910508F0E4
:1010E000AEC0883A910580F4853A910508F099C020
:1010F0008130910521F00497813A910550F4CE0199
:10110000DF91CF911F910895885A91094B9708F468
:101110008BC0C0E0D0E0F3CF811550E49507F8F420
:10112000C11580E2D80708F0CBC0C83ED10538F31E
:10113000CE019A9581159F4160F78D2F0E940B0873
:10114000182FCE0199270E946707212F30E0322FF8
:101150002227E901CC27DF71C82BD92BD0CF9927C3
:101160000E946707CC27DF70C82BD92BD06AC7CF66
:10117000803842E59407C8F5803652E5950708F0B7
:1011800067C0C03482E5D807B0F08C2F869586956D
:10119000877020E2829FC0011124C37021E030E0FB
:1011A000A90102C0440F551FCA95E2F7EA01C82BF6
:1011B000D92BDC68A4CFC03252E5D50708F041C076
:1011C0008C2F8695869520E2829FC0011124C370E2
:1011D00021E030E0A90102C0440F551FCA95E2F793
:1011E000EA01C82BD92BDD688ACF803C52E59507F0
:1011F00060F48F71C03AD24508F03FC090E0982F5C
:101200008827EC01C46FD06A7ACF805C92458097C2
:1012100008F07FCFDC2FCC27CC27DF71C06FD06ADE
:101220006ECFA497D0646BCFC85AD0E0CC0FDD1F2F
:10123000C555DE4F0990D881C02DD46460CFD065EC
:101240005ECFCF71D0E0DC2FCC27C16FD06A57CFF3
:1012500086958695877020E2829FC0011124C37015
:1012600021E030E0A90102C0440F551FCA95E2F702
:10127000EA01C82BD92BDA6842CF0E940B08C82F8D
:10128000D0E0DC2FCC27CC27DF71D06238CF8F7134
:101290000E940B0865E0D695C7956A95E1F7CF7077
:1012A000D0E0DC2FCC27282F30E084FF05C054E0AD
:1012B000220F331F5A95E1F7C22BD32BD0691FCFD2
:1012C0008D2F8F710E940B08182FCE0199270E9435
:1012D0006707212F30E0322F222722273F71282B4A
:1012E000392BE901D2CF80E00895F894E82FE295F8
:1012F000EF70F0E041A18F7021E030E0B90102C051
:10130000660F771F8A95E2F7CB01962F909594236D
:1013100091A392A1892B82A3789408950895A0E0C7
:10132000B0E0E5E9F9E00C940333E901E42FF0E0E3
:10133000EE5DF54F61110BC0E4919E2F8E2F8983D6
:10134000E8839A83CDB7DEB7EAE00C941F33282FE9
:1013500030E0062F10E0F491EF2F86E0829F6001CD
:10136000839FD00C1124EE24EA94F12CC601B7011E
:101370000E94E732220F331F45E5469FC001479F79
:10138000900D1124281B390B822F880F280FC701BD
:10139000801B910BF89FA001F99F500D1124952FF0
:1013A000209F5001219FB00C1124AB2CBB24D701EE
:1013B000AA19BB095D01FA9DD001FB9DB00D112456
:1013C0008B2F5701A21AB1089501209F5001219F30
:1013D000B00C309FB00C1124AB2CBB24EA18FB08D6
:1013E000FE9D9001FF9D300D112463307105C9F001
:1013F0001CEFC11613E0D10650F46130710509F4F9
:101400009ECF6230710589F08E2FE32F98CF643024
:10141000710571F066307105B9F3E52F9B2F8F2FA1
:101420008ECFEB2F852F9F2F8ACF852F932F87CF9E
:10143000832FE52FF8CF8091BA05843060F4837054
:1014400084608093BA058091BD05893718F088E7DC
:101450008093BD0508958C38B0F383708868F1CF10
:1014600060910F018091BA0580FF0EC070E020915D
:101470000E0130E0C901880F991F820F931F865C0F
:101480009D4F0E94CF0F08958091100190911101FE
:10149000282F30E0F901EE0FFF1FE20FF31FE65C8B
:1014A000FD4F891718F71182108212828F5F3396D1
:1014B000F8CF9091BA0590FF11C090911001509112
:1014C0001101292F30E0F901EE0FFF1FE20FF31F8A
:1014D000E65CFD4F951718F00E94300A089581834D
:1014E000608342839F5F3396F5CFA3E0B0E0EBE7E4
:1014F000FAE00C940B339091BA0590FF0DC0493778
:1015000008F048E79E012F5F3F4F0E948F094B81F3
:1015100069818A810E94590A2396E2E00C9427335C
:10152000CF93DF93EC01EAEBF5E0438162818C819C
:101530000E94750A8C818F5F8C83DF91CF91089513
:10154000E7EBF5E011828281846082830895EAEB03
:10155000F5E080818E7F80830E94A00AE7EBF5E0B2
:101560008281816082830E94300A0895CF93DF9345
:10157000EC01EC81F0E0E35EF64F4491EAEBF5E03C
:10158000628181810E94750A8C818F5F8C83DF91DB
:10159000CF910895EF92FF921F93CF93DF93EC01C9
:1015A00010E0EE24EA94F12C60911201161770F00D
:1015B0000E94300A9A818C8190FF28C08F5F8C83B3
:1015C000DF91CF911F91FF90EF90089580911001CE
:1015D000810F9927991F9C01220F331F280F391F54
:1015E000265C3D4F4091BD05493708F048E770E063
:1015F000C7010E944C33962F8C816091BC05199FC6
:10160000800D11240E948F091F5FCECF8150D7CF4C
:10161000A0E0B0E0EEE0FBE00C940233EC01A0901F
:1016200012018C819A8190FD0DC0BB24B39481116D
:101630000DC08FEF8A0DBB24B3948093390281E0F3
:101640008C8304C0BB24BA948823B9F3E12CF12C19
:10165000EA14B8F00E94300A90913902E1E0BE121B
:1016600057C0809112018150992319F08FEF890F93
:1016700091E0809339029C83CDB7DEB7EBE00C9408
:101680001E33809110018E0D9F2D911D8C01000F36
:10169000111F080F191F065C1D4FF80111821082DF
:1016A000128234E0C32ED12C912C80913902890D05
:1016B000873354F166E30E943E33892F082E000CD5
:1016C000990B8E159F05A9F48091BD058C9DA001F5
:1016D0008D9D500D11245595479555954795493742
:1016E00008F048E798016091BC058091BB050E9415
:1016F0008F099B0CF1E0CF1AD108C114D104A9F6CF
:101700008FEFE81AF80AA4CF87FFD8CF8A0DD6CF7B
:10171000892F90E001966091120170E00E944C3395
:10172000982FA7CF0F931F93CF93DF93EC018C815A
:10173000811109C081E08C831092380292E090936D
:101740000201809301011091100120911101812F5C
:1017500090E0FC01EE0FFF1FE80FF91FE65CFD4F64
:10176000821750F100E060911201061758F10E94B3
:10177000300A8091010120913802280F209338020D
:1017800090910201980F90930201191654F4022EC1
:10179000000C330B409112014150550B24173507B3
:1017A00034F0819580930101813009F41C82DF912E
:1017B000CF911F910F9108951182108212828F5F35
:1017C0003396CECF202F30E070E0C9010E944C3319
:1017D000810F90E040913802042E000C550BFC0163
:1017E000EE0FFF1FE80FF91F24173507C4F04091D3
:1017F0000201042E000C550B4217530784F09F0181
:10180000265C3D4F4091BD05493708F048E760919F
:10181000BC058091BB050E948F090F5FA4CFE65CD9
:10182000FD4F118210821282F8CFAEE0B0E0EBE102
:10183000FCE00C9407338D879E87AD85BE8514969A
:101840001C91212F30E0D9010E9497339B01AC01FC
:101850000E94AD3369837A838B839C83E0E2F0E05E
:10186000E11BF109A5E5B0E09B01AC010E94AD339D
:1018700069877A878B879C879F01DF010E948F335E
:101880009B01AC010E94B8336D837E838F83988760
:101890009B01AC0189819A81AB81BC81280F391FE2
:1018A0004A1F5B1F69857A858B859C850E94603302
:1018B000022F30E00A3248F5C901880F991F820FC4
:1018C000931F95958795F82EF09410E085E5E82E06
:1018D000E01A80911201181730F10E94300AED854C
:1018E000FE85948181E0992319F0903219F48FEFED
:1018F0008093000180910001890FAD85BE8514960B
:101900008C932E96E6E00C94233385E590E0DC0181
:10191000A21BB30BCD01880F991F8A0F9B1F97FF46
:10192000D0CF0196CECF8E2D11FD802F409110018A
:10193000410F5527551F9A01220F331F240F351FC2
:10194000265C3D4F4F2DB8E7BF1508F448E760917E
:10195000BC050E948F091F5FBCCFFA01882311F0DC
:1019600009950895FB01FCCF539A0895282F35EB74
:101970002303C001112497FF04C080589109892FC7
:10198000089580589F4FFBCF8091AE0580FD14C015
:1019900081FD14C082FD16C08091AD05882381F0C1
:1019A0008E3180F420E5829FC00111246EE170E049
:1019B0000E944C33862F089584E1089588E20895AB
:1019C00088E0089580E508958091AE0580FD17C0F8
:1019D00081FD17C082FD19C08091AC05882399F064
:1019E000883298F428E0829FC001112468E270E0F8
:1019F0000E944C336115710551F0862F089562E005
:101A0000FCCF64E0FACF61E0F8CF68E0F6CF81E088
:101A1000089580916C05882359F0E0919005F0912C
:101A20009105309729F00190F081E02D09950895F6
:101A300080E00895A3E0B0E0E0E2FDE00C940B3319
:101A40009C01809130029091310282179307A1F09E
:101A50003093310220933002E0919005F09191058E
:101A6000309751F083E089833B832A830084F1859A
:101A7000E02DCE01019609952396E2E00C942733E0
:101A8000A3E0B0E0E6E4FDE00C940B339C01809110
:101A90002E0290912F0282179307A1F030932F020C
:101AA00020932E02E0919005F0919105309751F02E
:101AB00084E089833B832A830084F185E02DCE0175
:101AC000019609952396E2E00C94273390914D01FD
:101AD0009923C1F09091C80597FF14C0E82FE695AF
:101AE000E695E695803FF8F4F0E0E451FE4F87700C
:101AF00021E030E001C0220F8A95EAF78281822B33
:101B000082830895A6EEB1E0EFEF90E02D91821769
:101B100051F0EF3F19F4211101C0E92F9F5F96307A
:101B2000A9F7EF3F09F408950E2E000CFF0BEC51BE
:101B3000FE4FE6CF90914D019923E1F09091C805B9
:101B400097FF18C0E82FE695E695E695803FF0F4FC
:101B5000F0E0E451FE4F877021E030E0A90102C0BF
:101B6000440F551F8A95E2F7CA0180959281892317
:101B700082830895E6EEF1E09191891303C0DF01BD
:101B800011971C9251E0EC3EF507B1F70895A4E0DF
:101B9000B0E0EDECFDE00C940B338FB7F89420919E
:101BA0004C0530914D0540914E0550914F052983CC
:101BB0003A834B835C838FBF69817A818B819C815F
:101BC0002496E2E00C942733A4E0B0E0EAEEFDE0D6
:101BD0000C940B3380916C05882371F00E94C70D23
:101BE00069837A838B839C8369817A818B819C81D1
:101BF0002496E2E00C9427330E94C70D69837A8310
:101C00008B839C838091680590916905A0916A05FA
:101C1000B0916B0529813A814B815C81280F391F76
:101C20004A1F5B1F29833A834B835C83DDCF87E7A1
:101C300097E7909301088093000888E19AE00FB637
:101C4000F894A895809360000FBE90936000FFCF3A
:101C500080912D020895FC019B01809123029091B7
:101C600024028617970740F0672B29F48091E8003B
:101C70008E778093E800C90140E0009741F441115C
:101C800006C08091E80082FF2FC080E00895209177
:101C900037052223A9F12530A9F12091E80023FD81
:101CA0002DC02091E80022FDECCF2091E80020FF1C
:101CB000E4CF3091F3002091F200009719F0283022
:101CC000310558F041E02830310509F040E020911D
:101CD000E8002E772093E800D0CF41914093F100A7
:101CE00001972F5F3F4FE9CF80913705882341F05F
:101CF000853041F08091E80083FFC3CF81E00895F3
:101D000082E0089583E0089580911D0287FF13C04B
:101D10008091E80082FF06C08091E8008B77809375
:101D2000E80004C0809137058111F2CF08958091B9
:101D300037058823D9F38091E80080FFF8CF8091A0
:101D4000E8008E77ECCF2091E4003091E50095E635
:101D5000A9018091EC008170882331F08091E80026
:101D600080FF06C080E008952091E80022FD1BC09E
:101D700080913705882391F0853091F08091EB00B8
:101D800085FD10C02091E4003091E5004217530713
:101D900001F391509111DCCF84E0089582E0089521
:101DA00083E0089581E00895E8EDF0E080818E7F82
:101DB00080831092E2001092DA001092E100A0EE0F
:101DC000B0E08C9181608C9380818F77808319BC87
:101DD000A7EDB0E08C918E7F8C9380818F7E808385
:101DE00010921C020895FC01AC014C5F5F4F8FEF15
:101DF00091E32191822728E030E087FF0BC0880F14
:101E000089272150310921153105B9F7E417F50764
:101E100081F70895880FF5CF9091E802989FC0014F
:101E20001124811522E0920714F080E090E0825E98
:101E30009C4F9093E7028093E6020895982FE42F39
:101E4000E2709093E900891308C0762F242F50E0A8
:101E5000E11111C091E0980FF4CF7091EC00209146
:101E6000ED005091F00021FD06C09F5F973049F7CB
:101E70008093E90008953091EB003E7F3093EB00B2
:101E80003091ED003D7F3093ED003091EB003160FB
:101E90003093EB007093EC002093ED005093F00032
:101EA0002091EE0027FDE1CF0895A0E0B0E0EBE542
:101EB000FFE00C940533C8EDD0E088818F7E8883E5
:101EC000E7EDF0E080818160808384E082BF81E083
:101ED00080931C0288818E7F888302EE10E0F801D7
:101EE00010821092DA0081EEC82ED12CF6011082F9
:101EF00088818F77888388818068888388818F7DB7
:101F0000888319BC1092370510921B021092EB02C5
:101F100010921A0290EEE92EF12CF70180818B7F4E
:101F2000808388818160888342E060E080E00E9455
:101F30001E0FF60180818E7F8083F8018081816091
:101F40008083808188608083F70180818E7F808399
:101F5000888180618883CDB7DEB7E8E00C942133B7
:101F6000E091CC059091CB0527E0E91302C080E019
:101F70000895AE2FB0E02E9FF0011124E353FA4FE5
:101F80003181361306C03081381303C035813413D4
:101F900004C0FD013196E770E8CF81E008959C010F
:101FA000AB016BB1677F7BB17860EFB7F894CA0182
:101FB000880F991F840F951F820F931F8217930715
:101FC00041F4EFBF8FE594E00197F1F700C0000006
:101FD0000895D9014D919D0158E07BB9000000C0E2
:101FE00047FF6BB9440F000000C000C000C06BB9D0
:101FF00000C05A9591F7E2CF0F931F93CF93DF93D1
:10200000EB018A0190913705943079F58093E900CE
:102010008FEF9091E80095FD07C095ED9A95F1F747
:10202000000081508111F5CF8091E80085FF1DC02F
:102030000E94A30E811114C08091E80085FD06C0A6
:102040008091E8008E778093E800F2CF88818093BA
:10205000F100015011090115110511F02196ECCF85
:102060008091E8008E778093E800DF91CF911F91F7
:102070000F910895CF93DF93D82FC92F48E050E0F8
:10208000682F792F81E00E94FC0F88E0ED2FFC2F54
:10209000A5E2B2E001900D928A95E1F7DF91CF9130
:1020A0000895BC0140E250E084E00E94FC0F0895D6
:1020B000BC0146E050E084E00E94FC0F0895BC01A2
:1020C00043E050E084E00E94FC0F0895A0E0B0E0FF
:1020D000ECE6F0E10C940333F82EE92EB62EA72E91
:1020E0008A0180911802CC24C394D12C8A3018F430
:1020F0008AE0C82ED12CC1E0D0E06B2D7A2D8F2D37
:102100009E2DF8010995811116C02196CC16DD0689
:1021100094F0CC9FC001CD9F900D900D112420E034
:1021200030E045E34A95F1F700002F5F3F4F281755
:102130003907B9F7E2CFCDB7DEB7EAE00C941F3329
:102140009091C90592FB222720F9281779F080FB8E
:1021500092F99093C9056091C8057091C90584E012
:1021600090E00E94643482E00E94210708951F934A
:10217000CF93DF93962F122F632F8430D8F49830AB
:10218000C8F44630B8F4C42FD0E0CC0FDD1F2CE0EB
:10219000929FC00DD11D112490E6899FC00DD11DC5
:1021A0001124CE0188960E944634612FCE01899673
:1021B0000E944634DF91CF911F910895AF92BF9254
:1021C000CF92DF92FF920F931F93CF93DF93A12CB7
:1021D000B12C00E0650110E013C0FE01259134919F
:1021E0004F2D612F802F0E94B7102296F39486E026
:1021F000F812F3CF86E0C80ED11C1F5F183039F0FB
:10220000E601CC0FDD1FC35ADD4FF12CE6CF0F5F87
:1022100080E3A80EB11C0430E9F6DF91CF911F9145
:102220000F91FF90DF90CF90BF90AF900895CF9324
:10223000DF93C8EAD1E060E0CE010E9446342196E7
:10224000C11584E0D807B9F7DF91CF9108958823AD
:1022500081F065E284E290E00E94463463E085E22A
:1022600090E00E94463461E286E290E00E944634AB
:1022700008956FEF84E290E00E9446346FEF85E2AC
:1022800090E00E9446346FEFEFCF80E00E9427116C
:1022900060E087E290E00E9446340E94DE100E94D7
:1022A000171181E00E94271108950F931F93CF9378
:1022B000DF93843030F5683020F5463010F5C42FB8
:1022C000D0E0CC0FDD1F2CE0629FC00DD11D11248A
:1022D00030E6839FC00DD11D1124CE0188960E9447
:1022E0002234082F10E0102F0027CE0189960E947B
:1022F00022349801282BC901DF91CF911F910F91B2
:10230000089580E090E0F8CF462F672F783038F4BA
:10231000463028F4843018F40E945511089580E066
:1023200090E00895A0E0B0E0E8E9F1E10C94063314
:102330007C010091C6058091C505082BC3E0D0E063
:1023400010E0C8010C2E02C0959587950A94E2F71B
:1023500080FD09C02197A8F7D12C8D2DCDB7DEB710
:10236000E7E00C942233DC2EB7018C2F0E948411FD
:102370000E945A08019771F3F0CF0F931F93CF93E8
:10238000FC01858100811181882391F0662381F011
:10239000C8010E949211C82F682FC8010E948B06A5
:1023A000B8018C2F0E948411CF911F910F91089535
:1023B000C8010E94C206C82FF3CFCF93DF93D82F56
:1023C000C92F0E9492116D2F7C2F0E9484110E94B0
:1023D0005A08DF91CF910895FC0184818823A1F0F0
:1023E000808191810E94DD11282F92959F709630F7
:1023F00091F060F4925F9F70923030F481E0203F62
:1024000079F030F4283E30F080E004C09A5FF3CFDA
:10241000243FD1F7089581E0283E18F0213FF9CFFD
:102420000895089584E290E00E942234853289F470
:1024300085E290E00E942234833059F486E290E0F5
:102440000E94223491E0813209F090E0892F81705E
:10245000089580E0FCCF80914D01882359F180914F
:10246000C80587FF27C00E9439078093ED0140E22D
:1024700050E060E775E08CEE91E00E940C34892B0F
:10248000C1F080E2ECEEF1E0A0E7B5E001900D9242
:102490008A95E1F7E0919005F0919105309749F028
:1024A00086E08093EC010480F581E02D8CEE91E0D4
:1024B000099508950E9439078093E40148E050E0AF
:1024C00062E975E084EE91E00E940C34892B89F377
:1024D00088E0E4EEF1E0A2E9B5E001900D928A9582
:1024E000E1F7E0919005F0919105309711F30280AA
:1024F000F381E02D84EE91E0DBCF882339F09091D9
:10250000C205892B8093C2050E942B12089588234F
:1025100021F00E945F070E942B120895A8E0B0E00E
:10252000E4E9F2E10C940A3340913C0550913D05F9
:1025300060913E0570913F052FB7F89480914C054E
:1025400090914D05A0914E05B0914F052FBF841B72
:10255000950BA60BB70B11E084369105A105B105CB
:1025600078F10E94E40DDC01CB010296A11DB11DA2
:1025700089839A83AB83BC8380913E0190913F0114
:10258000805B9A4F20913D01422F50E0253010F0A2
:1025900044E050E0BE016F5F7F4F0E94193483E03A
:1025A00090E00E947232182F882351F00E94C70DCC
:1025B00060933C0570933D0580933E0590933F05E5
:1025C000812F2896E3E00C942633A0E0B0E0EBEEF8
:1025D000F2E10C940533E82FEB01B901D801C88072
:1025E000D980EA80FB808FB7F89400914C05109158
:1025F0004D0520914E0530914F058FBF0C191D09D7
:102600002E093F09043611052105310510F4442334
:1026100009F10E2F0E2E000C110B88E0E802F001DC
:102620001124EB5DFE4F81819281805B9A4F408146
:1026300050E0A417B50708F4AD010E941934C80191
:102640000E947232882339F00E94C70D6883798313
:102650008A839B8381E0CDB7DEB7E8E00C94213319
:102660000F931F93CF93DF93D82FC92F44E050E0EF
:1026700065E575E00E940C3441E0892B09F440E0E7
:1026800004E010E02D2F3C2F60E475E082E00E9412
:10269000E512DF91CF911F910F910895ABE0B0E06B
:1026A000E4E5F3E10C94093328E0EAEBF5E0CE0130
:1026B0000196DC0101900D922A95E1F73091B70562
:1026C0002091B8055091B90539872A875B8741E089
:1026D0009C01511101C040E00BE010E068E375E09F
:1026E00084E00E94E51281111092B9052B96E4E076
:1026F0000C942533EF92FF921F93CF93DF9300D07A
:1027000000D00F92CDB7DEB77B0180E090E00E9451
:102710007232182F81111AC010E0809144059091F7
:102720004505A0914605B0914705F7018083918347
:10273000A283B383812F0F900F900F900F900F9073
:10274000DF91CF911F91FF90EF9008958091280124
:10275000482F50E0882311F041E050E060912901BA
:1027600070912A01605B7A4FCE0105960E94193460
:10277000409148055091490560914A0570914B057B
:102780002FB7F89480914C0590914D05A0914E057E
:10279000B0914F052FBF841B950BA60BB70B84364A
:1027A0009105A105B10538F481E595E00E94F30E8D
:1027B0009D818917B9F181E090E00E9472328823EF
:1027C00009F4AACF80913001482F50E0853010F0F5
:1027D00044E050E06091310170913201605B7A4FCA
:1027E000CE0101960E94193481E595E00E94F30E16
:1027F0009D81891391CF0E94C70D60934805709306
:10280000490580934A0590934B0589819A81AB8154
:10281000BC818093440590934505A0934605B093F1
:1028200047057BCF8091510590915205A0915305AA
:10283000B091540589839A83AB83BC83E6CFA0E033
:10284000B0E0E5E2F4E10C9405338901D42FC52F03
:102850006B017C010E941B0AA8016D2F7C2F88E070
:1028600090E00E94583498014D2F5C2FB601C701AB
:1028700000E20E94DB33622F83E290E00E94463444
:10288000CDB7DEB7E8E00C9421338091BE058330EC
:1028900018F48F5F8093BE052091BA053091BB0577
:1028A0004091BC055091BD056091BE057091BF057A
:1028B0008091C0059091C1050E941F1408958091D8
:1028C000BE05882319F081508093BE052091BA057A
:1028D0003091BB054091BC055091BD056091BE058E
:1028E0007091BF058091C0059091C1050E941F1491
:1028F0000895A3E0B0E0EFE7F4E10C940333E82E91
:10290000D62EF42EB22E9091BA0590FF46C030918B
:10291000BB05381308C08091BC05861304C08091A4
:10292000BD05841729F08091B90582608093B905AF
:10293000E92FE695E695AE2FB0E0AC58BE4F8C91EE
:102940008093B7059C7F943061F54F2D88E78F15F4
:1029500008F448E79E012F5F3F4F6D2D8E2D0E949A
:102960008F094B8169818A810E94590A3E2D3093DB
:10297000BB05D092BC05F092BD05BB2071F0209143
:10298000BA056091BE057091BF054D2D5F2D8091F8
:10299000C0059091C1050E941F142396EAE00C9493
:1029A0001F33823019F4F090BD05E0CF8630F9F284
:1029B0008930E9F28931D1F6E9519E2F9170A92E23
:1029C000E695F0E0E35EF54FE491C12C0E2F10E0A8
:1029D00060911201C61618F00E94300AC7CF2C2D44
:1029E00030E0C09EC001C19E900D112470E00E9495
:1029F000E7328E2DA11017C0860F90911001A9010A
:102A0000490F511D9A01220F331F240F351F265CD9
:102A10003D4F4F2D98E79F1508F448E76D2D0E9414
:102A20008F09C394D5CF861BE8CFEAEBF5E081810F
:102A300021E043816281865F0E9479140895EAEB68
:102A4000F5E0818121E0438162818A500E947914FE
:102A50000895EAEBF5E0628121E1620F08F46FEF7F
:102A600021E0438181810E9479140895EAEBF5E029
:102A7000628121E1621B08F460E021E043818181F1
:102A80000E9479140895EAEBF5E0438121E1420FB9
:102A900008F44FEF21E0628181810E94791408954A
:102AA000EAEBF5E0438121E1421B08F440E021E03C
:102AB000628181810E9479140895AB0124E630E09F
:102AC000BC0188E70E9489309C0181E0232B09F03A
:102AD00080E0089580912905882369F0809126057A
:102AE000882349F062E070E08AEC91E00E945D1575
:102AF0008111109226050895A4E0B0E0E2E8F5E126
:102B00000C940B33809129058823F9F00E94C70D9E
:102B1000DC01CB01805A9541AF4FBF4F8093220516
:102B200090932305A0932405B09325058091260555
:102B300081110BC062E070E088EC91E00E945D15AD
:102B4000882319F081E0809326052496E2E00C9416
:102B500027331F93CF93DF93982F162F81E09A305E
:102B600019F09D3039F480E00E943A16DF91CF9140
:102B70001F910895C091E602D091E70286E0FE0120
:102B8000A2E3B2E001900D928A95E1F7903E90F1B8
:102B900086E0FE0111928A95E9F7C091E602D09194
:102BA000E702111133C046E050E0BE0182E392E03B
:102BB0000E940C349E012E513340892B91F52A5FDF
:102BC0003F4F4091E802642F70E0C9010E94E73254
:102BD000481B463010F4240F311D211572E03707D1
:102BE00010F020E030E0225E3C4F3093E70220936B
:102BF000E602BCCFF6E09F9FB001112463527C4FE8
:102C000046E050E0CE010E94F633C7CF9E012A5F16
:102C10003F4FFE012E173F0731F28081809581934F
:102C2000F9CFC90145E0969587954A95E1F741E0CE
:102C300050E0BA0102C0660F771F8A95E2F7CB0118
:102C40006091200570912105862B972BB9016B5F50
:102C50007F4FE5E076956795EA95E1F702C0440F6E
:102C6000551F6A95E2F7842B952B9093210580934D
:102C70002005A5CFCF93382FE091E602F091E7022F
:102C8000EE51F3402091E802622F70E0CF010E94E4
:102C9000E732281B822F332369F066E00E9432332B
:102CA000C82FC15010F4CF91089560E080E20E94D7
:102CB000A915F7CF9F01280F311D2115324018F0BB
:102CC00080E0E0E0F0E08E0F9F2F911D825E9C4F30
:102CD0009093E7028093E602E6CF1F93CF93DF93B2
:102CE000EC01162FFE018491811104C0DF91CF9178
:102CF0001F910895612F0E94A9152196F3CF0F937C
:102D00001F93CF93DF93EC01FC0101900020E9F7C2
:102D10008F0101501109C017D10728F0DF91CF9121
:102D20001F910F91089560E089910E94A915F3CF3A
:102D30001F921FB61F9211248F939F93AF93BF933F
:102D40008091EA02811113C080914C0590914D054C
:102D5000A0914E05B0914F054196A11DB11D8093E4
:102D60004C0590934D05A0934E05B0934F05BF9130
:102D7000AF919F918F911F901FBE1F9018952FB7F5
:102D8000F89480914C0590914D05A0914E05B0911D
:102D90004F052FBF089580916C05882319F00E947C
:102DA000BF1608950E94E40DCB0108956091BA0505
:102DB0006695669570E04BE050E083E091E00E94FC
:102DC000FF33892B19F481E08093B8050E94CB165C
:102DD0009093F9028093F8028091B9058460809302
:102DE000B90508959091BA0590FF42C0882309F46F
:102DF00040C0833208F03FC08F73282F220F220F6C
:102E00008091BA058370282B2093BA058091B9056B
:102E100081608093B905662381F03091BB054091B4
:102E2000BC055091BD056091BE057091BF058091B4
:102E3000C0059091C1050E941F146091BA05669566
:102E4000669570E04BE050E083E091E00E94FF3334
:102E5000892B99F00E94A00A81E08093FB0220E078
:102E60004091BD056091BC058091BB050E9479141D
:102E7000089581E0C2CF82E2C0CF0E94D616ECCF87
:102E80008091BA05869586958F5F833208F081E040
:102E900061E00E94F21608959091BA059695969574
:102EA0008FEF890F913009F482E261E00E94F216FF
:102EB00008959091BA0590FF09C096959695981738
:102EC00028F0961718F40E944017089561E00E94B8
:102ED000F21608950E94BF162091B1053091B205F7
:102EE000232B222321F080932C0590932D052091F4
:102EF000B3053091B405232B222321F080932A05BA
:102F000090932B05E0919005F0919105309749F051
:102F100082E08093AF050680F781E02D8FEA95E08F
:102F200009950895662309F44BC0E3E3E80FE33104
:102F300050F4F0E0E458FB4C0C9482330E94C40C33
:102F400081958093B2050E946A1708950E94C40C6F
:102F5000F8CF0E94C40C81958093B105F4CF0E94F4
:102F6000C40CFACF0E94E40C8093B305ECCF0E940E
:102F7000E40C8195F9CF0E94E40C81958093B4050F
:102F8000E2CF0E94E40CFACF815D990B21E030E0A2
:102F900001C0220F8A95EAF78091B005822B8093B9
:102FA000B005D1CF8091AE0581608093AE05CBCFC7
:102FB0008091AE058260F9CF8091AE058460F5CF37
:102FC0004091B1058D3C59F48091B20587FF0DC049
:102FD0001092B205442359F41092AD0508C08E3CFE
:102FE00081F48091B20518169CF3442381F08091FE
:102FF000B3059091B405892B8111A5CF1092AC0532
:10300000A2CF8F3C41F447FFF0CF1092B1058091E1
:10301000B2058823E0CF803D19F41416B4F3E5CF50
:103020009091B305893D29F41916FCF61092B30569
:10303000DCCF8A3D19F497FFD8CFF8CF9091B40533
:103040008B3D29F497FFD1CF1092B405CECF8C3DA4
:1030500019F41916CCF3C9CF9FE2980F983090F469
:10306000815D990B21E030E0B90102C0660F771F46
:103070008A95E2F7CB0180959091B00589238093E2
:10308000B005B3CF8D3D31F48091AE058E7F809336
:10309000AE05ABCF8E3D21F48091AE058D7FF7CF8D
:1030A0008F3D09F0A2CF8091AE058B7FF0CFCF93FB
:1030B000C82F8823B1F18CEF8C0F813AA0F5809155
:1030C0004D01882301F18091C80587FF1CC0EC2FBA
:1030D000E695E695E695F0E0E451FE4F828190E0BA
:1030E0004C2F477021E030E002C0220F331F4A9579
:1030F000E2F782239323892B79F08C2F0E949A0D7B
:103100000E942B1209C0E6EEF1E08191C817A9F3E5
:1031100021E0EC3EF207C9F78C2F0E94660D0E9459
:103120002B12CF91089580E28C0F883068F4C7701D
:1031300081E090E001C0880FCA95EAF7C091C2050E
:10314000C82BC093C205EBCF8BE58C0F833038F4CE
:103150002C2F2452330BC9010E941A0DE2CFE8E54F
:10316000EC0FEB3150F4F0E0EE0FFF1FE555FE4F92
:10317000808191810E94400DD4CF83E38C0F8331F5
:1031800080F661E08C2F0E949217CBCF882381F1CB
:103190009CEF980F913A28F40E949A0D0E942B12EE
:1031A000089590E2980F983050F4877091E001C034
:1031B000990F8A95EAF7892F0E945F07EFCF9BE569
:1031C000980F933028F480E090E00E941A0D089543
:1031D00098E5980F9B3128F480E090E00E94400D24
:1031E000089593E3980F933118F460E00E949217CA
:1031F00008951F93CF93DF93182FEB010E94571868
:10320000209739F4812F0E94C618DF91CF911F912A
:1032100008958FE99FE00197F1F700C00000219722
:10322000EFCF1092C20580914D01882339F1809132
:10323000C80587FF23C0EEEEF1E08EE1DF011D92AD
:103240008A95E9F780E090E00E941A0D80E090E016
:103250000E94400D1092CA050E942B1286E0EFEAF0
:10326000F5E0DF011D928A95E9F71092AD05109205
:10327000AC051092AE050E946A170895E6EEF1E0E3
:1032800086E0DCCF0E9411192FEF84E39CE02150EF
:1032900080409040E1F700C0000088E19AE00FB65E
:1032A000F894A895809360000FBE90936000FFCFC4
:1032B000AAE2B0E0EEE5F9E10C940A338DE192E088
:1032C000FC0101962091F100208322E085329207D3
:1032D000B9F780911E02893009F456C0C8F48230D3
:1032E00009F4B3C0833009F482C0813071F1809158
:1032F000E80083FFE7C080911D0290911E029A3082
:1033000008F0E0C0E92FF0E0E157FB4C0C94823369
:103310008A3009F489C08B3051F780911D028132C7
:1033200031F78091210290912202892B01F780913F
:10333000E800877F8093E8000E94840E80911F023E
:1033400080934D010E941119D2CF80911D02813AC4
:1033500071F68091E800877F8093E80080912102D8
:1033600090912202892B61F060E080E090E070E0B3
:103370000E942B0E8091E8008B778093E800B7CFF6
:1033800068E085E292E0F3CF80911D02813209F07E
:10339000AECF80912102909122028D7F892B09F07E
:1033A000A6CF8091E800877F8093E8008091E800B5
:1033B00082FF18C09091F3008091F200029731F4DF
:1033C0008091F100813011F0863021F48091F1007C
:1033D00080932D028091E8008B778093E8000E9413
:1033E000840E85CF809137058111E0CF80CF809109
:1033F0001D02813A09F07BCF809121029091220237
:10340000892B09F074CF8091E800877F8093E800D2
:103410008091E80080FFFCCF80914D018093F10006
:103420008091E8008E77D9CF80911D02813209F01A
:103430005ECF8091E800877F8093E8000E94840E31
:10344000809120028093190252CF80911D02813A0F
:1034500009F04DCF8091E800877F8093E80080914C
:10346000E80080FFFCCF80911902D8CF803889F026
:10347000823841F5809121028F70873018F5809352
:10348000E9008091EB0085FB882780F91092E90024
:1034900006C080911A029091EB0291118260909186
:1034A000E800977F9093E8008093F1001092F1007C
:1034B0008091E8008E7723C0811116C080911F0291
:1034C000813011F18091E80083FF0AC08091E8000B
:1034D000877F8093E8008091EB0080628093EB000F
:1034E000AA96E3E00C942633823061F780911F02A4
:1034F000882389F01092E9008091E800877F80930B
:10350000E8000E94840EDECF81E0933009F080E075
:103510008093EB02EFCF809121028F702FEF280F65
:10352000263080F68093E9002091EB0020FFE2CF67
:10353000933031F48091EB0080628093EB00DACF1E
:103540009091EB0090619093EB0021E030E0A901B5
:1035500002C0440F551F8A95E2F74093EA0010928B
:10356000EA008091EB008860E8CF8111ABCF109129
:103570001F021F778091E3008078812B8093E30006
:103580008091E800877F8093E8000E94840E8091FC
:10359000E80080FFFCCF8091E30080688093E30027
:1035A00083E0111101C082E0809337058BCF8058F2
:1035B000823008F087CF40911F02509120024C3D8D
:1035C00083E0580799F583E08A838AE289834FB7BD
:1035D000F894DE01139620E03EE051E2E32FF0E0A4
:1035E00050935700849120FF03C082958F703F5FF6
:1035F0008F708A30C8F0895C90E08D939D932F5F27
:10360000243161F74FBF8091E800877F8093E80005
:103610006AE270E0CE0101960E942B0E8091E800D4
:103620008B778093E8004ECF805DE6CF80912102BA
:1036300090912202252F33272330310509F44AC007
:1036400078F52130310509F479C08BE590E0ECEC98
:10365000F1E02230310509F035CF2091E800277FD5
:103660002093E800209123023091240282179307CF
:1036700008F49C0140E02115310509F064C04111B6
:1036800062C08091E80082FDC9CF80913705882310
:1036900029F2853019F28091E80083FFF2CFBECF86
:1036A0002132310509F43BC02232310509F00ACF3D
:1036B0008330910508F006CFFC01EE0FFF1FE8599B
:1036C000FE4F0190F081E02D8B599E4FDC018C91D3
:1036D00090E011C0CA019927413089F082309105EC
:1036E000B1F0892B09F0EECEE9E5F2E0E4918E2FFE
:1036F00090E0E9E5F2E0009709F4E4CEAECFE7E42C
:10370000F2E0E4918E2F90E0E7E4F2E0F4CFE9E319
:10371000F2E0E4918E2F90E0E9E3F2E0ECCF833029
:10372000910508F0CFCEFC01EE0FFF1FE259FE4FCE
:103730000190F081E02D89E090E08FCF82E190E070
:10374000E7E2F2E08ACF80913705882309F466CF5B
:10375000853009F463CF8091E80083FD5FCF8091CD
:10376000E80082FD8ECF8091E80080FF84CF9091A9
:10377000F3008091F2002115310519F08830910590
:1037800050F041E0089709F040E08091E8008E7722
:103790008093E80070CF44914093F100319621501E
:1037A00031090196E8CF803809F08CCE8091E8008D
:1037B000877F8093E80080911B028093F10078CE90
:1037C000811180CE10911F02123008F07BCE8091C3
:1037D000E800877F8093E80010931B020E94840E0C
:1037E0001123D1F084E08093370542E061EC81E061
:1037F0000E941E0F42E261EC84E00E941E0F42E232
:1038000061EC82E00E941E0F42E260EC83E00E94C5
:103810001E0F8091370556CE8091E30087FDE2CFE1
:1038200081E0E1CF9C014FB7F89480914C059091D5
:103830004D05A0914E05B0914F054FBF821B930BD4
:1038400008950F931F93CF93DF93C62FD42F122F7A
:103850008823A9F06093B5050E94BF1690931702C4
:1038600080931602C77081E001C0880FCA95EAF7FD
:103870000E947D12DF91CF911F910F910895809149
:10388000B505681336C080911602909117020E9408
:10389000121C883C910568F5CD130EC060E070E005
:1038A000812F0E94F918D77081E001C0880FDA9546
:1038B000EAF70E948712DECFC77001E0802F01C0B7
:1038C000880FCA95EAF70E94871280E28D0F883030
:1038D00050F48D2F877001C0000F8A95EAF7802F72
:1038E0000E947D12DBCF60E070E0812F0E94F9180A
:1038F000C1CFC77081E001C0880FCA95EAF7D9CF60
:10390000A8E0B0E0E6E8FCE10C94FE326C01DC01DA
:1039100014968C91882309F4B4C061E0C6010E941A
:10392000BD118C01F6018581882309F495C59801A4
:1039300037572038310508F09AC5003108F090C09B
:103940008FEF93E00E94223481118AC028EAE22E90
:10395000FF24F394011153C01A821982FE01339699
:1039600086E0DF011D928A95E9F75701BFEFAB1A98
:10397000BB0AC7010E94223489831A82882309F472
:103980006FC0813009F081C087010E5F1F4FC501F4
:103990000E9422348A83882309F462C09FEF980F23
:1039A0009330E0F5E3E0EE0EF11CC8010E942234F2
:1039B0008B83882309F454C01C828E010F5F1F4F34
:1039C000D8018C91882389F2813009F0A1C0119629
:1039D0008C911197813009F05AC05801B2E0AB0EBA
:1039E000B11CF801828160E070E0893311F460E578
:1039F00070E00E94F91885010F5F1F4FE1CFE114BD
:103A0000F4E0FF0669F1C7010E94223497012F5F9D
:103A10003F4F79018111F3CF01509CCF8430B9F42D
:103A200092E0E92EF12CC8010F5F1F4F0E94223453
:103A3000E1E0F0E0EC0FFD1FEE0DFF1D8083882319
:103A400079F08C3731F4FE01EE0DFF1D1282780102
:103A5000B4CFFFEFEF1AFF0A27E0E216F10419F7DF
:103A60008091C7058770882361F0D60115968C91E7
:103A7000882339F08091C90582FF03C082E00E944B
:103A800021072896EFE00C941A33750196CF823007
:103A900049F45801F2E0AF0EB11C12968C910E94CD
:103AA0005718A9CF833049F45801B2E0AB0EB11CCE
:103AB000F80182810E94C6189ECF843019F00F5FF2
:103AC0001F4F9ACF12962C910E5F1F4F80E090E00F
:103AD0006AE0A8014F5F5F4F2053330B2A30310556
:103AE00058F0009709F488CFAFE9BFE01197F1F7DC
:103AF00000C000000197F5CF689FF001699FF00DAD
:103B00001124C9018E0F9F1FF80121818A01E1CF85
:103B1000E82FF0E0E151F44F6490282F2695269588
:103B2000269530E0F901E152F44FA4908770782E89
:103B3000B12C082E02C0B594A7940A94E2F7B1E024
:103B4000AB22BB24F901E153F44F8490912C02C0C5
:103B5000959487948A95E2F7E1E08E229924F90101
:103B6000E154F44F5490A114B104C1F481149104B0
:103B700021F560E070E0862D0E94F918E52DF0E057
:103B8000072C02C0F595E7950A94E2F7E0FF34CFE1
:103B900060E070E08CE20E94F9182ECF81EE0E9466
:103BA00057188114910449F460E070E0862D0E945A
:103BB000F91881EE0E94C618E1CF86EE0E945718D0
:103BC00060E070E0862D0E94F91886EE0E94C6180B
:103BD000AB28A1F2EECF26E241EE61EE0E94211C5D
:103BE0003FCF27E245EE65EEF9CF26E241EE60EEEB
:103BF000F5CF27E245EE64EEF1CF26E241EE62EE2C
:103C0000EDCF27E245EE66EEE9CF28E241E0EBCFCB
:103C10000631FCE71F0709F0DFC08091B60581116E
:103C2000D9C089E20E949A0DD0C08091C8058160F8
:103C30008093C8056091C8057091C90584E090E043
:103C40000E9464340E9411190BCF8091C9058860CD
:103C50008093C905EFCF8091C8058260E9CF80913C
:103C6000C8058460E5CF8091C8058860E1CF809168
:103C7000C9058160EDCF8091C9058260E9CF80914F
:103C8000C8058061D5CF8091C8058062D1CF809171
:103C9000C8058064CDCF0E9411198091C805806845
:103CA000C7CF8091C8058C60C3CF8091C905836060
:103CB000CFCF8091C8058E7FBBCF8091C905877F0C
:103CC000C7CF8091C8058D7FB3CF8091C8058B7F0A
:103CD000AFCF8091C805877FABCF8091C9058E7F1C
:103CE000B7CF8091C9058D7FB3CF8091C8058F7EF6
:103CF0009FCF8091C8058F7D9BCF8091C8058F7B1A
:103D000097CF0E9411198091C8058F7791CF80912C
:103D1000C805837F8DCF8091C9058C7F99CF809115
:103D2000C80582FB992790F921E0922790FB82F940
:103D300090FB83F97DCF8091C905982F9095917064
:103D40008E7F892B90FB81F983CF9091C805892FB5
:103D50008F7B96FF80646CCF0E9411199091C805EB
:103D6000892F97FB87F9805863CF61E08EE090E060
:103D70000E9446345FCF60E0F9CF9091C805892F4B
:103D80008F7E94FF806154CF9091C805892F8E7FDC
:103D900090FF81604DCF9091C905892F877F93FF58
:103DA000886056CF06312CE7120709F09CC080913D
:103DB000C2058A7A91E0811101C090E09093B60526
:103DC000882331F085E30E94660D0E942B1248CEB5
:103DD00089E2F9CF85E326CF8091C2058272F8018E
:103DE000E052F847E531F10508F0A9C0E756FB4C71
:103DF0000C9482338091BA0580FF1EC0282F2E7F3D
:103E00002093BA053091BB054091BC055091BD058A
:103E10006091BE057091BF058091C0059091C1056C
:103E20000E941F140E94A00A8091B90581608093AE
:103E3000B9050E94300A14CE81608093BA0561E012
:103E4000869586950E94F2160BCE4CE457E160E40D
:103E500077E10E94AD0C04CE40E457E16CE477E1D9
:103E6000F8CF4FE155E165E175E1F3CF45E155E16B
:103E70006FE175E1EECF46E355E169E275E1E9CF27
:103E800049E255E166E375E1E4CF40E555E163E4DD
:103E900075E1DFCF43E455E160E575E1DACF4FE549
:103EA00054E165E474E1D5CF45E454E16FE574E194
:103EB000D0CF61E081E0C6CF65E082E00E94591773
:103EC000CFCD68E086E0FACF6EE089E0F7CF64E11D
:103ED0008FE0F4CF67E185E1F1CF61E088E1B2CF17
:103EE00062E289E1EBCF07373CE7130709F484C0AE
:103EF00008378CE7180709F48CC00A35BCE71B07A4
:103F000009F4A4C008F087C00130FCE71F0709F4DA
:103F10009BC003302CE7120709F490C001153CE761
:103F20001307C1F40E941119AFEFB4E3ECE0A15004
:103F3000B040E040E1F700C000000E94170E0737D4
:103F40009CE7190709F461C082E00837ACE71A075B
:103F500009F45CC0F6018581E080F180882309F4D2
:103F600079C0C7010E949211182F682FC7010E94C3
:103F70008B06B701812F0E9484110E945A08E82EF7
:103F8000192FD6011596BC9015971696AC90A29451
:103F90008FE0A8228091C7058770882309F1FB2C48
:103FA000BB20F9F0892F807F803469F080E28E0D8C
:103FB0008830B0F0892F807E803229F4B1E0BE15C0
:103FC00078F4AA2069F08091C90582FF09C082E0D7
:103FD0000E9421078091C7058770FF24F394811107
:103FE000F12CE12FE295EF70103C08F09AC0F0E060
:103FF000E255FB4C0C94823381E00E946F0643E053
:1040000062E081E00E94F6062BCD81E00E947B06F3
:10401000F6CF82E0F2CF0B358CE71807C9F00C35EC
:104020009CE7190709F096CF8091C90582FB882784
:1040300080F991E089270E94A0108CCF6FEF7FEF6D
:1040400080E090E00E9464340E94421981E0F3CF46
:1040500080E0F1CFC7010E94C206182F8ACF012F3E
:104060000F70103110F00295007FBB20B9F00023D3
:1040700069F080E28E0D883010F0E11009C0809167
:10408000C205802B8093C2050E942B128E2D41C049
:104090008091CA05802B8093CA05F6CF8E2D0E9491
:1040A000C6180023F1F180E28E0D883010F0E11087
:1040B00004C0802F0E945F0706C000958091CA054A
:1040C00080238093CA050E942B122BC0012F0F70F2
:1040D000107F103211F00295007FEE2051F0E1E0E8
:1040E000EE1609F46CC0BB2009F478C0AA20D1F107
:1040F000CDCF8091C90582FD31C0BB2069F000237E
:1041000039F08091C205802B8093C2050E942B124A
:1041100080E00E94571805C080E00E94C618011177
:10412000C8CFFF20B1F08091C70580FD12C0D60135
:1041300015961C928695869586950E946F06C601F7
:104140000E94801C8091C7058695869586950E9461
:104150007B0660E0C6010E94BD1193CCBB2099F0A4
:10416000A11004C0802F0E947D12DBCFF1E0AF12BE
:10417000D8CF8091C305902F9823091791F2802BF7
:104180008093C305CECFA110CCCF802F0E94871281
:104190009091C305802F8923882329F0802F809553
:1041A00089238093C3058091C405902F9823992378
:1041B00009F4B7CF009508230093C405B2CFBB2004
:1041C00029F025E02A1508F4ACCFCCCF34E03A151D
:1041D00008F4A7CF802F0E948712A3CFAA20D1F383
:1041E00089E3E81209C09FEFA7EEB3E09150A04029
:1041F000B040E1F700C000008E2D0E94C61891CF9C
:10420000812F869586958370882369F0813009F027
:1042100088CF8E2D912F9370B11002C080E090E076
:104220000E94400D7ECF8E2D912F9370B11002C051
:1042300080E090E00E941A0D74CF6B2D8E2D0E94AD
:1042400092176FCF812F8370811137C0B1102AC0B0
:104250004E2D429546954770440F440F2E2D2F70DA
:10426000042E01C0220F0A94EAF79E2D9071992323
:1042700041F08FE090E001C0880F4A95EAF7982F4F
:104280009095169516951370123091F0892F822B08
:10429000133031F08091C505113039F0292B82237C
:1042A0000E9469060E94090D3CCF822B892BF8CF12
:1042B000292B8091C5058227F3CFBB2069F110FF20
:1042C000F1CF4E2D429546954770440F440F2E2D49
:1042D0002F70042E01C0220F0A94EAF79E2D9071D0
:1042E000992341F08FE090E001C0880F4A95EAF7EA
:1042F000982F9095169516951370123099F0892F76
:10430000822B133031F08091C605113041F0292BFA
:1043100082230E946C06C6CF823020F2D2CF822B3D
:10432000892BF7CF292B8091C6058227F2CF1F70EA
:10433000BB2039F0812F0E946F068E2D0E947D12C6
:10434000B1CF8E2D0E948712812F0E947B06AACFAB
:10435000E2EFEE16A9F1EE1588F0F0EFEF16D9F0C6
:1043600021EFE21609F443C0BB2009F462C0AA2081
:1043700009F45CC08E2D0E94571894CF33EFE316DA
:1043800031F184EFE81679F1B110F1CFA11060C0DE
:10439000812F8F71DACFBB2081F094E09A1508F459
:1043A00081CF1F7181E090E0012E01C0880F0A9437
:1043B000EAF79091C6058927ACCFA5E0AA16EFCF02
:1043C000812F8F71B110C1CF0E946F066BCF80E03B
:1043D000BB2009F49ECF1F7181E0012E01C0880F20
:1043E0000A94EAF796CF9091C90592FD06C0812FF5
:1043F0008F71BB2009F4A9CFE7CFBB2061F0812FDB
:104400008F7192FFE1CFB8E08B9F90011124236060
:104410002093C705D9CF81E00E942107E1E0EA158A
:1044200008F040CF82E00E9421073CCF812F8F719E
:10443000CBCFAA2009F4ACCFF9E3EF1209C02FEFDC
:1044400037EE83E0215030408040E1F700C00000AB
:104450008E2D0E94C61826CFF801E851FC47E730A0
:10446000F10508F0D5CBE654FB4C0C948233F801EF
:10447000E851FC47E730F105B0F31092B505C801EB
:104480009057839708F08ECC84E090E00E943034FF
:104490009093C9058093C805F801E150F047E232D6
:1044A000F10508F0C2CBEF53FB4C0C9482338091A2
:1044B0000B06803178F480910A06882359F0E09148
:1044C000CC052091CB05309106064091050657E0BA
:1044D0002E1301C008956E2F70E05E9FF00111242D
:1044E000DF01A353BA4F14968C911497882361F17E
:1044F00011968C911197831327C08C91841324C03B
:1045000015968C91159781111FC012968D919C91D3
:10451000A0910706B09108068A1B9B0B883C910569
:1045200098F480910B068F70806180930B06ED529A
:10453000FA4F80818F708061808385E096E00E94D1
:10454000801C0E9417070895FB013196E770C0CFC9
:10455000ADE0B0E0EEEAF2E20C94FF328C0186E0CE
:10456000F801DE01189601900D928A95E1F7F801A5
:104570007080F580A280B380848195E0892E96E0DA
:10458000992E60900906611018C0882399F0FF20C9
:1045900009F413C1C8010E94EC11882309F40DC16C
:1045A00087E0F801A5E0B6E001900D928A95E1F769
:1045B0000E945722FF24F39453C0D0900A06209102
:1045C000070630910806A501421B530BDD2009F4B4
:1045D000C4C0483C510508F07AC0882359F3809143
:1045E0000606C180E0900B06FFE0FE1508F459C0F6
:1045F000C81215C080910506871111C0F1104BC07B
:104600008E2D8F70806180930B0685E096E00E946E
:10461000801C80910B06F8018683F12C21C0F110DB
:104620003AC040E06C2D872D0E94B00F40E06C2D09
:10463000872D0E94B00FF82E8111EFCF88859985C4
:104640000E94DD11292F22952F70903470F49F70F5
:104650002230A0F09923B1F0F8019681903190F4C6
:104660008F2D2D96EEE00C941B332A5F2F70223095
:1046700068F0C8010E94801CFD2CF2CF992311F034
:10468000882371F3805E883058F3F3CF803F40F386
:10469000815F8230F9CF80910B06816080930B0699
:1046A000BCCFC8123CC080910506871138C0F110FC
:1046B00036C0F801E682C8010E94801C87E0F8013C
:1046C000A5E0B6E001900D928A95E1F773CFE090F6
:1046D0000B06FFE0FE1550F085E096E00E94801C7E
:1046E00087E0F40111928A95E9F797CF882309F4BE
:1046F00061CF90910606F8018181981310C08091D6
:10470000050687110CC0F1100AC0E682C8010E949C
:10471000801C87E0F40111928A95E9F74BCFC8011C
:104720000E94EC11882309F448C0FF2009F445C019
:1047300080910B06803208F433CF8091050690916A
:1047400006069A838983BC82AB826D821E82EF82C9
:10475000CE0101960E94801C23CF483C510508F0F1
:10476000BFCF882309F426CFFF2039F190910606A8
:104770008181981318C080910506871114C080911B
:104780000B0680FD9BCF803108F498CF8683807F15
:10479000803F09F490CF8681982F907F905F8F7033
:1047A000892B868388CFC8010E94EC118111F8CE35
:1047B00080910B06816080930B06C8010E94801CCB
:1047C000F9CEABE1B0E0E7EEF3E20C940A334E8BA6
:1047D0005F8B688F798F8A8F9B8F91111092CA059A
:1047E0001D8A86E0FE017696DE011F9601900D92ED
:1047F0008A95E1F78B89882329F061E0CE010F9635
:104800000E94BD1187E0FE013F96DE0118960190DF
:104810000D928A95E1F7CE0108960E94A822811197
:104820002BC087E0FE013896DE01119601900D92B3
:104830008A95E1F72091CB054091CC058C858823A2
:10484000D9F030E0C90101968770992750E08417AC
:104850009507E9F097E0929FD001939FB00D112446
:10486000A353BA4FFE01319601900D929A95E1F74C
:104870008093CB050E94170717E08091CC0590919B
:10488000CB05891312C06B96E3E00C9426330E948B
:1048900011191092CB051092CC0587E0E5E0F6E007
:1048A000DF011D928A95E9F7E7CF189FC001112417
:1048B00083539A4F0E94A822882329F38091CC0524
:1048C00090E00196877099278093CC05D6CFA6E01B
:1048D000B0E0EDE6F4E20C9409330E94BF168C01BF
:1048E00080916E0590916F058017910779F019827C
:1048F0001A820E94BF16BC0149815A8180E090E073
:104900000E94E12310936F0500936E052696E4E064
:104910000C942533A7E1B0E0E0E9F4E20C94FE3218
:104920001D861C86FE013E9686E0DF011D928A955B
:10493000E9F787E9E82E81E0F82E8E01045F1F4F2A
:104940009BE9C92E91E0D92E3801AA24A394B12C59
:1049500031EA832E31E0932EF70181917F018F3F61
:1049600009F441C0F894E82FE295EF70F0E021A13E
:104970008F70A50102C0440F551F8A95E2F7CA0146
:10498000922F982B91A392A18095892382A378944A
:1049900000C0EBE9F1E031E0512C21912F3F09F407
:1049A00094C0A22FA295AF70A05EB0E08C9190E071
:1049B0002F7002C0959587952A95E2F78170811135
:1049C00084C0832F582A330F8E169F0631F7F701C4
:1049D000319780818F3F11F00E94750950EA5A95F6
:1049E000F1F7D8015C920F5F1F4FCE14DF0409F07E
:1049F000B3CF48E050E0B3018CED92E00E940C345C
:104A00000091E50210E0015D1A4F892B09F45FC0A7
:104A100088E0F301ACEDB2E001900D928A95E1F7E8
:104A200081E0809315020E94BF1690931402809338
:104A3000130280916C05882309F4A2C01A8219829E
:104A40001C821B82809118028A3008F062C04AE7FB
:104A500053E1FE0131967F01BF01C8010E9466103B
:104A60006701882309F47AC040E353E1B701C80124
:104A70000E946610882309F471C04EE852E1B70124
:104A8000C8010E946610882309F468C04EE453E10F
:104A9000B701C8010E946610882309F45FC0109214
:104AA00018028091E40290E044E050E0B601815D9C
:104AB0009A4F0E940C3421E020931202892B09F0B6
:104AC0003FC06796EFE00C941A3380E07BCF809173
:104AD0001502882309F4ADCF80911302909114023E
:104AE0000E94121C059708F4A4CF44E050E06CED3E
:104AF00072E0C8010E940C34892B41F084E0ECED97
:104B0000F2E0D80101900D928A95E1F7109215021A
:104B100090CF80911002909111020E94121C843F4C
:104B2000914008F094CF80911202882351F284E0E2
:104B3000FE013196DF011D928A95E9F7109212026B
:104B4000E091E402F0E0E15DFA4F89819A81AB8166
:104B5000BC8180839183A283B383B3CF80911802F9
:104B60008F3F39F40E94BF16909311028093100278
:104B7000DACF8F5F809318028A3008F492CFF2CF99
:104B8000E090E402F12CF701E15DFA4F7F01F801BA
:104B900080819181A281B3818093510590935205C8
:104BA000A0935305B093540581E595E00E94F30E60
:104BB000809350058091550590915605A091570519
:104BC000B0915805F70180839183A283B383C0908D
:104BD0005905D0905A05E0905B05F0905C058091F6
:104BE0000C0290910D02A0910E02B0910F02C81616
:104BF000D906EA06FB06B1F0C0920C02D0920D0273
:104C0000E0920E02F0920F020E94C70DC61AD70A58
:104C1000E80AF90AC0926805D0926905E0926A052F
:104C2000F0926B058BE0EDE5F5E0DE011196019069
:104C30000D928A95E1F780915D0586958695F090B5
:104C40005E05E0905F05D0906005009166051091CB
:104C5000670510926705112309F433CF10FF0BC0CD
:104C6000998190FF1CC09091BA0591609093BA050C
:104C700060E00E94F21611FF06C020E04D2D6E2D5F
:104C80008F2D0E94791412FF04C0002359F00E9456
:104C9000D61613FF16CF81E08093FB0212CF0E943D
:104CA000A70AE9CF0E94A00AF4CFCDB7DEB7A49738
:104CB0000FB6F894DEBF0FBECDBF85B7806885BF45
:104CC00085B7806885BF84B7877F84BF0FB6F894A7
:104CD000A8958091600088618093600010926000C8
:104CE0000FBE80E890E00FB6F89480936100909337
:104CF00061000FBE83E799E09093E3018093E201A6
:104D00000E94D40E0E94550F8091E200846080932F
:104D1000E200789480913705882399F08091E9002A
:104D20001091EC001795112717958F70182B109282
:104D3000E9008091E80083FD0E9458191F701093CC
:104D4000E90082E084BD93E095BD9AEF97BD809322
:104D50006E00109268051092690510926A05109213
:104D60006B050E941212811102C00E94451188EC4D
:104D700090E02091E30027FDA2C7AFE3BCE91197C3
:104D8000F1F700C000000197009799F70E94D40E38
:104D90001092370510926C0510926D051092130158
:104DA0008BE180930E0180930F018091130180911C
:104DB000130191E08927880F880F8093E50294E022
:104DC000981B9093E40284E90E94750986E60E948C
:104DD000750987E90E94750986EC0E9475090BE93F
:104DE00011E031EAE32E31E0F32EF80181918F01D9
:104DF0008F3F11F00E947509E016F106B1F788E0C7
:104E0000EFE2F5E0DF01682E1D926A94E9F7ECED20
:104E1000F2E0DF011D928A95E9F780E090E00E94C0
:104E20003034853E9E4F21F40E941212811163C0DE
:104E300065EE7EEF80E090E00E94643460E082E006
:104E400090E00E94463481E08093C50561E083E0F4
:104E500090E00E94463460E074E184E090E00E94BB
:104E6000643460E086E090E00E94463460E087E0D1
:104E700090E00E94463440E050E0BA0188E090E0C3
:104E80000E94583460E083E290E00E94463460E083
:104E90008CE090E00E94463460E08DE090E00E945B
:104EA000463419821A821B821C821D821E821F8236
:104EB000188648E050E067E170E0CE0101960E945C
:104EC000363440E050E0BA018FE190E00E9458345F
:104ED00080E00E9427110E94451140E050E0BA0195
:104EE0008FE090E00E94583440E050E0BA0183E146
:104EF00090E00E94583482E090E00E942234809337
:104F0000EC0284E090E00E9430349093C9058093D5
:104F1000C8050E948A24EFEFF6E721E0E150F04057
:104F20002040E1F700C000000E948A24E0916D0556
:104F300011E0E127EE0FEE0FF0E0E15DFA4F808126
:104F400081FF08C06FEF7FEF80E090E00E94643443
:104F50000E94170E83E090E00E9422340E946906AE
:104F600080916C058127880F80931E0580E88093CF
:104F7000E8020E9408306BE070E089E39BE00E9449
:104F80005D15882309F443C080911E0565E070E03B
:104F900081FDDAC184E39BE00E945D158823B9F1AD
:104FA0006DE070E082E29BE00E945D15882379F15C
:104FB0000E94C70D69A37AA38BA39CA3DC01CB013C
:104FC000805A9541AF4FBF4F8093220590932305A0
:104FD000A0932405B0932505EEE1F3E080E092E094
:104FE000DF019C011D9221503040E1F7F093E70270
:104FF000E093E6028FEF9FEF9093210580932005C9
:1050000081E0809329058093260510921F058091E9
:10501000E90281119EC088E090E00E942A346B0171
:105020007C0183E290E00E942234282F30E040E0AF
:1050300050E060E070E080E090E000E20E94C03369
:10504000F22FA32EB42EB52FA62FE72F970186019E
:1050500040E050E0BA01FC29A12AB22AB32BA42BCC
:10506000E52B862B972BF093BA05A092BB05B09247
:10507000BC05B093BD05A093BE05E093BF0580932A
:10508000C0059093C1052091B90523602093B9050F
:10509000F43008F04CC025E02093BA051092BB050F
:1050A0002FEF2093BC0528E72093BD051092BE0585
:1050B00025E030E04FEF58E760E07E2F0E941F149C
:1050C00088E090E00E942A346B017C0183E290E04A
:1050D0000E942234282F30E040E050E060E070E091
:1050E00080E090E000E20E94C0335901B42FA52F68
:1050F000F62FE72F9701860140E050E0BA01AC2877
:10510000B12AB22BA32BF42BE52B862B972BA09245
:10511000BA05B092BB05B093BC05A093BD05F09352
:10512000BE05E093BF058093C0059093C1050E9422
:105130001B0A0E94A00A0E94B40C8091BA0580FF4D
:1051400005C060E0869586950E94F21681E0809306
:10515000E90280916C05811102C00E94873184E1CF
:1051600091E0909391058093900522242394312C13
:1051700080913705853049F480913705853009F4F1
:10518000E6C00E9411190E94090D0E948A240DEEAA
:1051900012E09FE2E92E95E0F92ED701F8019191F6
:1051A0008D9125EF32E02E173F0709F407C19817BC
:1051B000B1F380906C05D12C77247394D701CD90F6
:1051C0007D01F80191908F019C1439F19C24B12C40
:1051D000AA24A394892D8A218823B9F08820A9F0D4
:1051E000B982DA820E94BF169C838B837D8291E014
:1051F0008C2D8A21811101C090E09E8349815A81C2
:105200006B817C818D810E94E123B394AA0CF6E02E
:10521000BF12E0CFF8013197C082D39488E0682EA6
:10522000D610CCCF0E94E40DF090B805F11017C154
:10523000F0902905F110CFC00E947C1586E0EFEABE
:10524000F5E0DE01119601900D928A95E1F7C0908C
:10525000B0050091B1051091B205E090B305F09052
:10526000B4051092B1051092B2051092B3051092D8
:10527000B405812F802B882379F080912C059091A3
:105280002D050E94121C9C018091AD058111BBC2AD
:105290002B30310508F0BDC28E2D8F29882379F07F
:1052A00080912A0590912B050E94121C9C018091EF
:1052B000AC058111E6C22B30310508F0E8C28091BF
:1052C000B005C81216C08091B105882311F0801373
:1052D00010C09091B205992311F019130AC02091C2
:1052E000B405211106C02091B305211102C0892BFC
:1052F00081110E946A1786E0FE013196AFEAB5E09F
:1053000001900D928A95E1F70E94090D90912E056A
:10531000891721F080932E050E94C70D80913705D3
:10532000843009F025CF83E08093E9008091E80084
:1053300082FF1ECF8091E80085FDE1C28091E800E8
:105340008B778093E80014CF8FE29BE025CE80918D
:105350003705843031F10E946A151092EA0248E163
:1053600050E060E40FB6F894A895409360000FBE3B
:105370006093600083B7817F846083BF83B781605F
:1053800083BF7894889583B78E7F83BF0FB6F894D8
:10539000A895809160008861809360001092600001
:1053A0000FBE0E948A24EFE2F5E0819181116AC468
:1053B00087E395E08E179F07C1F7DECE9813F9CEED
:1053C0000E946724F090B805F11048C0809129052B
:1053D000882309F433CF80912705909128050E94F6
:1053E000121CC29708F405C10E94BF1690932805AD
:1053F0008093270580E00E940C0F80916C05882324
:1054000009F441C18EE491E00E947F1681E00E9480
:105410000C0F8BE591E00E947F1660E08CEB9BE027
:105420000E946D1682E00E940C0F60E084EB9BE00E
:105430000E946D168091C6050E945706823009F4BD
:105440001AC108F0C0C0811112C160E08FEA9BE070
:105450000E946D1681E00E943A16B8C0F12C80912E
:10546000B705E091BA05E695E695E81BE093FA02E8
:10547000823009F062C0F0E0E05BF44FE4910E2F5F
:1054800010E0B6EBCB2EBAE0DB2E8091FB02882336
:1054900061F01092FB020E94CB169093F902809368
:1054A000F8021092FD021092FC020E94CB169C01A1
:1054B0008091F8029091F902A901481B590B4F3FC6
:1054C0005F4798F54091F7024423B1F01092F7023C
:1054D0004091F5025091F602241B350B2F3F3F47B8
:1054E00058F4405D5A485093F6024093F5022091DB
:1054F000B90528602093B905A090FC02B090FD0288
:10550000800F911F9093F9028093F80288EF92E048
:10551000F60109958091FC029091FD02892B29F4F6
:10552000AB2819F081E08093F70280912905811161
:1055300052CFFF2009F482CE7FCE863059F4F0E0BE
:10554000E35BF44FE4910E2F10E0A0E9CA2EAAE02D
:10555000DA2E9BCF893061F4E695F0E0E65BF44FFC
:10556000E4910E2F10E0FAECCF2EFAE0DF2E8DCF73
:105570008F3061F4E695F0E0E95BF44FE4910E2F93
:1055800010E0E8E0CE2EEBE0DE2E7FCF853159F43F
:10559000F0E0EC5BF44FE4910E2F10E072E9C72EBF
:1055A0007BE0D72E72CF00ED17E06EE8C62E69E0E3
:1055B000D62E883109F069CF08E210E055E1C52EFA
:1055C0005CE0D52E62CF833009F459C083E00E949D
:1055D0000C0F0E94090D182F117081FB662760F9CE
:1055E0008BE99BE00E946D16612F84E99BE00E948D
:1055F0006D168091200590912105892B91F0809165
:105600002905882371F080911F0581110AC00E942D
:105610007C15209120053091210580E02115310570
:10562000B9F580912605882309F483CF0E94C70D20
:1056300069A37AA38BA39CA3809122059091230553
:10564000A0912405B091250529A13AA14BA15CA107
:10565000281B390B4A0B5B0BDA01C9018F3F9F4FA7
:10566000AF4FBF4708F065CF0E946A1562CF60E078
:105670008AEA9BE0EDCE60E086EA9BE0E9CE60E05E
:1056800081EA9BE0E5CE60E084E59BE0B0CF8F5FF0
:10569000082F10E06101082E02C0CC0CDD1C0A941A
:1056A000E2F7A60142235323452B89F390911E056F
:1056B00090FD43C098013695279536952795922FF2
:1056C0008295880F80763FE1380F809320012093E8
:1056D0002301309321019093240124E630E047E038
:1056E00050E06EE171E088E70E943E30892B09F0BE
:1056F00098CFA80135E0440F551F3A95E1F7809106
:105700001E0580FD22C0425E5C4F04E610E020E2F0
:1057100030E060E488E70E94D630892B09F081CF21
:10572000C094D0948091200590912105C822D9225F
:10573000D0922105C092200574CF880F880F880F62
:1057400037E0380F20E093E0C0CFEEEFF2E080E2E8
:10575000DF011D928A95E9F705EA11E0E1EAF1E03F
:10576000FAA3E9A399EA492E91E0592E27E0922E57
:10577000D801ED918D01A9A1BAA16D91BAA3A9A3F8
:10578000640F752F711D625E7C4FF0E0E250FD4F9B
:1057900020E030E0792C721AE22C022E01C0EE0CCF
:1057A0000A94EAF75B0190E0D5018D915D018E21AD
:1057B000A72DA91BA770B0E0682E0A2E01C0660CA9
:1057C0000A94EAF7B195A195B109A770BB2701C06A
:1057D0008695AA95EAF78629A0818A2B80839F5F08
:1057E000983011F72F5F3F4F31962830310591F6F1
:1057F0004016510609F0BCCF04E610E020E230E08C
:105800004EEF52E086CF2531310508F445CD8F3F6C
:1058100019F08F5F8093AD05002359F00E94C40CEE
:105820009FEF10160CF491E0899F802D1124809336
:10583000B105112359F00E94C40C91E011160CF02F
:105840009FEF899F802D11248093B2058091B1052F
:10585000882309F421CDD090B205DD2009F41CCDB8
:105860000E94B60C811101C081E08093B1058D2D9D
:105870000E94B60C882319F08093B2050DCD81E00B
:10588000FBCF2135310508F41ACD8F3F19F08F5F1A
:105890008093AC05EE2059F00E94E40C9FEF1E149B
:1058A0000CF491E0899F802D11248093B305FF2093
:1058B00059F00E94E40C91E01F140CF09FEF899FB7
:1058C000802D11248093B4058091B305882309F4B9
:1058D000F6CCF090B405FF2009F4F1CC0E94B60C90
:1058E000811101C081E08093B3058F2D0E94B60C19
:1058F000882319F08093B405E2CC81E0FBCF0E94AD
:10590000A30E882379F08091E8008B778093E800DC
:105910008981EFEFE80FE33190F5F0E0ED51FB4CBA
:105920000C94823380E2E82EF12C8E010F5F1F4F22
:105930008091E80085FD0AC08091E8008B77809314
:10594000E8000E94A30E882399F3DDCF8091F10037
:10595000D8018C93B1E0EB1AF108E114F10499F24B
:105960000F5F1F4FE5CF1A828CE08B831AC08A81AC
:10597000833049F138F4813061F08230D9F08FEF13
:1059800089830FC08430D9F71B821C821D821E823E
:1059900008C00E94C70D0E9488336B837C838D836F
:1059A0009E8340E250E0BE016F5F7F4F82E00E9425
:1059B000FC0FDECB87E290E00E9422341B821C8227
:1059C0001D828E83EECF8B8190E0DE0114968830AD
:1059D00091053CF7FC01FF27E15DFA4F20812D93F3
:1059E0000196F5CF8A81823049F0853041F6809169
:1059F000BA0580FF14C00E94A70AD3CF2B813C8137
:105A00004D815E8129A33AA34BA35CA3CA01B901CE
:105A10000E94883387E290E00E944634C2CF8160C2
:105A20008093BA0560E0869586950E94F216B9CFFC
:105A30004C816B818A810E9455119827892798276C
:105A40009E838D83AECF2D813E813227232732273F
:105A50004C816B818A810E94B710A3CF0E94DE1017
:105A6000A0CF9A81923009F08ACF8830E1F1893055
:105A700009F465C08B81833091F1B0F48130E9F095
:105A8000823009F08ECF8C81882309F4B4CF8091C5
:105A9000BA0581608093BA0560E0869586950E947C
:105AA000F21660E08C81C1CF843009F07ACF20E01B
:105AB0004091BD056D818C810FC08C8138E7839F3B
:105AC000C00111246FEF70E00E94E732462F20E002
:105AD0006091BC058091BB050E94791462CF8C81D6
